:020000040800F2
:100000000004002031020008310400083104000817
:1000100031040008310400083104000831040008EC
:1000200031040008310400083104000851040008BC
:1000300031040008310400083104000851050008AB
:1000400031040008310400083104000831040008BC
:1000500031040008310400083104000831040008AC
:10006000310400083104000831040008B11100080F
:10007000E111000811120008411200087112000875
:10008000A1120008D1120008310400083104000850
:10009000310400083104000831040008310400086C
:1000A000310400083104000831040008310400085C
:1000B0003104000831040008611700083104000809
:1000C000310400083104000831040008310400083C
:1000D000310400083104000831040008310400082C
:1000E000310400083104000831040008310400081C
:1000F000310400083104000831040008011300082D
:1001000031040008310400083104000831040008FB
:1001100031040008310400083104000831040008EB
:10012000311300086113000891130008C11300087F
:10013000F1130008310400083104000831040008FC
:10014000310400083104000831040008811B000854
:10015000211400085114000881140008310400081B
:10016000310400083104000831040008310400089B
:10017000310400083104000831040008310400088B
:080180003104000831040008FD
:1001900008B52DED088B00F0FBFC00F029FA01F00A
:1001A000C7FF9FED179ADFED178A9FED17BADFEDB6
:1001B00017AAB7EE008AB8EE00AAFFEE089A38EE4A
:1001C000081AF7EE087AB0EE490AF0EE680AF0EE87
:1001D000681A18EE0A0A48EE290A48EE271A31EE84
:1001E000491A01F0EDFE28EE0B8AB7EE000AB4EED4
:1001F0006A8AF1EE10FA98BFB0EE408ADFE700BFDE
:10020000C520B03D9A99593F3333333FACC52737AA
:10021000704700BFAFF30080AFF30080AFF3008002
:10022000FEE700BFAFF30080AFF30080AFF30080C4
:1002300072B6704C84F309884EF63472CEF2000226
:100240004EF68853CEF200034FF04041116018681B
:1002500040F470051D600022E1EE102A4EF63C735A
:10026000CEF2000306211A6081F31488BFF36F8F6A
:100270006148624DA84218D2EA1C051D531B23F0A9
:100280000302034610184FF0553183421960C2F340
:1002900080020AD01AB185422B46296005D01D1D67
:1002A0005960083383426960F9D15548A04218D299
:1002B0005449041D0A1B22F00305034628184FF079
:1002C000553183421960C5F380020AD01AB18442C5
:1002D0002346216005D01D1D5960083383426960A3
:1002E000F9D101F05DFE4849484881421BD2C61C45
:1002F0000C1D321B464822F00302161D056804231C
:10030000B3420D60C2F380020DD022B145680823CC
:10031000B342256007D01A1D1D5884585D5008331C
:10032000B3428C50F7D13B483B49884217D2CB1C93
:10033000041D1A1B22F003050346281800218342DE
:100340001960C5F380020AD01AB1844223462160A5
:1003500005D01D1D5960083383426960F9D1FFF74C
:1003600057FF2E4D2E498D421DD2CC1C2E1DA71B92
:10037000B808471C01242A6800EA04089047BC42D8
:1003800011D0B8F1000F05D0022433689847BC4261
:10039000354608D0696888470234A8682E1D804712
:1003A0000835BC42F6D1FFF7F3FE1E4D1E4A9542BA
:1003B0001DD2D41C2E1DA71BBB085F1C012429685D
:1003C00003EA04088847BC4211D0B8F1000F05D0F9
:1003D000022430688047BC42354608D06A6890479E
:1003E0000234AB682E1D98470835BC42F6D1FFF7A2
:1003F00017FF00BF000800200000002000040020BC
:10040000000400200308002000080020000800204D
:10041000602A000800080020000D00208801000864
:10042000880100088801000888010008AFF30080F7
:10043000FEE700BFAFF30080AFF30080AFF30080B2
:1004400000F07EFA00DF00BFAFF30080AFF3008062
:10045000EFF309824EF63073CEF20003D2F8CC10DF
:100460005960986868309860683282F30988002380
:1004700083F31188704700BFAFF30080AFF30080B3
:1004800008B54FF46D43CEF200034FF44072C0F252
:10049000FA520021996007201021DA6000F080F8FC
:1004A0000A204FF4007100F07BF80B208021BDE89A
:1004B000084000F075B800BFAFF30080AFF30080D4
:1004C000202383F311884FF46D43CEF20003586864
:1004D00010F4006324D0EFF30983A3F1680282F3E0
:1004E000098816494FF080708A6943F84C0CD07F18
:1004F000096892688968B0B1914294BF00220122D4
:10050000BAB10F4A43F8502CF1EE10FA4EF63072A1
:10051000CEF20002516841F0010059665060704708
:1005200083F311887047914234BF00220122002AD0
:10053000E7D1044843F8500CE8E700BFA0090020C9
:100540004104000844040008AFF30080AFF30080CA
:1005500008B5202383F3118800F082F8002383F389
:100560001188BDE80840FFF7ABBF00BFAFF30080C4
:100570002DE9F04F2DED108AC1F80CD0D0F80CD039
:10058000BDEC108ABDE8F08FAFF30080AFF30080C0
:10059000002383F311882846A04700F0A1FA704792
:1005A00082084FF46D43CEF20003063200F00300E0
:1005B00030B4C00053F82250FF2404FA00F425EAB6
:1005C000040401FA00F10C4343F8224030BC7047A8
:1005D000024B034A98698261FEE700BFA009002030
:1005E00000280008AFF30080AFF30080AFF3008075
:1005F00000B583B0FFF744FF00F0DAF800F060F8D0
:1006000000F07EFA00F0B4FA40F600004021C2F299
:10061000000000F0A5F940F6A011C2F2000101228D
:1006200088610277002383F3118862B642F61000D6
:100630008969C0F600008861009340F6480040F2E6
:10064000D1534FF4A471C0F60003C2F2000000F0D1
:10065000E7F903B000BD00BFAFF30080AFF3008047
:1006600038B5134B9869C27F0AB1511EC177036A2E
:10067000104C5A1C0262E0682268411CA242E160F0
:1006800014D09568013D956085B91368D1685C60A8
:100690002360D560002383F31188106988472023E5
:1006A00083F31188226890680028EED038BD00BF1F
:1006B000A009002090090020AFF30080AFF3008074
:1006C00040F69013C2F200034FF0FF3200205B604F
:1006D0001B609A60D8607047AFF30080AFF3008072
:1006E00070B40C4E03613468C260A568A94204D995
:1006F0002468491BA5688D42FAD363680460B4423C
:10070000436018606060816002D0A068411AA160F7
:1007100070BC704790090020AFF30080AFF30080F9
:100720000368074A934203D09968826889189960E0
:1007300042681360036800215A60C160704700BFBF
:1007400090090020AFF30080AFF30080AFF300808A
:10075000202383F31188037F0D2B11D8DFE803F0EA
:1007600020101007100B101010101010100B416A01
:100770008A68531C8B6090E80C001A6001684B601B
:100780004FF0FF3242628168074B002202771B68FC
:100790009A688A42FBD259680360416008605860D9
:1007A000002383F311887047A0090020AFF3008075
:1007B00040F6A013C2F2000300225B601B609A6047
:1007C0005B611B61704700BFAFF30080AFF3008037
:1007D00000228168054B02771B689A688A42FBD227
:1007E000596803604160086058607047A0090020A4
:1007F00040F6A013C2F2000310B499691A68087792
:1008000014201468C87701201077104663601C60BC
:100810009A6110BCFFF7ACBEAFF30080AFF300806D
:1008200030B54B1C87B0054611D00B4C0B4AA36961
:1008300001A8FFF755FF2846FFF7DAFF049B13B125
:1008400001A8FFF76DFFA069406A07B030BDFFF750
:10085000CFFF014CF7E700BFA009002051070008B7
:10086000F0B4144F8568BE690446B0686162002325
:1008700085420CD82377394609688A689542FBD9A6
:1008800048682160606004604C60F0BC704733775A
:10089000394609688A689042FBD9486831607060BF
:1008A00006604E600123204631462377BC61F0BCD0
:1008B000FFF75EBEA0090020AFF30080AFF3008019
:1008C0000E4B18689969026830B453601A608C68DE
:1008D00098610125142300220577CB770A77034618
:1008E00000E01B689A68A242FBD25A680B604A601B
:1008F0001160596030BCFFF73BBE00BFA00900206B
:100900000D4B18689969026830B453608C681A609E
:1009100001259861002305770B77034600E01B68EB
:100920009A68A242FBD85A680B604A60116059600D
:1009300030BCFFF71DBE00BFA0090020AFF3008050
:10094000034B9869C17F09B1FFF7DABFFFF7B8BF62
:10095000A0090020AFF30080AFF30080AFF3008068
:10096000F0B440F6A014C2F20004002265690164EC
:10097000046100F12C06816000F1280745614FF009
:10098000020C60610121142480F81CC04277C477F6
:10099000C263826302628177826128618762066333
:1009A000C662F0BC704700BFAFF30080AFF30080B9
:1009B0002DE9F001643940F6A0154118C2F2000596
:1009C00000266F69C1600B64059B4B6440F2915334
:1009D000C0F600030B660221944600F1280800F1DE
:1009E0002C020177142301210561C0F808C047617A
:1009F000044668614677C377C0F840C0C663866323
:100A00000662817786613861C0F828800263C2621D
:100A1000BDE8F001704700BFAFF30080AFF3008086
:100A200010B51C4682B0202383F311882346049C12
:100A30000094FFF7BDFF00210446FFF711FF0023DC
:100A400083F31188204602B010BD00BFAFF30080D1
:100A500008B50146202383F311880620FFF7E0FE46
:100A6000002383F3118808BDAFF30080AFF300804B
:100A700008B5202383F31188064B1A68986991689A
:100A80008368994201D3FFF71BFF002383F311888A
:100A900008BD00BFA0090020AFF30080AFF30080C5
:100AA00038B50E4B9C692546606255F8280FA84260
:100AB00006D00168A162FFF78BFEA06AA842F8D1B8
:100AC000607F830704D1636922691A6121694B61E0
:100AD0000E20BDE83840FFF78BBE00BFA009002004
:100AE000202383F31188FFF7DBBF00BFAFF3008043
:100AF0000023406000608360704700BFAFF3008058
:100B000040F6C01240F6BC134CF200010648C2F297
:100B10000002C2F20003C2F2010120F0070021F03E
:100B20000701106019607047070D0020AFF30080C7
:100B3000202383F31188094B09491A680968073093
:100B400020F00700891A88429ABF10181860002206
:100B5000002383F311881046704700BFC0090020AE
:100B6000BC090020AFF30080AFF30080AFF300803A
:100B700040F6C813C2F2000340F631310022C0F63D
:100B8000000103F1100019609A60DA60FFF7B0BF4E
:100B900008B500F02DFD42F66010C0F6000000F030
:100BA0002FFE00F02DF800F043F800F051F800F0AF
:100BB00037F8BDE8084001F0FBB900BFAFF3008093
:100BC0004FF48053CEF2000319465A6880188242CF
:100BD0004B6802D29A4202D970479A42F7D998429A
:100BE00094BF00230123002BF1D17047AFF30080A5
:100BF0000A460BC801FA03F100F0DABEAFF3008039
:100C000000F0EEBDAFF30080AFF30080AFF30080E3
:100C10000123002103704160704700BFAFF30080E3
:100C2000704700BFAFF30080AFF30080AFF30080E8
:100C300001F08EB9AFF30080AFF30080AFF3008016
:100C4000002301220270436083600C30FFF750BF25
:100C500001F016B8AFF30080AFF30080AFF300806F
:100C60000023012202704360C36183620362C36296
:100C70004362036303814381704700BFAFF3008089
:100C800030B400EB81040025E468A4692570E260BB
:100C90006360A56030BC01F0E3B800BFAFF3008033
:100CA00030B400EB81040025E46864692570E260DB
:100CB0006360A56030BC01F0EBB800BFAFF300800B
:100CC00070B5448944FA01F313F001060D4601D0D2
:100CD000012070BD012303FA01F52C43448101F08A
:100CE000F7F8304670BD00BFAFF30080AFF300806F
:100CF00070B5048944FA01F313F001060D4601D0E2
:100D0000012070BD012303FA01F52C43048101F099
:100D1000E7F8304670BD00BFAFF30080AFF300804E
:100D200010B40346002202240470A0F84C2083F87B
:100D30004E2080F84F2002814281C26002614261F0
:100D4000826183F8342010BC00F0B2BFAFF30080A2
:100D5000F8B50446002380F8343000F1440201F075
:100D60006FF86068816841B32046884728B3E56B17
:100D700094F8443094F84B1094F84A2042EA012049
:100D8000A8423CBF0546E06313F0800F2B467DD19F
:100D9000002D68D1052184F83410204629462A46C2
:100DA000FFF77EFF202383F3118820462946FFF7B3
:100DB0009FFF2B4683F31188F8BD94F8443013F05D
:100DC000600711D00021204601F0AAF8204600213A
:100DD00001F09EF863681A6812B120460521904719
:100DE000062084F83400F8BD94F8456003F07F02D3
:100DF00042EA0626B6F5407F00F0F98016DDB6F52A
:100E0000C06F00F0898068DDB6F5106F00F0B48027
:100E100040F60242964278D0B6F5006FD2D1012555
:100E200004F14F00A063E5632764A3E7022E00F0FE
:100E3000B58065DDB6F5807F00F08780B6F5817FEF
:100E4000C0D194F846100029BCD194F8485015F050
:100E50000F0150D02A06204600F1FA8001F068F810
:100E600094F8443047E0042284F8342020460021DE
:100E7000A26BFFF705FF202383F311880021204692
:100E8000FFF71EFF002383F31188F8BD95B1012100
:100E900084F8341020460021A26BFFF701FF2023C5
:100EA00083F3118800212046FFF722FF002383F3FC
:100EB0001188F8BD032084F83400294620462A46CC
:100EC000FFF7DEFE202383F3118820462946FFF733
:100ED000F7FE2B4683F31188F8BD40F202308642BC
:100EE00073D0B6F5A06F7FF46DAFB4F84410B1F5D0
:100EF000A06F00F09B800025A563E563256439E7BA
:100F0000002E32D0012E7FF45DAF5649022500221B
:100F1000A163E56322642DE7606894F8496094F862
:100F20004830456894F8471094F84620204643EA34
:100F30000623A84700283FF445AF4168056894F8A8
:100F40004430A163E563276414E794F84620012A3E
:100F50007FF438AFB4F84C00A76320F00201A4F886
:100F60004C10E76327643D4604E7022504F14C007A
:100F7000A063E5632664FDE694F8465084F84F507C
:100F8000002D44D10321217062681568002DB2D074
:100F900020460221A84794F84430ACE794F8483042
:100FA00013F0800F204603F00F0133D100F028FF2B
:100FB000012833D002287FF405AF2B4DE063A563F1
:100FC000276494F844300546D4E694F84610002986
:100FD0007FF4F8AE94F8485015F00F018BD02B0633
:100FE00020463AD400F094FF94F8443083E794F814
:100FF0004620012A7FF4E6AEB4F84C50A76345F0D2
:101000000200A4F84C00E76327643D46B2E60420E2
:101010002070B9E700F004FF0128CBD1134AE66342
:10102000A263276494F844303546A3E694F846302A
:10103000204684F84E3000F0D3FE65682A6812B16D
:10104000204601219047032094F84430207052E755
:1010500000F076FF94F844304DE700F061FF94F81B
:10106000443048E73028000840280008502800088D
:1010700038B590F83430022B044624D0052B36D0F6
:10108000012B10D0002100F04BFF2046002100F082
:101090003FFF6068026812B1204605219047062193
:1010A00084F8341038BD90F84B1090F84A30C26B79
:1010B00043EA0121914206D9C5682B8AB2FBF3F1BC
:1010C00003FB1125D5B1002103200B4684F8340021
:1010D0000A462046FFF7D4FD202383F31188002120
:1010E0002046FFF7EDFD002383F3118838BD026C25
:1010F00002B19047002384F8343038BD2B4629468E
:101100002A46FFF7CDFD202383F311882046294688
:10111000FFF7EEFD2B4683F31188022084F834009C
:1011200038BD00BFAFF30080AFF30080AFF30080A5
:1011300090F83430032B10B5044626D0042B11D080
:101140000021204600F0ECFE2046002100F0E0FEE9
:1011500063681A6812B1204605219047062184F879
:10116000341010BD002105220B4680F834200A46B9
:10117000FFF796FD202383F3118800212046FFF717
:10118000B7FD002383F3118810BDC1688B699A688D
:10119000002AD5D1016C01B18847002084F83400C1
:1011A00010BD00BFAFF30080AFF30080AFF300804D
:1011B0004FF4C043C4F2020307481968026810B52F
:1011C0003D2401F03D019C600AB140689047BDE8B4
:1011D0001040FFF775B900BFE8090020AFF30080A9
:1011E0004FF4C043C4F2020308481968826810B57E
:1011F0008C0904F03D014FF474649C600AB1C0682E
:101200009047BDE81040FFF75BB900BFE809002038
:101210004FF4C043C4F2020308481968026910B5CC
:101220000C0C04F03D014FF474149C600AB1406949
:101230009047BDE81040FFF743B900BFE809002020
:101240004FF4C043C4F2020308481968826910B51C
:101250008C0D04F03D014FF074649C600AB1C069CC
:101260009047BDE81040FFF72BB900BFE809002008
:101270004FF4C043C4F2020307485968026A10B52C
:101280003D2401F03D01DC600AB1406A9047BDE8B1
:101290001040FFF715B900BFE8090020AFF3008048
:1012A0004FF4C043C4F2020308485968826A10B57B
:1012B0008C0904F03D014FF47464DC600AB1C06A2B
:1012C0009047BDE81040FFF7FBB800BFE8090020D9
:1012D0004FF4C043C4F2020308485968026B10B5CA
:1012E0000C0C04F03D014FF47414DC600AB1406B47
:1012F0009047BDE81040FFF7E3B800BFE8090020C1
:101300004FF4C043C4F2020308485968826B10B519
:101310008C0D04F03D014FF07464DC600AB1C06BC9
:101320009047BDE81040FFF7CBB800BFE8090020A8
:101330004FF4C843C4F2020307481968026C10B5A1
:101340003D2401F03D019C600AB1406C9047BDE82E
:101350001040FFF7B5B800BFE8090020AFF30080E8
:101360004FF4C843C4F2020308481968826C10B5F0
:101370008C0904F03D014FF474649C600AB1C06CA8
:101380009047BDE81040FFF79BB800BFE809002078
:101390004FF4C843C4F2020308481968026D10B53F
:1013A0000C0C04F03D014FF474149C600AB1406DC4
:1013B0009047BDE81040FFF783B800BFE809002060
:1013C0004FF4C843C4F2020308481968826D10B58F
:1013D0008C0D04F03D014FF074649C600AB1C06D47
:1013E0009047BDE81040FFF76BB800BFE809002048
:1013F0004FF4C843C4F2020307485968026E10B59F
:101400003D2401F03D01DC600AB1406E9047BDE82B
:101410001040FFF755B800BFE8090020AFF3008087
:101420004FF4C843C4F2020308485968826E10B5ED
:101430008C0904F03D014FF47464DC600AB1C06EA5
:101440009047BDE81040FFF73BB800BFE809002017
:101450004FF4C843C4F2020308485968026F10B53C
:101460000C0C04F03D014FF47414DC600AB1406FC1
:101470009047BDE81040FFF723B800BFE8090020FF
:101480004FF4C843C4F2020308485968826F10B58C
:101490008C0D04F03D014FF07464DC600AB1C06F44
:1014A0009047BDE81040FFF70BB800BFE8090020E7
:1014B0002DE9F00F40F668258AB0C2F2000546F229
:1014C00040400295783046F21045C4F20205A0F57E
:1014D00080600495C4F2020046F240450390C4F2D5
:1014E000020546F228400695C4F2020046F2704515
:1014F0000590C4F2020546F258400195C4F202007C
:1015000046F2B8450790C4F2020546F288400995B4
:10151000C4F20200029D089046F2100B002040F633
:10152000E81346F2280A46F2400946F2580846F205
:10153000700C46F2880746F2A006C2F2000328604B
:10154000C4F2020B039DCBF80000C4F2020AC4F2FD
:101550000209C4F20208C4F2020CC4F20207C4F287
:1015600002061860CAF800009860C9F80000186107
:10157000C8F800009861CCF80000186238609862E2
:10158000306018632860049D98632860059D186486
:101590002860069D98642860079D186546F21044EF
:1015A00028606034019D986530342860C4F20204DC
:1015B000089D18664FF4C0414FF4C8422860C4F239
:1015C00002019866C4F202022060099C18674FF07D
:1015D000FF35206098678D60CD609560D5600AB05A
:1015E000BDE8F00F704700BFAFF30080AFF300809D
:1015F0004FF46053C4F2020370B400224FF0FF3482
:1016000019691C611A6159695C615A611E6A4EF25E
:101610001001CEF2000166F0805649F23F051E62CD
:10162000C0F202051A624EF6F0505E6A5C62CEF2BB
:1016300000005A624D608A6007220A60C1684FF458
:101640008052CEF2000241F08071C160106840F01B
:1016500001011160186C4FF4E042C4F2000240F046
:1016600080511964136843F480701060516821F44C
:101670000073536070BCFFF71BBF00BFAFF3008067
:101680004FF46052C4F202024FF4E043C4F200038C
:101690004FF0805111644FF4804218461A6043683D
:1016A0005B04FCD54FF46050C4F2020001460268AE
:1016B00042F00103036008684FF460538007C4F2EE
:1016C0000203F8D5196841F480321A60184601689F
:1016D0004FF460538A03C4F20203F8D55A6F42F004
:1016E0000100586719464A6F4FF460539007C4F2DF
:1016F0000203F8D545F20840C0F2407058601968FE
:1017000041F080721A60184601684FF460538A01F4
:10171000C4F20203F8D598684FF414424FF47051A4
:10172000C3F60802C4F20201104340F20572986049
:101730000A60996841F002009860996801F00C0015
:101740004FF460520828C4F20202F6D1536C43F4FD
:1017500080415164506E40F480435366704700BF2F
:1017600038B51C4D2B691A8A9C89A4B21440E143F8
:1017700004F0020089B282B21982002A24D104F056
:10178000040082B2DAB904F0080082B292B904F01F
:10179000100082B24AB9E30703D56A680D4893681E
:1017A0009847BDE83840FEF78BBE6B680948996AD8
:1017B0008847F0E76B680748196A8847E7E76B686E
:1017C000044899698847DEE76B68284619698847A5
:1017D000D5E700BF6C0A0020AFF30080AFF30080B4
:1017E00010B540F66C24C2F200042046FFF710FA50
:1017F0004FF40063C4F20003236110BDAFF3008017
:101800004FF46053C4F202031A6B6FEA52216FEA7D
:1018100041221A63196D6FEA51226FEA422119655C
:1018200000234168C4F202034FF48062596081686A
:101830009960C168D960016959614169196281691A
:10184000596201681960016AC4F202024FF4006330
:101850005160416A9160816AD160C16A5161016BD6
:101860001162416B5162C1691160C4F20203C26B23
:101870005A60016C9960426CDA60816C5961C26C8B
:101880001A62016D5962816B4FF440621960816D7B
:10189000C4F202024FF480535160C16D9160016E39
:1018A000D160416E5161816E1162C16E5162416DB4
:1018B0001160C4F20203426F5A60816F9960C26F77
:1018C000DA60D0F880105961D0F884201A62D0F81C
:1018D00088105962016F4FF4A0521960D0F890102F
:1018E000C4F202024FF4C0535160D0F894109160DA
:1018F000D0F89810D160D0F89C105161D0F8A010A9
:101900001162D0F8A4105162D0F88C101160D0F898
:10191000AC10C4F202034FF4E0525960D0F8B0109A
:101920009960D0F8B410D960D0F8B8105961D0F8E7
:10193000BC101962D0F8C0105962D0F8A810C4F2D7
:1019400002021960D0F8C8305360D0F8CC10916012
:10195000D0F8D030D360D0F8D4105161D0F8D8305E
:101960001362D0F8DC105162D0F8C4104FF4005369
:101970001160D0F8E420C4F202035A60D0F8E810F5
:101980009960D0F8EC20DA60D0F8F0105961D0F806
:10199000F4201A62D0F8F8105962D0F8E00018600C
:1019A000704700BFAFF30080AFF30080AFF300805B
:1019B0002DE9F00F002302F00307C2F38006C2F303
:1019C000C105C2F341144FF00F09C2F3C3124FF027
:1019D000010A38E0D0F820B02BEA0C0C4CEA0808D9
:1019E000C0F82080D0F804B00AFA03FC2BEA0C08F7
:1019F00048EA060BC0F804B04FEA430C4FF0030B63
:101A0000D0F808800BFA0CFC6FEA0C0C0CEA080802
:101A100048EA0508C0F80880D0F80C800CEA0808ED
:101A200048EA0408C0F80C80D0F800800CEA080CE2
:101A30004CEA070CC0F800C049081AD07600AD0087
:101A4000A400BF00013303F0070C4FEA8C0C11F027
:101A5000010F02FA0CF809FA0CFCEDD0072BB9D9EA
:101A6000D0F824B02BEA0C0C4CEA0808C0F824800B
:101A7000B8E7BDE8F00F7047AFF30080AFF3008028
:101A8000F8B5046D04EB41134FF0FF32D3F8086B47
:101A9000C3F8082B330705460F4603D5D4F814388E
:101AA0001A0715D4F30703D5D4F81408C00700D4D7
:101AB000F8BD05EB87036989D868012202FA07F2AD
:101AC00021EA02036B81C268394628469047F8BD77
:101AD00000EB8102D3685A689047E3E7AFF30080D8
:101AE000026D890141F02003136110698106FCD465
:101AF0000C20FFF765B800BFAFF30080AFF30080A4
:101B0000F8B5046D04EB41134FF0FF32D3F80869C8
:101B1000C3F80829F30705460F4603D5D4F8103853
:101B2000DA071FD4330606D50121D4F8340801FAA8
:101B300007F7074200D1F8BD202383F31188EB6D2E
:101B4000D4F83428686E3B4322EA0707EB65C4F8F3
:101B5000347818B1FEF73CFE00206866002383F35A
:101B60001188F8BD00EB8102B0F808E0D3680122CB
:101B700002FA01F22EEA020202819B689847D1E73D
:101B800070B53E4E356D6B69AC691C40E1046C610B
:101B90002BD4A20448BFD5F80838230704D57068B1
:101BA000C16809B135488847E00629D46103D5F8F2
:101BB000185807D5EA0749D4AB074DD4680751D464
:101BC000290755D4220307D5EB0332D4A80336D412
:101BD000690327D42A0303D4BDE87040FEF770BC24
:101BE00026480321FFF74CFFF6E73046FFF798F849
:101BF00073681B68002BCCD0304600219847C8E79B
:101C0000202383F31188AA69706E22F01003AB6160
:101C100020B1FEF7DDFD194900204866002383F35B
:101C20001188C3E702211548FFF72AFF2A03D3D5FD
:101C3000D6E712480021FFF723FFA803C8D50121EA
:101C40000E48FFF71DFF6903C4D5EBE700210B48E1
:101C5000FFF756FFAB07B1D508480121FFF750FF4A
:101C60006807ADD502210548FFF74AFF2907A9D526
:101C700002480321FFF744FFA4E700BF800A0020C9
:101C800010B540F68024C2F200042046FEF7E8FFBB
:101C900042F6201100234FF0A040C0F60001236659
:101CA00063662065616510BDAFF30080AFF300800F
:101CB0002DE9F84F80460021046DFFF711FFD8F899
:101CC00054B0DBF808A04FF00061FF22C4F80019FF
:101CD0000AF00106C4F8001B0123C4F80829C4F85F
:101CE000082BBAF1000F33D066B102235345C4F874
:101CF000201904F51267C4F8201BC4F82829C4F879
:101D0000282B25D85F1C03F1480903F1580003F183
:101D1000490C03F1590E04EB431604EB471540013F
:101D20004FEA49194FEA4C1C4FEA4E1E0233534505
:101D300044F809102150C6F80829C6F8082B44F8C1
:101D40000C1044F80E10C5F80829C5F8082BD9D98D
:101D5000DBF80030D8F850204FF0FF314FF001167B
:101D60001025C4F81818C4F81C68C8F85830636205
:101D70001561106910F01005FBD10C20FEF720FF53
:101D8000D4F80038D8F8581023F4FE62C4F80028BC
:101D9000A66946F44020092240F01006A66148F2E8
:101DA0004003C4F81028C4F814280B4AC1F20003F9
:101DB00001F1100041F48011C8F80C20C4F8105B48
:101DC000C4F8003BC4F81059C4F80039C8F85800EA
:101DD000A162BDE8F88F00BF30290008AFF3008092
:101DE000036D90F84E10D3F8002822F4FE6040EA0C
:101DF0000111C3F800187047AFF30080AFF3008003
:101E00005831036D49015A5812F4004004D012F4BD
:101E1000001F0CBF02200120704700BFAFF30080FD
:101E20004831036D49015A5812F4004004D012F4AD
:101E3000001F0CBF02200120704700BFAFF30080DD
:101E400000EB8101CB68186A016843681160536038
:101E5000704700BFAFF30080AFF30080AFF30080A6
:101E600000EB810310B4DC68006DA269638A5468DA
:101E7000621ED41800EB411143F0C042B4FBF3F3EF
:101E800042EAC340C1F8100B10BC7047AFF30080AA
:101E900000EB810310B4DA6853695B686BB1128A96
:101EA000006D5C1EA418B4FBF2F200EB411143EA92
:101EB000C243C1F8103910BC7047006D00EB4112ED
:101EC0004FF40021C2F81019F5E700BFAFF300800E
:101ED0005831036D49015A5842F08060585070479C
:101EE00001F14802036D5201985840F004409850A7
:101EF0000120D3F8342800FA01F11143C3F8341853
:101F0000704700BFAFF30080AFF30080AFF30080F5
:101F10005831036D49015A5842F400105850704727
:101F20004831036D49015A5842F400105850704727
:101F30005831036D49015A5822F400105850704727
:101F40004831036D49015A5822F400105850704727
:101F500038B540F6B84340F6BC44C2F20004C2F2C1
:101F600000034FF6FF7220461A80FEF769FE09490A
:101F70004FF4605016224623C4F2000001F10C0514
:101F8000C0F20102C0F20103E06121626562A26257
:101F9000E36238BD84280008AFF30080AFF300800F
:101FA000FFF76EBBAFF30080AFF30080AFF30080AC
:101FB000704700BFAFF30080AFF30080AFF3008045
:101FC0002DE9F8434A4BB3F90070B3F9024004EE2F
:101FD000907A06EE104A2DED0A8BF0EE40BAB0EE84
:101FE00060AA71EEE0AA31EE40CAF8EE64CAB8EE1B
:101FF00046BA002F78D09FED3F9A0026B1EE008AB6
:1020000040F20128002C6CD000EE106AF8EE408AF5
:102010004FF000096CEE280A35B280EEAC1A7BEE68
:10202000818A78EE899A07EE909AF8EE675A9FEDCA
:10203000311A65EEAA1A012381EE8B2A1A46B0EEF8
:10204000694A72EE0A2AF0EE410A32EE892A2BE042
:1020500024EE043A62EE023A8BB233EE236A34EE97
:10206000044A33EE635AB4EEC86A581CF0EE624A72
:10207000F1EE10FA44EE024A35EE280A1A461BD554
:1020800070EE007AF0EE621A60EE000A24EEA41AF6
:1020900047EEA41A83B270EEC15A4345B0EE612AEE
:1020A00035EEA84A1A4607D070EE816A591CF4EE44
:1020B000C86AF1EE10FACBD4D10101F4F060C3F399
:1020C000C40340EA030141EAC23348F29F720FFAA7
:1020D00089F128461A4009F1010900F0E1FA4C455E
:1020E000A1D80136B7428DD8BDEC0A8BBDE8F88384
:1020F000F00C002000000000AFF30080AFF3008080
:10210000074B10B51C7804B110BD01221A7000F005
:1021100017F800F055F82046BDE8104000F020BB4D
:10212000EC0C0020AFF30080AFF30080AFF3008031
:10213000FFF7E6BFAFF30080AFF30080AFF300809E
:1021400008B5054B986900B108BDFEF721FDBDE853
:102150000840FEF74DBA00BFA0090020AFF3008091
:10216000034608B9FEF784BC421C0CD04FF47A72C7
:1021700002FB03F344F6D350C1F26200591EA0FBE8
:1021800001139A09501CFEF763BC00BFAFF3008037
:10219000034600B97047411C0CD04FF47A7202FB21
:1021A00003F34DF68360C4F21B30591EA0FB0113EC
:1021B0009A0C501CFEF74CBCAFF30080AFF30080CC
:1021C00000F0E6B8AFF30080AFF30080AFF300801B
:1021D00070B46D4C2479032C00F2B780DFE804F072
:1021E0008E5C2A028518461E013DC9B200234FF0BD
:1021F000C044C6F20203B21841EA0526B5B244262D
:102200002680C0051D80D20545252580C00DD20D34
:102210004625188025801A8000234FF0C042C6F260
:10222000020389B24E24148019804F211180188036
:1022300070BC704786B2C6F1F00489B2A21AC1F52B
:10224000A075C0F1EF00D2B20024C6F20204EB1A6E
:1022500042EA00224FF0C045C1F59F7190B20131B2
:10226000DB0544222A80DB0D2080C905452028801B
:10227000C90D238046232B8021804FF0C042C6F138
:10228000EF000023C6F20203C6B24E2010804F209A
:102290001E8010801980CBE78EB2C6F1F00480B2A8
:1022A000E31AC0F5A075C1F1EF01DBB20024C6F25C
:1022B0000204AA1A43EA01234FF0C045C0F59F70FB
:1022C00099B20130D20544232B80D20D2180C00564
:1022D00045212980C00D228046222A8020804FF08F
:1022E000C042C6F1EF010023C6F20203CEB24E2176
:1022F00011804F211E801180188099E786184D1E8D
:10230000721EC0B20024C6F20204EB1840EA022694
:102310004FF0C045B2B244262E80C9052280DB05AD
:1023200045222A80C90DDB0D462221802A80238088
:1023300000234FF0C042C6F2020380B24E24148044
:1023400018804F201080198072E7032C3FF670AF81
:10235000DFE804F0060A1202C005C9B2C00D5BE74F
:10236000CC05C0B2E10DE3E785B2C5F59F76731CDD
:10237000DA058EB2D00DB2E78DB2C5F59F76731C2B
:10238000DA0586B2D10D78E7F00C0020AFF30080BB
:102390002DE9F04F42F2E0734FF46054C4F20204AE
:1023A000C0F6000393E80700A66B89B00C3302ADBA
:1023B00046F00107A76385E8070093E8070005AC2E
:1023C00084E80700284640F20261FEF711FC20462F
:1023D00040F20261FEF70CFC40F60A274FF0204362
:1023E000C0F20A074FF440665F604021C4F2020663
:1023F00041F2110788461F601922304600244FF031
:10240000C045C6F20204FFF7D3FA1420A6F81A80DA
:102410000027FFF7A5FE4FF001091420A6F8188049
:10242000FFF79EFE2F800520A4F80090FFF7B0FE76
:102430004FF0030A4AF6A401A5F800A00520218068
:10244000FFF7A6FE0C20288005202780FFF7A0FEBE
:1024500040F60C060D222A8005202680FFF798FE04
:102460000E234FF42C512B8005202180FFF790FE86
:10247000B0221E20288042F63F3622800520FFF73A
:1024800087FEA5F8009005202680FFF781FE4FF417
:10249000C06102232B8005202180FFF779FE1020E8
:1024A0002880052027800526FFF772FE112246F2BC
:1024B00070032A8030462380FFF76AFE2E80304664
:1024C0002780FFF765FE0621298030462780FFF729
:1024D0005FFE4EF61C721620288022803046FFF7E1
:1024E00057FE17232B803046A4F800A0FFF750FEBC
:1024F000072101F59672298030462280FFF748FEB9
:102500000B20288030462780FFF742FE0F232B80C8
:1025100030462780FFF73CFE412129803046278046
:10252000FFF736FE42222A8030462780FFF730FE32
:102530004820288030462780FFF72AFE08F1FF0B4D
:1025400049232B803046A4F800B0FFF721FE4A2132
:10255000298030462780FFF71BFE4B222A80304619
:102560002780FFF715FE4FF46F4344202880238017
:102570003046FFF70DFE4521298030462780FFF7C2
:1025800007FE46222A803046A4F800B0FFF700FE7E
:1025900040F207733020288023803046FFF7F8FD93
:1025A0004FF40178312129803046A4F80080FFF7EC
:1025B000EFFD32222A803046A4F8008040F2025B10
:1025C0000192FFF7E5FD332028803046A4F800B0E3
:1025D000FFF7DEFD342340F207512B803046218087
:1025E000FFF7D6FD35222A803046A4F80080FFF799
:1025F000CFFD362028803046A4F80080FFF7C8FDC4
:1026000037232B803046A4F800B0FFF7C1FD08F156
:10261000FE083A2129803046A4F80080FFF7B8FD73
:102620003B222A803046A4F80080FFF7B1FD23202A
:10263000288030462780FFF7ABFD24232B803046CF
:102640002780FFF7A5FD25214FF400422980304661
:102650002280FFF79DFD4F20288030462780FFF71E
:1026600097FD4E232B8030462780FFF791FD40F6E3
:10267000F043C2F2000364249C7101991F71F020A1
:102680004FF4A072188098815A8083F805A0D97100
:102690001F815F81DA81484609B0BDE8F08F00BF35
:1026A0002B4B30B4B3F9084084420BDCB3F90A4039
:1026B0008C4207DCB3F90C40844203DDB3F90E40D1
:1026C0008C4201DC30BC70471B79032B16D8DFE845
:1026D00003F0382D021EC1F59F71002301314FF028
:1026E000C044C6F20203C0F1EF00CD05C0B2E90D4F
:1026F0004E25258018804F20208019800023C6F2A7
:1027000002034FF0C041222008801A80DAE700233C
:102710004FF0C044C6F20203C505C9B2E80D4E250C
:10272000258019804F2121801880E7E7C0F59F7030
:10273000002301304FF0C044C6F20203C1F1EF01A3
:10274000EAE700234FF0C044C6F20203CDE700BF22
:10275000F00C0020AFF30080AFF30080AFF30080F7
:1027600038B51D4D04460020B5F90230B5F90020FA
:102770000146FFF72DFD2B79032B0FD8DFE803F07F
:10278000021C1C024FF0C0410023C6F202034E207F
:10279000088000224F201A8008801A804FF0C04322
:1027A0000022222119804FF49630C6F2020202382C
:1027B00014801480FBD138BD4FF0C0420020C6F217
:1027C00002004E211180EF234F210380118040F23F
:1027D0003F120280E2E700BFF00C0020AFF3008060
:1027E000000C0240B3CF00000000000000100240C7
:1027F00080FF00000000000000000000000000005A
:1028000069646C650000000000000000000000002A
:102810006D61696E0016C011040448080C1014188C
:10282000001C1D1E1F200000000000000000000012
:102830000000000000000000000000000000000098
:102840000000000000000000000000000000000088
:102850000100000000000000000000000000000077
:10286000106002400860024000000B002860024037
:102870000860024006010C0040600240086002400F
:1028800010020D00586002400860024016030E005E
:10289000706002400C60024000040F00886002403B
:1028A0000C60024006051000A06002400C6002406F
:1028B00010061100B86002400C60024016072F009D
:1028C0001064024008640240000838002864024096
:1028D000086402400609390040640240086402406E
:1028E000100A3A005864024008640240160B3B008C
:1028F000706402400C640240000C3C00886402409A
:102900000C640240060D4400A06402400C640240C6
:10291000100E4500B86402400C640240160F4600D9
:1029200080000000800100000300000000000000A3
:1029300000000000510D000871100008311100085E
:1029400040004000A00C0020A00C0020010000006E
:10295000B00C00200000000000000000000000009B
:1029600000AAA02A00000000FFABFFFF54000140B6
:10297000FFFF00000000565500AA0A008020080052
:1029800040020000FFFFFFFF15455155FFFF00000B
:102990000000000440000000018020020000000050
:1029A000FFFFFFFF54154554FFFF000000000060CB
:1029B000000606000001005500000000FFFFFFFFB9
:1029C00055505500FF0F00000000000000000000FF
:1029D0004000000000000000FFFFFFFF00000000BB
:1029E000FFFF0000000000000000000000000000E9
:1029F00000000000FFFFFFFF00000000FFFF0000DD
:102A000000000000000000000000000000000000C6
:102A1000FFFFFFFF00000000FFFF000000000000BC
:102A2000000000000000000000000000FFFFFFFFAA
:102A300000000000FFFF0000000000000000000098
:102A40000000000000000000FFFFFFFF000000008A
:0C2A5000FFFF000000000000000000007C
:0400000508000231BC
:00000001FF
