:020000040800F2
:1000000000040020210C0008210E0008210E000829
:10001000210E0008210E0008210E0008210E000804
:10002000210E0008210E0008210E0008510E0008C4
:10003000210E0008210E0008210E0008510F0008B3
:10004000210E0008210E0008210E0008210E0008D4
:10005000210E0008210E0008210E0008210E0008C4
:10006000210E0008210E0008210E00083120000892
:100070006120000891200008C1200008F12000083C
:100080002121000851210008210E0008210E00083E
:10009000210E0008210E0008210E0008210E000884
:1000A000210E0008210E0008210E0008210E000874
:1000B000210E0008210E000881260008210E0008EC
:1000C000210E0008210E0008210E0008210E000854
:1000D000210E0008210E0008210E0008210E000844
:1000E000210E0008210E0008210E0008210E000834
:1000F000210E0008210E0008210E000881210008B1
:10010000210E0008210E0008210E0008210E000813
:10011000210E0008210E0008210E0008210E000803
:10012000B1210008E1210008112200084122000845
:1001300071220008210E0008210E0008210E00087F
:10014000210E0008210E0008210E0008A12A000837
:10015000A1220008D122000801230008210E000876
:10016000210E0008210E0008210E0008210E0008B3
:10017000210E0008210E0008210E0008210E0008A3
:08018000210E0008210E000809
:100190002DE9F04F8FB002F06BFFC948C94ECA4F2E
:1001A000DFF88493DFF88483C84D03F009FE04F080
:1001B000EFF90021C64804F0D3FB4FF6FF7003F0BF
:1001C00067F8002004F0FCFBB6F90030C14A42F2A7
:1001D0009340C9F249200B9280FB0312D118DB1720
:1001E000C3EBA1030024ADF82030BB4B0C944FF0BF
:1001F000010E4FF01E0C224607A920468DF824E080
:10020000ADF822C0CDF80CC00D94ADF81E40ADF88D
:100210001C400A9305F09CFCBDF8203040F6A85223
:10022000C2F20002ADF81C30AC4B106007A92246A8
:1002300020460A9305F08CFC40F63C51C2F20001C6
:1002400022460860BDF820004300ADF81C30A44BE6
:1002500007A920460A9305F07BFCBDF8202040F654
:100260000C5A02EB4203C2F2000AADF81C309D4B5F
:10027000CAF80000224607A920460A9305F068FC48
:1002800040F62051C2F2000122460860BDF820006D
:100290008300ADF81C30944B07A920460A9305F063
:1002A00057FCBDF82010914A01EB8103ADF81C30DA
:1002B0008F4B106007A9224620460A9305F048FCA0
:1002C00040F64852BDF82010C2F200024FF0230A57
:1002D000106001EB41004300ADF81C30854B224615
:1002E00007A920460A9305F033FC8349DDF80CB0DA
:1002F000824A0860322307A920468DF824400B94D7
:10030000ADF82030ADF822B0ADF81EA0ADF81C401D
:100310000A92049304F0F4FF40F6505CC2F2000C21
:10032000774ACCF80000332307A92046ADF81C30EB
:100330000A9204F0E5FF40F65451C2F20001714AFE
:100340000860662307A92046ADF81C300A9204F025
:10035000D7FF40F65851C2F200016B4A086099235A
:1003600007A92046ADF81C300A9204F0C9FF40F6F8
:100370005C5EB6F90010B6F90230C2F2000E03EB73
:10038000D372CEF8000001EBD170C0F34F015310CF
:100390005E4A4FF0140BA1F1020C01F1010E2A3B51
:1003A00007A92046ADF820C0ADF81CE0ADF822B09A
:1003B000ADF81E300A9205F06BF940F62851B6F9F7
:1003C0000230C2F20001086003EBD3704210504BC0
:1003D000153A07A92046ADF81E200A9305F058F9F2
:1003E00040F62C5CC2F2000CB6F90210CCF800000A
:1003F00001EBD170C0F34F02A2F1020E531C454A2B
:10040000ADF822E007A92046ADF820B0ADF81E30C7
:10041000ADF81C400A9205F03BF940F63051C2F2AB
:1004200000013D4A0860152307A920460A92ADF84D
:100430001C3005F02DF940F63451C2F20001374B63
:1004400008604FF0500C07A92046ADF820C0CDF849
:100450000CC0ADF822B0ADF81C40ADF81EA00A9358
:1004600005F0D6F92E4A40F6405EC2F2000E0B921D
:100470002C4ACEF80000382307A920460A92ADF88E
:100480001E3005F0C5F940F64451C2F20001DFF814
:10049000A0E008604FF0640C4D2307A92046ADF89A
:1004A00020C0CDF828E00B94ADF81E30059305F080
:1004B000AFF94FF02802059BADF822203AE000BFCB
:1004C000D47E0008E4180020100D00204C0D002000
:1004D00000860008115C0008D87E0008DC7E000859
:1004E000E07E0008E47E0008E87E0008380D002069
:1004F000EC7E0008F07E0008240D0020F47E000849
:10050000F87E0008FC7E0008007F0008047F0008D9
:10051000087F00080C7F0008107F0008147F000887
:1005200031580008187F0008AC0D0020080D00208D
:100530001C7F0008CD4A386007A92046ADF820404E
:10054000ADF81E300A9205F04BFA049BADF822B0CC
:1005500040F60451C2F20001ADF82030C44B0860EF
:10056000012207A92046ADF81EA0ADF81C400A9351
:1005700005F0EEFABDF8203040F61852C2F2000243
:10058000ADF81C30BB4B106007A9012220460A932E
:1005900005F0DEFABDF81E30DDF80CB0ADF81C40F9
:1005A00040F61C5A1933C2F2000AADF81E30B24BA5
:1005B000CAF8000007A9022220460A93ADF820B02D
:1005C00005F0C6FABDF82030C9F80000ADF81C30BF
:1005D000AA4B07A9022220460A9305F0B9FA40F671
:1005E0001451C2F2000102220860BDF8200043004D
:1005F000ADF81C30A24B07A920460A9305F0A8FAD3
:1006000040F61452C2F20002C8F80000106805F06B
:10061000AFFAB6F90010B6F9020001EBD17200EBA7
:10062000D073C2F34F01C3F34F0001F1FF3C00F15F
:10063000FF3E431C4A1C204607A9ADF820C0ADF878
:1006400022E0ADF81E30ADF81C2004F071FB4FF62F
:10065000E072028201214482286040F6A85403F02F
:10066000A7FF286804F014F8C2F20004854803F0DC
:1006700087FC844804F09CF9206805F079FA4FF073
:10068000FF31804803F034FD0288A2F50071044672
:10069000032900F2B181DFE811F0A401B401FF00E9
:1006A0000400B0F808A04068D5F800B004F030F9B4
:1006B000524603467449584604F0D2FBB4F808A0E9
:1006C000BAF1000F40F0A98140F65053C2F2000386
:1006D00051461868D4F804B003F06AFF40F6545E3F
:1006E000C2F2000E5146DEF8000003F061FF40F652
:1006F0005850C2F200005146006803F059FF40F61E
:100700005C51C2F200010868514603F051FF40F607
:100710002852C2F200025146106803F049FF40F629
:100720002C53C2F200035146186803F041FF40F613
:100730003050C2F200005146006803F039FF40F625
:100740003451C2F200010868514603F031FF40F60F
:100750004052C2F200025146106803F029FF40F6F1
:10076000445CC2F2000C5146DCF8000003F020FFAC
:100770003868514603F01CFF40F60453C2F20003F0
:100780005146186803F014FF40F61850C2F20000FA
:100790005146006803F00CFF40F61C51C2F2000104
:1007A0000868514603F004FF40F6145EC2F2000EE2
:1007B0005146DEF8000003F0FBFED9F80000514678
:1007C00003F0F6FED8F80000514603F0F1FE40F6C3
:1007D000A852C2F2000213689B4500F0808140F6E7
:1007E0003C50C2F2000001688B4500F0928140F657
:1007F0000C52C2F2000213689B4500F0A48140F63F
:100800004850C2F20000DFF88CA003689B4500F05E
:10081000B08140F6205CC2F2000CDCF800108B4581
:1008200000F0418164689C427FF429AF2868174931
:1008300004F016FB4FF47A7002F04AFC40F60452C2
:10084000C2F2000212491068002204F029F84FF4A5
:100850007A7002F03DFC40F60453C2F200030349F3
:100860001868002204F01CF809E700BF287F000880
:10087000307F0008347F0008387F0008407F000880
:10088000487F0008600D0020847F0008987F0008E2
:10089000AC7F0008480D00204068D5F800A004F0A7
:1008A00037F894F808C0DFF850E3B64BB649024673
:1008B000BCF1000F08BF7346504604F0D1FA6068DF
:1008C000396888427FF4DBAEB04B94F808B0B04A88
:1008D0002868B049BBF1000F18BF1A4604F0C0FAEF
:1008E000247A40F65052C2F2000284F001041068EB
:1008F000214603F085FE40F65450C2F20000214626
:10090000006803F07DFE40F65851C2F2000140F647
:100910005C5AC2F2000A0868214603F071FEDAF858
:100920000000214603F06CFE40F62853C2F200039B
:100930002146186803F064FE40F62C52C2F2000211
:100940002146106803F05CFE40F63050C2F2000011
:100950002146006803F054FE40F6345CC2F2000CFD
:100960002146DCF8000003F04BFE40F64051C2F295
:1009700000010868214603F043FE40F64453C2F2EA
:1009800000032146186803F03BFE40F60452C2F211
:1009900000022146106803F033FE40F6185EC2F2F2
:1009A000000E2146DEF8000003F02AFE40F61C503F
:1009B000C2F200002146006803F022FE40F6145106
:1009C000C2F200010868214603F01AFED9F80000BF
:1009D000214603F015FED8F80000214603F010FE72
:1009E0004DE64068D5F800A003F092FF6A49024640
:1009F000504604F035FA42E62868684904F030FAB7
:100A00003DE64068D5F800B003F082FF6449A36872
:100A10000246584604F024FA31E6BAF1020F7FF498
:100A20002EAE40F64C50C2F200005E49006804F061
:100A300017FA6368D8F80020934232D0D9F8000042
:100A400059495A4C834208BF0C4600200146B6F96A
:100A50000020B6F9023002F06BFCB6F90230B4F8AF
:100A600000C0B6F90020CDF800C0002003EBD3731E
:100A700001465B1002F03CFCB6F90220B6F90030EA
:100A8000208802EBD271491003EBD37200900B4621
:100A90000020521002F02CFC2046012103F060FFE0
:100AA000EDE5434CD1E7434A0121106803F080FD96
:100AB000414B0121186803F07BFD4048012100688B
:100AC00003F076FD3E490868012103F071FD3D4ABF
:100AD0000121106803F06CFDDAF80030A2E63A4913
:100AE0000868012103F064FD384A0121106803F011
:100AF0005FFD374B0121186803F05AFD354801218D
:100B0000006803F055FD40F64851C2F200010B6841
:100B100088E631480121006803F04AFD2F49086842
:100B2000012103F045FD2E4A0121106803F040FD2C
:100B30002C4B0121186803F03BFD40F64850C2F2EF
:100B4000000003686EE628490868012103F030FDC3
:100B5000264A0121106803F02BFD40F6485B244B28
:100B6000C2F2000B1868012103F022FDDBF800300F
:100B700058E620480121006803F01AFDDAF8003039
:100B800050E600BFB07E00086C7F0008C47E0008FD
:100B9000CC7E00087C7F0008507F0008D47F0008CE
:100BA0005C7F0008BC7F0008E08500080086000824
:100BB000E07F0008180D00201C0D0020140D0020FF
:100BC000AC0D0020080D0020500D0020540D002019
:100BD000580D00205C0D0020280D00202C0D002059
:100BE000300D0020340D0020400D0020440D002069
:100BF000100D0020040D0020B87E0008AFF3008027
:100C0000704700BFAFF30080AFF30080AFF3008008
:100C1000FEE700BFAFF30080AFF30080AFF30080CA
:100C200072B6704C84F309884EF63472CEF200022C
:100C30004EF68853CEF200034FF040411160186821
:100C400040F470051D600022E1EE102A4EF63C7360
:100C5000CEF2000306211A6081F31488BFF36F8F70
:100C60006148624DA84218D2EA1C051D531B23F0AF
:100C70000302034610184FF0553183421960C2F346
:100C800080020AD01AB185422B46296005D01D1D6D
:100C90005960083383426960F9D15548A04218D29F
:100CA0005449041D0A1B22F00305034628184FF07F
:100CB000553183421960C5F380020AD01AB18442CB
:100CC0002346216005D01D1D5960083383426960A9
:100CD000F9D102F0BDF94849484881421BD2C61CEF
:100CE0000C1D321B464822F00302161D0568042322
:100CF000B3420D60C2F380020DD022B145680823D3
:100D0000B342256007D01A1D1D5884585D50083322
:100D1000B3428C50F7D13B483B49884217D2CB1C99
:100D2000041D1A1B22F003050346281800218342E4
:100D30001960C5F380020AD01AB1844223462160AB
:100D400005D01D1D5960083383426960F9D1FFF752
:100D500057FF2E4D2E498D421DD2CC1C2E1DA71B98
:100D6000B808471C01242A6800EA04089047BC42DE
:100D700011D0B8F1000F05D0022433689847BC4267
:100D8000354608D0696888470234A8682E1D804718
:100D90000835BC42F6D1FFF7FBF91E4D1E4A9542BD
:100DA0001DD2D41C2E1DA71BBB085F1C0124296863
:100DB00003EA04088847BC4211D0B8F1000F05D0FF
:100DC000022430688047BC42354608D06A689047A4
:100DD0000234AB682E1D98470835BC42F6D1FFF7A8
:100DE00017FF00BF000800200000002000040020C2
:100DF0000004002003080020000800201408002040
:100E00003088000818080020101900208801000808
:100E1000880100088801000888010008AFF30080FD
:100E2000FEE700BFAFF30080AFF30080AFF30080B8
:100E300072B6FEE7AFF30080AFF30080AFF300803F
:100E400000F0B6FA00DF00BFAFF30080AFF3008020
:100E5000EFF309824EF63073CEF20003D2F8CC10D5
:100E60005960986868309860683282F30988002376
:100E700083F31188704700BFAFF30080AFF30080A9
:100E800008B54FF46D43CEF200034FF44072C0F248
:100E9000FA520021996007201021DA6000F0A8F8CA
:100EA0000A204FF4007100F0A3F80B208021BDE868
:100EB000084000F09DB800BFAFF30080AFF30080A2
:100EC000202383F311884FF46D43CEF2000358685A
:100ED00010F4006324D0EFF30983A3F1680282F3D6
:100EE000098816494FF080708A6943F84C0CD07F0E
:100EF000096892688968B0B1914294BF00220122CA
:100F0000BAB10F4A43F8502CF1EE10FA4EF6307297
:100F1000CEF20002516841F00100596650607047FE
:100F200083F311887047914234BF00220122002AC6
:100F3000E7D1044843F8500CE8E700BFB8090020A7
:100F4000410E0008440E0008AFF30080AFF30080AC
:100F500008B5202383F3118800F0AAF8002383F357
:100F60001188BDE80840FFF7ABBF00BFAFF30080BA
:100F70002DE9F04F2DED108AC1F80CD0D0F80CD02F
:100F8000BDEC108ABDE8F08FAFF30080AFF30080B6
:100F9000002383F311882846A04700F0D9FA704750
:100FA000F0B44FF461438408CEF20003C03400F083
:100FB000030553F82470ED00FF26420906FA05F6F2
:100FC00027EA060601FA05F500F01F0002F16007A6
:100FD000012101FA00F02E4343F8246043F8270072
:100FE00043F82200F0BC7047AFF30080AFF30080FD
:100FF00082084FF46D43CEF20003063200F0030086
:1010000030B4C00053F82250FF2404FA00F425EA5B
:10101000040401FA00F10C4343F8224030BC70474D
:10102000024B034A98698261FEE700BFB8090020BD
:10103000507C0008AFF30080AFF30080AFF3008076
:1010400000B583B0FFF71CFF00F0DAF800F060F89D
:1010500000F0CEFB00F004FC40F618004021C2F284
:10106000000000F0B5F940F6B811C2F2000101220B
:1010700088610277002383F3118862B647F66040E7
:101080008969C0F600008861009340F6600041F273
:1010900021034FF4A471C0F60003C2F2000000F077
:1010A000F7F903B000BD00BFAFF30080AFF30080DD
:1010B00038B5134B9869C27F0AB1511EC177036AD4
:1010C000104C5A1C0262E0682268411CA242E16096
:1010D00014D09568013D956085B91368D1685C604E
:1010E0002360D560002383F311881069884720238B
:1010F00083F31188226890680028EED038BD00BFC5
:10110000B8090020A8090020AFF30080AFF30080E9
:1011100040F6A813C2F200034FF0FF3200205B60DC
:101120001B609A60D8607047AFF30080AFF3008017
:1011300070B40C4E03613468C260A568A94204D93A
:101140002468491BA5688D42FAD363680460B442E1
:10115000436018606060816002D0A068411AA1609D
:1011600070BC7047A8090020AFF30080AFF3008087
:101170000368074A934203D0996882688918996086
:1011800042681360036800215A60C160704700BF65
:10119000A8090020AFF30080AFF30080AFF3008018
:1011A000202383F31188037F0D2B11D8DFE803F090
:1011B00020101007100B101010101010100B416AA7
:1011C0008A68531C8B6090E80C001A6001684B60C1
:1011D0004FF0FF3242628168074B002202771B68A2
:1011E0009A688A42FBD2596803604160086058607F
:1011F000002383F311887047B8090020AFF3008003
:1012000040F6B813C2F2000300225B601B609A60D4
:101210005B611B61704700BFAFF30080AFF30080DC
:1012200000228168054B02771B689A688A42FBD2CC
:10123000596803604160086058607047B809002031
:1012400040F6B813C2F2000310B499691A6808771F
:1012500014201468C87701201077104663601C6062
:101260009A6110BCFFF784BEAFF30080AFF300803B
:1012700030B54B1C87B0054611D00B4C0B4AA36907
:1012800001A8FFF755FF2846FFF7DAFF049B13B1CB
:1012900001A8FFF76DFFA069406A07B030BDFFF7F6
:1012A000CFFF014CF7E700BFB8090020A1110008EB
:1012B000F0B4144F8568BE690446B06861620023CB
:1012C00085420CD82377394609688A689542FBD94C
:1012D00048682160606004604C60F0BC7047337700
:1012E000394609688A689042FBD948683160706065
:1012F00006604E600123204631462377BC61F0BC76
:10130000FFF736BEB8090020AFF30080AFF30080CE
:101310000E4B18689969026830B453601A608C6883
:1013200098610125142300220577CB770A770346BD
:1013300000E01B689A68A242FBD25A680B604A60C0
:101340001160596030BCFFF713BE00BFB809002020
:101350000D4B18689969026830B453608C681A6044
:1013600001259861002305770B77034600E01B6891
:101370009A68A242FBD85A680B604A6011605960B3
:1013800030BCFFF7F5BD00BFB8090020AFF3008007
:10139000044B1A68986991688368994200D870472D
:1013A000FFF7D6BFB8090020AFF30080AFF300808D
:1013B000034B9869C17F09B1FFF7CABFFFF7A8BF08
:1013C000B8090020AFF30080AFF30080AFF30080D6
:1013D000F0B440F6B814C2F200040022656901645A
:1013E000046100F12C06816000F1280745614FF08F
:1013F000020C60610121142480F81CC04277C4777C
:10140000C2638263026281778261286187620663B8
:10141000C662F0BC704700BFAFF30080AFF300803E
:101420002DE9F001643940F6B8154118C2F2000503
:1014300000266F69C1600B64059B4B6440F6917395
:10144000C0F600030B660221944600F1280800F163
:101450002C020177142301210561C0F808C04761FF
:10146000044668614677C377C0F840C0C6638663A8
:101470000662817786613861C0F828800263C262A3
:10148000BDE8F001704700BFAFF30080AFF300800C
:1014900010B51C4682B0202383F311882346049C98
:1014A0000094FFF7BDFF00210446FFF701FF002372
:1014B00083F31188204602B010BD00BFAFF3008057
:1014C00008B50146202383F311880620FFF7D0FEDC
:1014D000002383F3118808BDAFF30080AFF30080D1
:1014E00008B5202383F31188064B1A689869916820
:1014F0008368994201D3FFF70BFF002383F3118820
:1015000008BD00BFB8090020AFF30080AFF3008032
:1015100038B50E4B9C692546606255F8280FA842E5
:1015200006D00168A162FFF77BFEA06AA842F8D14D
:10153000607F830704D1636922691A6121694B6165
:101540000E20BDE83840FFF77BBE00BFB809002081
:10155000202383F31188FFF7DBBF00BFAFF30080C8
:10156000F0B583B00D4617461E4600F089F90446D3
:1015700090B1202383F31188089C334629463A46CC
:101580000094FFF74DFF0123437700210446FFF746
:101590008FFE002383F31188204603B0F0BD00BF07
:1015A0004060006081607047AFF30080AFF300805F
:1015B00082680346501E002810B5986001DB0020A9
:1015C00010BD074CA2695362596813605160032033
:1015D0005A600A60FFF734FEA369586A10BD00BF65
:1015E000B8090020AFF30080AFF30080AFF30080B4
:1015F00008B5202383F31188FFF7DAFF002383F374
:10160000118808BDAFF30080AFF30080AFF3008016
:1016100003468068421E002A10B40C469A6002DB22
:10162000002010BC704759B1074CA26953625C6836
:10163000032082E818005A60226010BCFFF718BE31
:1016400098604FF0FF30ECE7B8090020AFF300805E
:1016500008B5202383F31188FFF7DAFF002383F313
:10166000118808BDAFF30080AFF30080AFF30080B6
:1016700082680346501C0028986000DD70471A6895
:101680001168104619604B6000235362FFF7C8BD14
:101690000023406000608360704700BFAFF30080AC
:1016A000F8B52F4A836894690546002B51D0A1688C
:1016B0009868814206D91A7F9960042A31D0052A98
:1016C0001CD092B128460068854203D08368A16887
:1016D0008B42F8D24268206062604460042014604B
:1016E0006562BDE8F840FFF7ABBD93E80600116006
:1016F000196818464A60FFF793FDE3E758681F68CA
:101700005E6A07601F68324678601268964202D0AF
:1017100090688842F9D251681A6059600B60536032
:10172000D0E758681F685E6A07601F6832467860B5
:101730001268964212D090688842F9D251681A60B5
:1017400059600B605360B368A1689A688A42B2D34B
:10175000B8E7E36B8460C360E063F8BD3246EDE751
:10176000B8090020AFF30080AFF30080AFF3008032
:1017700008B5202383F31188FFF792FF002383F33A
:10178000118808BDAFF30080AFF30080AFF3008095
:10179000154A38B59069202383F31188C46B2568F6
:1017A000E368A542C3631CD0016C4BB11A689A422E
:1017B00003D09268914238BF1146DB68002BF5D107
:1017C0002B68EA6B8160236028465C600021A5607D
:1017D000E260EC63FFF76CFD002383F31188204681
:1017E00038BD0023A360F7E7B8090020AFF30080FD
:1017F00040F6D81240F6D4134CF200010648C2F26B
:101800000002C2F20003C2F2010120F0070021F041
:10181000070110601960704717190020AFF30080AE
:10182000202383F31188094B09491A680968073096
:1018300020F00700891A88429ABF10181860002209
:10184000002383F311881046704700BFD809002099
:10185000D4090020AFF30080AFF30080AFF3008025
:1018600040F6E013C2F2000341F621010022C0F667
:10187000000103F1100019609A60DA60FFF708BFF9
:10188000F8B5204E002818BF0646073106F11000B3
:1018900021F0070506F10804FFF76AFF00E01C4687
:1018A0002368FBB15A689542F9D805F108019142C5
:1018B00015D84FF6F870CFF6FF70401B03EB010E02
:1018C00082181868CEF8042058505D60C4F800E013
:1018D0001C4644F8086BFFF75BFF2046F8BD19680B
:1018E0002160F5E7FFF754FF32684AB105F10800BF
:1018F000904728B100F10804066045602046F8BD15
:101900000024EAE7E0090020AFF30080AFF3008095
:1019100070B50646A0F1080450F8080C00F108055F
:101920001030FFF725FF2B46AB421A6801D0A342C7
:1019300002D21AB1944201D31346F5E756F8041CBB
:1019400046F8082C1C6001F1080256F8085CA01843
:10195000A84209D05A6802F1080019188C4211D027
:10196000BDE87040FFF714BF4068A258091808315D
:1019700046F8041C46F8082C5A6802F108001918A9
:101980008C42EDD156F8040C56F8081C1218083297
:1019900083E80600E4E700BFAFF30080AFF3008008
:1019A00008B500F0B5FD47F6B050C0F6000000F0F5
:1019B000B7FE00F02DF800F043F800F089F800F0D1
:1019C00037F8BDE8084001F04BBB00BFAFF3008023
:1019D0004FF48053CEF2000319465A6880188242B1
:1019E0004B6802D29A4202D970479A42F7D998427C
:1019F00094BF00230123002BF1D17047AFF3008087
:101A00000A460BC801FA03F100F062BFAFF3008091
:101A100000F076BEAFF30080AFF30080AFF300803C
:101A20000123002103704160704700BFAFF30080C5
:101A3000704700BFAFF30080AFF30080AFF30080CA
:101A400001F066BAAFF30080AFF30080AFF300801F
:101A5000002301220270436083600C30FFF718BE40
:101A600010B52023044683F31188416001F078FA11
:101A700002232370002383F3118810BDAFF300808D
:101A800038B51D460446202383F311882B460325D1
:101A9000057001F0BDFA40F6B813C2F2000302204F
:101AA0009969A160FFF7CCFB002383F3118838BD4F
:101AB0000C30FFF75DBE00BFAFF30080AFF30080D6
:101AC000FFF766BEAFF30080AFF30080AFF3008096
:101AD00001F066B8AFF30080AFF30080AFF3008091
:101AE0000023012202704360C36183620362C36208
:101AF0004362036303814381704700BFAFF30080FB
:101B000030B400EB81040025E468A4692570E2602C
:101B10006360A56030BC01F033B900BFAFF3008053
:101B200030B400EB81040025E46864692570E2604C
:101B30006360A56030BC01F03BB900BFAFF300802B
:101B400070B5448944FA01F313F001060D4601D043
:101B5000012070BD012303FA01F52C43448101F0FB
:101B600047F9304670BD00BFAFF30080AFF300808F
:101B700070B5048944FA01F313F001060D4601D053
:101B8000012070BD012303FA01F52C43048101F00B
:101B900037F9304670BD00BFAFF30080AFF300806F
:101BA00010B40346002202240470A0F84C2083F8ED
:101BB0004E2080F84F2002814281C2600261426162
:101BC000826183F8342010BC01F002B8AFF30080CA
:101BD000F8B50446002380F8343000F1440201F0E7
:101BE000BFF86068816841B32046884728B3E56B39
:101BF00094F8443094F84B1094F84A2042EA0120BB
:101C0000A8423CBF0546E06313F0800F2B467DD110
:101C1000002D68D1052184F83410204629462A4633
:101C2000FFF77EFF202383F3118820462946FFF724
:101C30009FFF2B4683F31188F8BD94F8443013F0CE
:101C4000600711D00021204601F0FAF8204600215B
:101C500001F0EEF863681A6812B12046052190473A
:101C6000062084F83400F8BD94F8456003F07F0244
:101C700042EA0626B6F5407F00F0F98016DDB6F59B
:101C8000C06F00F0898068DDB6F5106F00F0B48099
:101C900040F60242964278D0B6F5006FD2D10125C7
:101CA00004F14F00A063E5632764A3E7022E00F070
:101CB000B58065DDB6F5807F00F08780B6F5817F61
:101CC000C0D194F846100029BCD194F8485015F0C2
:101CD0000F0150D02A06204600F1FA8001F0B8F832
:101CE00094F8443047E0042284F834202046002150
:101CF000A26BFFF705FF202383F311880021204604
:101D0000FFF71EFF002383F31188F8BD95B1012171
:101D100084F8341020460021A26BFFF701FF202336
:101D200083F3118800212046FFF722FF002383F36D
:101D30001188F8BD032084F83400294620462A463D
:101D4000FFF7DEFE202383F3118820462946FFF7A4
:101D5000F7FE2B4683F31188F8BD40F2023086422D
:101D600073D0B6F5A06F7FF46DAFB4F84410B1F541
:101D7000A06F00F09B800025A563E563256439E72B
:101D8000002E32D0012E7FF45DAF5649022500228D
:101D9000A163E56322642DE7606894F8496094F8D4
:101DA0004830456894F8471094F84620204643EAA6
:101DB0000623A84700283FF445AF4168056894F81A
:101DC0004430A163E563276414E794F84620012AB0
:101DD0007FF438AFB4F84C00A76320F00201A4F8F8
:101DE0004C10E76327643D4604E7022504F14C00EC
:101DF000A063E5632664FDE694F8465084F84F50EE
:101E0000002D44D10321217062681568002DB2D0E5
:101E100020460221A84794F84430ACE794F84830B3
:101E200013F0800F204603F00F0133D100F078FF4C
:101E3000012833D002287FF405AF2B4DE063A56362
:101E4000276494F844300546D4E694F846100029F7
:101E50007FF4F8AE94F8485015F00F018BD02B06A4
:101E600020463AD400F0E4FF94F8443083E794F835
:101E70004620012A7FF4E6AEB4F84C50A76345F043
:101E80000200A4F84C00E76327643D46B2E6042054
:101E90002070B9E700F054FF0128CBD1134AE66364
:101EA000A263276494F844303546A3E694F846309C
:101EB000204684F84E3000F023FF65682A6812B18E
:101EC000204601219047032094F84430207052E7C7
:101ED00000F0C6FF94F844304DE700F0B1FF94F8ED
:101EE000443048E7807C0008907C0008A07C000813
:101EF00038B590F83430022B044624D0052B36D068
:101F0000012B10D0002100F09BFF2046002100F0A3
:101F10008FFF6068026812B12046052190470621B4
:101F200084F8341038BD90F84B1090F84A30C26BEA
:101F300043EA0121914206D9C5682B8AB2FBF3F12D
:101F400003FB1125D5B1002103200B4684F8340092
:101F50000A462046FFF7D4FD202383F31188002191
:101F60002046FFF7EDFD002383F3118838BD026C96
:101F700002B19047002384F8343038BD2B462946FF
:101F80002A46FFF7CDFD202383F3118820462946FA
:101F9000FFF7EEFD2B4683F31188022084F834000E
:101FA00038BD00BFAFF30080AFF30080AFF3008017
:101FB00090F83430032B10B5044626D0042B11D0F2
:101FC0000021204600F03CFF2046002100F030FFB9
:101FD00063681A6812B1204605219047062184F8EB
:101FE000341010BD002105220B4680F834200A462B
:101FF000FFF796FD202383F3118800212046FFF789
:10200000B7FD002383F3118810BDC1688B699A68FE
:10201000002AD5D1016C01B18847002084F8340032
:1020200010BD00BFAFF30080AFF30080AFF30080BE
:102030004FF4C043C4F2020307481968026810B5A0
:102040003D2401F03D019C600AB140689047BDE825
:102050001040FEF735BF00BF000A0020AFF300803C
:102060004FF4C043C4F2020308481968826810B5EF
:102070008C0904F03D014FF474649C600AB1C0689F
:102080009047BDE81040FEF71BBF00BF000A0020CC
:102090004FF4C043C4F2020308481968026910B53E
:1020A0000C0C04F03D014FF474149C600AB14069BB
:1020B0009047BDE81040FEF703BF00BF000A0020B4
:1020C0004FF4C043C4F2020308481968826910B58E
:1020D0008C0D04F03D014FF074649C600AB1C0693E
:1020E0009047BDE81040FEF7EBBE00BF000A00209D
:1020F0004FF4C043C4F2020307485968026A10B59E
:102100003D2401F03D01DC600AB1406A9047BDE822
:102110001040FEF7D5BE00BF000A0020AFF30080DC
:102120004FF4C043C4F2020308485968826A10B5EC
:102130008C0904F03D014FF47464DC600AB1C06A9C
:102140009047BDE81040FEF7BBBE00BF000A00206C
:102150004FF4C043C4F2020308485968026B10B53B
:102160000C0C04F03D014FF47414DC600AB1406BB8
:102170009047BDE81040FEF7A3BE00BF000A002054
:102180004FF4C043C4F2020308485968826B10B58B
:102190008C0D04F03D014FF07464DC600AB1C06B3B
:1021A0009047BDE81040FEF78BBE00BF000A00203C
:1021B0004FF4C843C4F2020307481968026C10B513
:1021C0003D2401F03D019C600AB1406C9047BDE8A0
:1021D0001040FEF775BE00BF000A0020AFF300807C
:1021E0004FF4C843C4F2020308481968826C10B562
:1021F0008C0904F03D014FF474649C600AB1C06C1A
:102200009047BDE81040FEF75BBE00BF000A00200B
:102210004FF4C843C4F2020308481968026D10B5B0
:102220000C0C04F03D014FF474149C600AB1406D35
:102230009047BDE81040FEF743BE00BF000A0020F3
:102240004FF4C843C4F2020308481968826D10B500
:102250008C0D04F03D014FF074649C600AB1C06DB8
:102260009047BDE81040FEF72BBE00BF000A0020DB
:102270004FF4C843C4F2020307485968026E10B510
:102280003D2401F03D01DC600AB1406E9047BDE89D
:102290001040FEF715BE00BF000A0020AFF300801B
:1022A0004FF4C843C4F2020308485968826E10B55F
:1022B0008C0904F03D014FF47464DC600AB1C06E17
:1022C0009047BDE81040FEF7FBBD00BF000A0020AC
:1022D0004FF4C843C4F2020308485968026F10B5AE
:1022E0000C0C04F03D014FF47414DC600AB1406F33
:1022F0009047BDE81040FEF7E3BD00BF000A002094
:102300004FF4C843C4F2020308485968826F10B5FD
:102310008C0D04F03D014FF07464DC600AB1C06FB5
:102320009047BDE81040FEF7CBBD00BF000A00207B
:102330002DE9F00F40F680258AB0C2F2000546F282
:1023400040400295783046F21045C4F20205A0F5EF
:1023500080600495C4F2020046F240450390C4F246
:10236000020546F228400695C4F2020046F2704586
:102370000590C4F2020546F258400195C4F20200ED
:1023800046F2B8450790C4F2020546F28840099526
:10239000C4F20200029D089046F2100B002040F6A5
:1023A000002346F2280A46F2400946F2580846F24F
:1023B000700C46F2880746F2A006C2F200032860BD
:1023C000C4F2020B039DCBF80000C4F2020AC4F26F
:1023D0000209C4F20208C4F2020CC4F20207C4F2F9
:1023E00002061860CAF800009860C9F80000186179
:1023F000C8F800009861CCF8000018623860986254
:10240000306018632860049D98632860059D1864F7
:102410002860069D98642860079D186546F2104460
:1024200028606034019D986530342860C4F202044D
:10243000089D18664FF4C0414FF4C8422860C4F2AA
:1024400002019866C4F202022060099C18674FF0EE
:10245000FF35206098678D60CD609560D5600AB0CB
:10246000BDE8F00F704700BFAFF30080AFF300800E
:102470002DE9F041244E447A3768012505FA04FC21
:102480001CEA070F3AD1214D4CEA070705EBC408B7
:1024900017F0FF0F45F83420C8F80430376007D034
:1024A0004FF46053C4F202031C6B44F400161E6325
:1024B00017F47F4F19D10468266826F01F052560A0
:1024C000276817F00105FBD1067A43683D2707FA14
:1024D00006F61E6021232560636192B1807A0901AE
:1024E000FEF75EFD2846BDE8F0814FF46055C4F26A
:1024F00002052F6B47F480032B63DCE72846BDE819
:10250000F0811046BDE8F081800A0020000A00201A
:102510004FF46053C4F2020370B400224FF0FF3452
:1025200019691C611A6159695C615A611E6A4EF22F
:102530001001CEF2000166F0805649F23F051E629E
:10254000C0F202051A624EF6F0505E6A5C62CEF28C
:1025500000005A624D608A6007220A60C1684FF429
:102560008052CEF2000241F08071C160106840F0EC
:1025700001011160186C4FF4E042C4F2000240F017
:1025800080511964136843F480701060516821F41D
:102590000073536070BCFFF7CBBE00BFAFF3008089
:1025A0004FF46052C4F202024FF4E043C4F200035D
:1025B0004FF0805111644FF4804218461A6043680E
:1025C0005B04FCD54FF46050C4F20200014602687F
:1025D00042F00103036008684FF460538007C4F2BF
:1025E0000203F8D5196841F480321A601846016870
:1025F0004FF460538A03C4F20203F8D55A6F42F0D5
:102600000100586719464A6F4FF460539007C4F2AF
:102610000203F8D545F20840C0F2407058601968CE
:1026200041F080721A60184601684FF460538A01C5
:10263000C4F20203F8D598684FF414424FF4705175
:10264000C3F60802C4F20201104340F2057298601A
:102650000A60996841F002009860996801F00C00E6
:102660004FF460520828C4F20202F6D1536C43F4CE
:1026700080415164506E40F480435366704700BF00
:1026800038B51C4D2B691A8A9C89A4B21440E143C9
:1026900004F0020089B282B21982002A24D104F027
:1026A000040082B2DAB904F0080082B292B904F0F0
:1026B000100082B24AB9E30703D56A680D489368EF
:1026C0009847BDE83840FEF7FBBB6B680948996A3C
:1026D0008847F0E76B680748196A8847E7E76B683F
:1026E000044899698847DEE76B6828461969884776
:1026F000D5E700BF840A0020AFF30080AFF300806D
:1027000010B540F68424C2F200042046FFF788F991
:102710004FF40063C4F20003236110BDAFF30080E7
:102720004FF46053C4F202031A6B6FEA52216FEA4E
:1027300041221A63196D6FEA51226FEA422119652D
:1027400000234168C4F202034FF48062596081683B
:102750009960C168D96001695961416919628169EB
:10276000596201681960016AC4F202024FF4006301
:102770005160416A9160816AD160C16A5161016BA7
:102780001162416B5162C1691160C4F20203C26BF4
:102790005A60016C9960426CDA60816C5961C26C5C
:1027A0001A62016D5962816B4FF440621960816D4C
:1027B000C4F202024FF480535160C16D9160016E0A
:1027C000D160416E5161816E1162C16E5162416D85
:1027D0001160C4F20203426F5A60816F9960C26F48
:1027E000DA60D0F880105961D0F884201A62D0F8ED
:1027F00088105962016F4FF4A0521960D0F8901000
:10280000C4F202024FF4C0535160D0F894109160AA
:10281000D0F89810D160D0F89C105161D0F8A01079
:102820001162D0F8A4105162D0F88C101160D0F869
:10283000AC10C4F202034FF4E0525960D0F8B0106B
:102840009960D0F8B410D960D0F8B8105961D0F8B8
:10285000BC101962D0F8C0105962D0F8A810C4F2A8
:1028600002021960D0F8C8305360D0F8CC109160E3
:10287000D0F8D030D360D0F8D4105161D0F8D8302F
:102880001362D0F8DC105162D0F8C4104FF400533A
:102890001160D0F8E420C4F202035A60D0F8E810C6
:1028A0009960D0F8EC20DA60D0F8F0105961D0F8D7
:1028B000F4201A62D0F8F8105962D0F8E0001860DD
:1028C000704700BFAFF30080AFF30080AFF300802C
:1028D0002DE9F00F002302F00307C2F38006C2F3D4
:1028E000C105C2F341144FF00F09C2F3C3124FF0F8
:1028F000010A38E0D0F820B02BEA0C0C4CEA0808AA
:10290000C0F82080D0F804B00AFA03FC2BEA0C08C7
:1029100048EA060BC0F804B04FEA430C4FF0030B33
:10292000D0F808800BFA0CFC6FEA0C0C0CEA0808D3
:1029300048EA0508C0F80880D0F80C800CEA0808BE
:1029400048EA0408C0F80C80D0F800800CEA080CB3
:102950004CEA070CC0F800C049081AD07600AD0058
:10296000A400BF00013303F0070C4FEA8C0C11F0F8
:10297000010F02FA0CF809FA0CFCEDD0072BB9D9BB
:10298000D0F824B02BEA0C0C4CEA0808C0F82480DC
:10299000B8E7BDE8F00F7047AFF30080AFF30080F9
:1029A000F8B5046D04EB41134FF0FF32D3F8086B18
:1029B000C3F8082B330705460F4603D5D4F814385F
:1029C0001A0715D4F30703D5D4F81408C00700D4A8
:1029D000F8BD05EB87036989D868012202FA07F27E
:1029E00021EA02036B81C268394628469047F8BD48
:1029F00000EB8102D3685A689047E3E7AFF30080A9
:102A0000026D890141F02003136110698106FCD435
:102A10000C20FEF7DDBF00BFAFF30080AFF30080F6
:102A2000F8B5046D04EB41134FF0FF32D3F8086999
:102A3000C3F80829F30705460F4603D5D4F8103824
:102A4000DA071FD4330606D50121D4F8340801FA79
:102A500007F7074200D1F8BD202383F31188EB6DFF
:102A6000D4F83428686E3B4322EA0707EB65C4F8C4
:102A7000347818B1FEF7D4FB00206866002383F396
:102A80001188F8BD00EB8102B0F808E0D36801229C
:102A900002FA01F22EEA020202819B689847D1E70E
:102AA00070B53E4E356D6B69AC691C40E1046C61DC
:102AB0002BD4A20448BFD5F80838230704D5706882
:102AC000C16809B135488847E00629D46103D5F8C3
:102AD000185807D5EA0749D4AB074DD4680751D435
:102AE000290755D4220307D5EB0332D4A80336D4E3
:102AF000690327D42A0303D4BDE87040FEF7E0B988
:102B000026480321FFF74CFFF6E73046FFF748F869
:102B100073681B68002BCCD0304600219847C8E76B
:102B2000202383F31188AA69706E22F01003AB6131
:102B300020B1FEF775FB194900204866002383F396
:102B40001188C3E702211548FFF72AFF2A03D3D5CE
:102B5000D6E712480021FFF723FFA803C8D50121BB
:102B60000E48FFF71DFF6903C4D5EBE700210B48B2
:102B7000FFF756FFAB07B1D508480121FFF750FF1B
:102B80006807ADD502210548FFF74AFF2907A9D5F7
:102B900002480321FFF744FFA4E700BF980A002082
:102BA00010B540F69824C2F200042046FEF798FFC4
:102BB00047F6705100234FF0A040C0F60001236695
:102BC00063662065616510BDAFF30080AFF30080E0
:102BD0002DE9F84F80460021046DFFF711FFD8F86A
:102BE00054B0DBF808A04FF00061FF22C4F80019D0
:102BF0000AF00106C4F8001B0123C4F80829C4F830
:102C0000082BBAF1000F33D066B102235345C4F844
:102C1000201904F51267C4F8201BC4F82829C4F849
:102C2000282B25D85F1C03F1480903F1580003F154
:102C3000490C03F1590E04EB431604EB4715400110
:102C40004FEA49194FEA4C1C4FEA4E1E02335345D6
:102C500044F809102150C6F80829C6F8082B44F892
:102C60000C1044F80E10C5F80829C5F8082BD9D95E
:102C7000DBF80030D8F850204FF0FF314FF001164C
:102C80001025C4F81818C4F81C68C8F858306362D6
:102C90001561106910F01005FBD10C20FEF798FEAD
:102CA000D4F80038D8F8581023F4FE62C4F800288D
:102CB000A66946F44020092240F01006A66148F2B9
:102CC0004003C4F81028C4F814280B4AC1F20003CA
:102CD00001F1100041F48011C8F80C20C4F8105B19
:102CE000C4F8003BC4F81059C4F80039C8F85800BB
:102CF000A162BDE8F88F00BF807D0008AFF30080BF
:102D0000036D90F84E10D3F8002822F4FE6040EADC
:102D10000111C3F800187047AFF30080AFF30080D3
:102D20005831036D49015A5812F4004004D012F48E
:102D3000001F0CBF02200120704700BFAFF30080CE
:102D40004831036D49015A5812F4004004D012F47E
:102D5000001F0CBF02200120704700BFAFF30080AE
:102D600000EB8101CB68186A016843681160536009
:102D7000704700BFAFF30080AFF30080AFF3008077
:102D800000EB810310B4DC68006DA269638A5468AB
:102D9000621ED41800EB411143F0C042B4FBF3F3C0
:102DA00042EAC340C1F8100B10BC7047AFF300807B
:102DB00000EB810310B4DA6853695B686BB1128A67
:102DC000006D5C1EA418B4FBF2F200EB411143EA63
:102DD000C243C1F8103910BC7047006D00EB4112BE
:102DE0004FF40021C2F81019F5E700BFAFF30080DF
:102DF0005831036D49015A5842F08060585070476D
:102E000001F14802036D5201985840F00440985077
:102E10000120D3F8342800FA01F11143C3F8341823
:102E2000704700BFAFF30080AFF30080AFF30080C6
:102E30005831036D49015A5842F4001058507047F8
:102E40004831036D49015A5842F4001058507047F8
:102E50005831036D49015A5822F4001058507047F8
:102E60004831036D49015A5822F4001058507047F8
:102E700011F00C0F00D17047FDF7DABFAFF30080FF
:102E800011F00C0F38B5044639D1606A0268136836
:102E900023F01F0111601568E907FCD4057A216A47
:102EA00043680A683D2000FA05F01860136823F0B3
:102EB0001F0010601368DB07FCD46368087A4A6857
:102EC0001B683D2101FA00F11160ABB104202070B4
:102ED000204698472278042A0ED0202383F31188B5
:102EE000A16829B10022A26008464A62FEF798F95B
:102EF000002383F3118838BD02232370EDE7FDF72B
:102F000097FFC2E7AFF30080AFF30080AFF300801C
:102F100038B540F6D04340F6D444C2F20004C2F2C1
:102F200000034FF6FF7220461A80FEF791FD47F628
:102F3000B043C0F600034FF4705016214622C4F28D
:102F4000000003F15405C0F20101C0F20102E0618A
:102F500023626562A162E26238BD00BFAFF3008008
:102F60000378012B10B5044627D0C36960684289F5
:102F7000A06A02F4006189B2B9B1E16A20F4F040BC
:102F800021F4F04140F4205041F42051A062E1626C
:102F900042F441720020072118801A8099801A8813
:102FA00090B240F04001198010BDE16A20F4F04079
:102FB00021F4F041A062E162EAE71148844209D0BD
:102FC000206A616AE3690068096803F10C028260A3
:102FD0008A60CBE70A210B4A206A2346FFF748FAAA
:102FE000094A606A0A212346FFF742FA4FF460510A
:102FF000C4F202010A6C42F400430B64E0E700BF34
:10300000D40C0020812E0008712E0008AFF3008040
:10301000F0B4046A476A866AC56A24683868E3605F
:1030200046F4806645F4806561602660C260416058
:103030000560236843F001012160026842F001034A
:103040000360F0BC704700BFAFF30080AFF30080B7
:10305000FFF7A6BAAFF30080AFF30080AFF30080B4
:10306000704700BFAFF30080AFF30080AFF3008084
:103070000B4B10B51C7804B110BD01221A7000F082
:1030800017F800F075FF01F05BF900F0E9F8204651
:1030900000F0FEF801F024FABDE8104002F038BE5E
:1030A000B00D0020AFF30080AFF30080AFF30080DD
:1030B00008B5054B986900B108BDFEF771FCBDE885
:1030C0000840FDF7BDBF00BFB8090020AFF3008086
:1030D000034608B9FEF704BA421C0CD04FF47A72CA
:1030E00002FB03F344F6D350C1F26200591EA0FB69
:1030F00001139A09501CFEF7E3B900BFAFF300803B
:10310000034600B97047411C0CD04FF47A7202FBA1
:1031100003F34DF68360C4F21B30591EA0FB01136C
:103120009A0C501CFEF7CCB9AFF30080AFF30080CF
:103130008A42B8BF1146C260FEF732BAAFF30080D0
:1031400008B54B1C12D04FF47A7303FB01F144F61F
:10315000D3520139C1F26202A2FB01239A09511C28
:10316000FEF776FA013018BF012008BDFEF740FADD
:10317000012008BDAFF30080AFF30080AFF3008003
:1031800008B5202383F311888168C368994201DA66
:10319000FEF76EFAFEF7FCF8002383F3118808BDF2
:1031A00030B4029D0C4638B119B1029530BCFEF71F
:1031B0006FB9084630BC7047002908BF4FF48071D2
:1031C00030BCFEF7CDB900BFAFF30080AFF3008095
:1031D0000023436003607047AFF30080AFF30080CB
:1031E00000230B60202383F31188026832B1436807
:1031F00019604160002383F31188704741600160CA
:10320000F8E700BFAFF30080AFF30080AFF30080BA
:1032100010B4B9B1202383F3118802687AB19142C6
:1032200001D111E01A4613684BB19942FAD14368B3
:103230000C688B42146008BF4260002008600023C5
:1032400083F3118810BC70470A68002302600B608A
:10325000002383F31188F5E7AFF30080AFF300801C
:1032600010B540F6B454C2F200042046FEF710FA3E
:103270002046FEF77DFA03F00BFBBDE81040FEF799
:1032800087BA00BFAFF30080AFF30080AFF30080D8
:1032900010B5044640F6B450C2F20000FEF768FADA
:1032A000204603F015FEBDE81040FEF771BA00BFDE
:1032B0002DE9F04182B00546BDF8204040F6B450FB
:1032C000884617461E46C2F20000FEF751FA0094E7
:1032D000284641463A46334603F092FE02B0BDE826
:1032E000F041FEF755BA00BFAFF30080AFF30080A6
:1032F0002DE9F04182B00546BDF8204040F6B450BB
:10330000884617461E46C2F20000FEF731FA0094C6
:10331000284641463A46334603F01AFE02B0BDE85D
:10332000F041FEF735BA00BFAFF30080AFF3008085
:10333000F8B5044640F6B4500F4616461D46C2F294
:103340000000FEF715FA2046394632462B4603F0B8
:1033500067FABDE8F840FEF71BBA00BFAFF3008084
:10336000F8B5044640F6B4500F4616461D46C2F264
:103370000000FEF7FDF92046394632462B4603F0A1
:103380001FFDBDE8F840FEF703BA00BFAFF30080B1
:10339000F8B5044640F6B4500F4616461D46C2F234
:1033A0000000FEF7E5F92046394632462B4603F089
:1033B00097FFBDE8F840FEF7EBB900BFAFF3008020
:1033C0002DE9F04182B00546BDF8204040F6B450EA
:1033D000884617461E46C2F20000FEF7C9F900945F
:1033E000284641463A46334603F03AFC02B0BDE86F
:1033F000F041FEF7CDB900BFAFF30080AFF300801E
:103400002DE9F04383B00646BDF82850BDF82C40A6
:1034100040F6B450894690461F46C2F20000FEF7BF
:10342000A7F9009501943046494642463B4604F0D0
:1034300077F803B0BDE8F043FEF7AAB9AFF3008018
:103440002DE9F04F1FFA81F808EB030783B000F174
:10345000FF3CBFB21C460CEB020A7B1E022A0E4642
:103460000546BDF830901FFA8AFA1FFA83FB19DD72
:10347000002C14DD0FFA8AFACDF8009052460B4664
:10348000FFF716FF012C0AD00FFA8BF1CDF8009050
:10349000284652460B46FFF70BFF022C0FD103B014
:1034A000BDE8F08F24D0012AF9D102460FFA8BF340
:1034B000CDF8309003B0BDE8F04FFFF7F9BEB81E6D
:1034C00008F1010807B20FFA88F828462A46414653
:1034D0003B46CDF80090FFF7EBFE50464146524682
:1034E0003B46CDF8309003B0BDE8F04FFFF7E0BEAB
:1034F0000FFA8BFB02465B46CDF80090FFF7D8FE33
:103500000FFA8AF0314602465B46CDF8309003B0A0
:10351000BDE8F04FFFF7CCBEAFF30080AFF3008003
:1035200005290AD8DFE801F00C12181E2403037BDA
:10353000407A00FB03F318B27047002318B27047BB
:10354000417B027902FB01F318B27047437BC079DB
:1035500000FB03F318B27047417B827902FB01F351
:1035600018B27047037B407900FB03F318B2704731
:10357000017B027A02FB01F318B27047AFF30080BF
:103580008B7A83420AD8CA7A824207D3C01A0B695F
:10359000097B1A5C02FB01F000B27047002000B208
:1035A000704700BFAFF30080AFF30080AFF300803F
:1035B000F0B491F80CC04E790138012706FB0CF6E7
:1035C000002410F8013FBBB18A7A9342F9D3CD7A37
:1035D0009D42C2EB0302F4D30B699A5C02FB0CF32D
:1035E000002BEED016B132194FB994B21C1910F855
:1035F000013FA4B2002BE7D120B2F0BC70470027F6
:10360000F4E700BFAFF30080AFF30080AFF30080BA
:103610002DE9F04F8DB0DFF8F083179DBDF86040C5
:103620002F796E7B089407FB06F6BDF8644009937A
:10363000B7B23BB206940B97169C099F9DF8689011
:1036400095F805B095F80CC00591002C18BFA04660
:10365000BB428246079200F39D80FF1A7B1C03EB5E
:10366000D374C4F34F0427B2002F10DD069BCDF8AE
:1036700010C000933B46FFF73BFE0598099ADDF822
:1036800010C02118141B0FB223B205970993099893
:1036900081B28E1BB4B223B2002B0FDD059A0698BF
:1036A000CDF810C08F18391B009009B25046079A08
:1036B000FFF71EFE0B9BDDF810C009930BFB0CFB04
:1036C000B9F1010FCDF82CB01FFA8BFB65D0B9F121
:1036D000020F00F0B1800AF10106B6B237B25745C9
:1036E00000F39C80079901230FFA8BF48A4408F1B8
:1036F000FF3807930A94384618F8014F002C3AD047
:10370000AF7ABC42F8D3EA7AA242F5D3E11B2B6927
:1037100095F80C905F5C09FB07F91FFA89F7002FF9
:10372000EAD0BBF1000F11D0079A002A40F0818047
:103730000A9A831853451EDC0699099B0091059946
:10374000FFF7D6FD0B988619B6B230B200FA87FCA7
:10375000D44510DC069A089F0192009722460599ED
:1037600009EB06042B46FFF74BFEA6B218F8014FF3
:1037700030B2002CC4D1504507460BDAC6EB0A0321
:10378000069C059916941AB2099B0DB0BDE8F04F3E
:10379000FFF7AEBD0DB0BDE8F08F29464046FFF7FC
:1037A00007FF0799814280F2EC80079A801A00EBAC
:1037B000D0774FEA670E43464F4600210FFA8EF44A
:1037C000984613F8012B02B3A87A82429846F7D3A1
:1037D000EE7A9642C0EB0200F2D32A692E7B125C8D
:1037E00006FB02F2002AEBD0BBF1000F08D00B98C9
:1037F0004618002F40F0D280B1B208B2844204DBF8
:10380000511889B20AB29442DADA0EEB0A0CC1EB13
:103810000C039EB237B257457FF764AF06980599FF
:103820000090CAEB0602504612B2099BFFF760FDFA
:1038300058E70021079189E798F8004008F1010254
:10384000002C00F0D580104601320778002FFAD105
:10385000079BAAF10201CE18431E9845B6B200F2AA
:1038600099801A4608F1FF38A97A12F80179C3EB5A
:103870000804E0434FF001090FFA8BF48F420A94D9
:1038800000EA090C17D3E87AB84214D328692C7BD4
:103890007F1AC75D04FB07F4A0B260B137B200B273
:1038A000BBF1000FC0EB070018BF4FF000095045F7
:1038B00071DB331B9EB2424513466BD0BCF1000F47
:1038C00009D012F801798F4202D3EC7ABC4274D24B
:1038D000424513465ED0584636E0DDF828B037B290
:1038E000CBEB070BD34566DB0B9FF61BB6B237B2AB
:1038F00024B23C1B54455EDBCCEB06039EB2134660
:10390000013A93F800C08C451BD3EF7A674518D372
:103910002C692F7BC1EB0C0B14F80BC007FB0CFCC4
:103920001FFA8CF46CB120B1B9F1000F38D04FF010
:10393000000937B224B23C1B54453CDBCCEB0603F8
:103940009EB24245134624D01346013A93F800B084
:103950008B45D4D3EF7A5F45D1D3C1EB0B0C2C69E7
:103960002F7B14F80CB007FB0BFC1FFA8CF4002C17
:10397000C5D00028BBD0B9F1000FAED04FF0000980
:10398000B5E70C1A04EBD4760AEB6607BEB237B281
:10399000A5E6834637B203F10108A0E600272FE72A
:1039A000DDF828B037B2CBEB070BD34503DB0B9F19
:1039B000F61BB6B2BDE78346EDE77F1A28692C7B7C
:1039C000C75D04FB07FC1FFA8CF4002C80D0BBF110
:1039D000000F04D0B9F1000F0CD04FF0000937B23E
:1039E00024B2381B5045D6DBCCEB06039EB26FE702
:1039F00040462DE70A9837B2381A5045CBDB0B9F6B
:103A0000F61BB6B2EBE700BFD07F0008AFF3008033
:103A10002DE9F04F8BB08246159C149E677B94F87D
:103A20000480049208FB07F78B4ABDF8585094F8BD
:103A300005C003953FB2002E08BF16469F429DF871
:103A40005C5094F80C908B464BDCDB1B581C00EB55
:103A5000D0714F103AB2002AC4BF5F440FFA87FBFF
:103A60000CFB09F8012DCDF818801FFA88F73BD020
:103A7000022D00F08F800AF101053278ADB2DDF839
:103A800010800FFA87FCC244CDF810A04FF0010956
:103A9000CDF814C0D04622B3A37A93421DD8E07A61
:103AA00090421AD3216994F80CA0D31AC85C0AFB7F
:103AB00000FA1FFA8AF181B1002F58D1434628B28B
:103AC00000FA81F199420CDC039B5946009323468E
:103AD000FFF776FC0AEB050295B216F8012F002AD3
:103AE000DAD10BB0BDE8F08F30462146FFF760FD1C
:103AF000DDF810C0604540F31681DDF810E0CEEB34
:103B0000000202EBD2704210AC460592334600210F
:103B100015B21E460133327812B3A07A8242F8D32E
:103B200094F80B809045C0EB0200F2D32269105C40
:103B300000FB09F2002AECD05FB1DDF818E00EEBD3
:103B40000100BCF1000F40F0F78081B208B285425D
:103B500004DB511889B20AB29542DADA72781E464D
:103B6000DDF8149009EB0A035D1AADB287E7B9F1ED
:103B7000000F03D043464FF00009A0E7DDF814C062
:103B8000049B0CFA85F09842ABDCDDF818C0654464
:103B9000ADB294E7337830462BB1721C1046013237
:103BA00001780029FAD1DDF810C0AAF10205431E00
:103BB00005EB0C029E4295B200F2C4801846013E0D
:103BC000F11A079610F80129A67A6FEA01080FFA90
:103BD00087FC0121B2420591CDF820C008EA010816
:103BE0001CD3E17A914219D3C6EB020C216911F87A
:103BF0000C1001FB09F1099189B279B109B20FFAF0
:103C000085FCC1EB0C0C0599002F18BF0021D44591
:103C10000591C0F29C80099BED1AADB2DDF81CC085
:103C20006045034600F08F80B8F1000F0CD010F80B
:103C30000129B24203D3E17A914280F08F80DDF80E
:103C40001C80404503467ED0DDF81CC0CDF80890AE
:103C5000CDF81CB042E000BFD07F000800200590E6
:103C600028B212B2801A50456FDBC8EB05039DB233
:103C70000A78481EB2420B462DD3E17A91422AD3EC
:103C80002169DDF80890C6EB020811F808B00BFBBB
:103C900009FB1FFA8BF10991E9B17FB10599002960
:103CA0004DD1DDF820900FFA85F8C9EB0801514598
:103CB0004BDBDDF81880C8EB0505ADB2DDF82490CC
:103CC0000FFA85F80FFA89F1C1EB080151453CDB89
:103CD000CBEB05039DB2604503463BD00278411E05
:103CE000B2420346C4D3E07A9042C1D3901B22690A
:103CF00012F80090029809FB00F81FFA88F2002AD7
:103D0000B6D0002FACD005980028A7D1DDF820B0A0
:103D100028B2CBEB0000504517DBDDF81890C9EB5B
:103D20000505ADB29CE7C0EB0C0000EBD0710AEBCF
:103D3000610295B23278A2E64FF0000C09E700214B
:103D40000591BBE702785E1C99E6DDF81CB05A7855
:103D50005E1C94E6DDF81CB05E1C90E6C6EB020823
:103D6000216911F8081001FB09F1029189B209914A
:103D700000293FF464AF77B10599E1B9DDF82080FF
:103D80000FFA85FCC8EB0C015145E0DBDDF818C0EB
:103D9000CCEB0505ADB2DDF824800FFA85FC0FFAF7
:103DA00088F1C1EB0C015145D1DBDDF808C0CCEB4B
:103DB00005039DB243E700210591ECE7AFF30080D6
:103DC000F0B4174D0778064605F10C0C55F8040BB6
:103DD000026811783B4634464BB9D1F1010238BF35
:103DE000002212B96545F1D30020F0BC70472A2BA0
:103DF00006D08B42F6D16378517801340132EBE77B
:103E000041B163788B4202D051780132F8E7013436
:103E10000B46E1E76178D1F1010238BF0022E0E70B
:103E200000080020AFF30080AFF30080AFF3008004
:103E3000704700BFAFF30080AFF30080AFF30080A6
:103E40002DE9F043484C83B005460A4604F5F8775F
:103E50004FF000084FF00109002838D054F8103C0A
:103E6000834234D0BC4222D2404C85B154F8106C0D
:103E7000AE420CD0BC4204F1100618D2D5B156F8AF
:103E8000104CAC4216D006F11004002DEED11AB140
:103E900054F80C3C9342EDD154F8100C8168002981
:103EA00022DBBC4244F8108C04F11006E6D303B0C8
:103EB000BDE8F0831AB156F80C3C9342E3D156F8B2
:103EC000100C8168002924DB46F8108CDBE71AB15E
:103ED00054F80C0C9042C5D154F8100C816800299C
:103EE0002CDB44F8108CBDE74FF0FF31103001920D
:103EF000FFF726F954F8100CA0F8289054F8100C8D
:103F0000FFF73EF954F8100C1030FFF739F9019A19
:103F1000C7E74FF0FF3110300192FFF711F956F863
:103F2000102CA2F8289056F8100CFFF729F956F833
:103F3000100C1030FFF724F9019AC5E74FF0FF315C
:103F400010300192FFF7FCF854F8102CA2F82890DA
:103F500054F8100CFFF714F954F8100C1030FFF758
:103F60000FF9019ABDE700BFD40D0020E40D002039
:103F700040F6C470C2F20000FDF78ABBAFF30080C8
:103F800010B500216FF000420446FFF7D1F801217F
:103F900004F110000A46FFF7CBF8002323622385C3
:103FA00010BD00BFAFF30080AFF30080AFF300801F
:103FB0002DE9F843074689469046002800F08680A0
:103FC000002964D04548FDF7D3FB454B53F8102C2E
:103FD000BA42A3F1100403F5F8715BD0002A7BD03C
:103FE00000263F4A8A42144602F1100339D253F8A0
:103FF000100CB84262D0002E6AD002F110041033C7
:104000008C4210D32DE0002E39D053F8100B04F160
:104010001005B8422C4618D0002E34D005F11004FB
:1040200010338C421DD253F8105CBD42EBD153F8D3
:104030000C2C4A4532D0002EE7D153F8100B002645
:1040400004F11005B8422C46E6D153F80C2C4A4531
:1040500024D0002EE2D105F11004002610338C424A
:10406000E1D32EB186E880020021C6F80880F16015
:10407000FDF78EFB301C18BF0120BDE8F883002D32
:10408000DBD12646C1E70028E5D12E46C6E7084623
:10409000BDE8F88353F80C0C4845A1D110374FF018
:1040A000FF313846FFF74CF83846C4F80880FFF770
:1040B00067F8FDF76DFB0120BDE8F88353F80C0CA1
:1040C0004845EBD0002E98D1002696E7BDE8F8834E
:1040D0000028F9D1164690E7264682E7C40F002053
:1040E000D40D0020AFF30080AFF30080AFF3008069
:1040F000036A10B5044643B98268002A05DBFFF75E
:104100001FF810B104F1280010BD002010BD00BF41
:10411000F8B504460E461746A8B10E4804F110053E
:10412000FDF726FB28464FF0FF31FFF709F8A3689B
:104130006762002B266207DB2846FFF721F8BDE8FF
:10414000F840FDF725BBF8BD012020852046FFF78C
:1041500017F8F1E7C40F0020AFF30080AFF3008041
:1041600038B505460C46002831D01A48FDF700FB4B
:104170005CB354F8100B1030FFF702F8164B9C425A
:104180001ED26068A8420ED0134AE1435318DB06E2
:1041900013D41034944213D26168A94203D010346E
:1041A0006068A842F5D120684FF0FF311030FEF76B
:1041B000C7FFFDF7EDFA204638BD10349442EFD327
:1041C0000024FDF7E5FA204638BD044CD9E7044643
:1041D000F1E700BFC40F0020C40F0020C40D002071
:1041E000006810F1200301D0283070478268002A4F
:1041F000FADB1846704700BFAFF30080AFF30080D2
:1042000010B504460B48FDF7B3FA2068036A3BB1CA
:10421000FDF7BEFA21680A6A486A2831904710BD46
:104220008168002903DDBDE81040FDF7B1BAFEF753
:10423000A7FFF8E7C40F0020AFF30080AFF30080C2
:1042400010B5044640F6C470C2F20000FDF790FAC3
:1042500000202146FFF7F4FDBDE81040FDF798BAB5
:104260002DE9F0474FF00009314E324D4FF0FF3A43
:10427000C846FDF735F930485146FEF761FF2F4833
:10428000F768FDF775FAD5F800E0BEF1000F37D0FA
:1042900073464FF0FF3A0AE0A14501D8A74215D274
:1042A000E21B924528BF92465B699E452AD01A8A36
:1042B00002F0040002F0020481B2A0B231B9002879
:1042C000F2D1B9459C68E7D9A145E7D8D1071DD5FA
:1042D000D968D9B102F0020084B23CB99868CF190C
:1042E0003C1AB4FBF1F701FB0701996022F00402CC
:1042F0001A8293E89000FDF74BFA3846A047BEE7D4
:104300004FF0FF3AFDF744FAB946B2E75F699869A2
:10431000874209D0B8619C697345676104BF5F69D2
:104320002F60A3F81080E4E7C5F80080F9E700BF2C
:10433000A80900202013002024130020D40F0020FF
:1043400008B541F22430C2F2000000210122FEF73C
:10435000EFFE40F6D470C2F20000BDE80840FDF761
:1043600097B900BFAFF30080AFF30080AFF30080D8
:104370002DE9F0433C4E83B004463C480A9D8946F3
:1043800090461F46FDF7F4F93068002861D0238A73
:1043900003F008018AB2002A32D13548C4F80090EF
:1043A000C4F80480002F3FD108216B1C21823FD02C
:1043B0004FF47A7606FB05F544F6D3526B1EC1F234
:1043C00062022C4E0068F668218AA2FB0352930910
:1043D00001339A19E360A260002832D082696061DB
:1043E00054616369A2619C6101F0020188B210B955
:1043F0002148FEF7C5FE03B0BDE8F043FDF7C8B99C
:104400006369A1691A488B4220D099610268A16949
:10441000C4F80090A2424B6108BF6369C4F80480ED
:1044200008BF0360002FBFD009226B1C2282BFD1BE
:10443000218A0068E56041F00203194623820028C2
:10444000CCD10B4AA46114606461CDE70023036002
:10445000A4E70090094B0A484FF44E717F22FEF703
:104460009FFE306093E700BFE40F0020D40F0020D0
:1044700020130020A8090020241300206142000816
:10448000E80F0020AFF30080AFF30080AFF30080AF
:1044900010B504460F48FDF76BF9238A03F00800B6
:1044A00081B271B16369A26993420ED00A499A61DF
:1044B000A0690A684361A24204BF63690B600020DF
:1044C0002082BDE81040FDF763B9034B002119605D
:1044D000F5E700BFD40F002020130020AFF30080C9
:1044E00008B500F095F9BDE8084000F0C9BB00BF71
:1044F00070B50D4682B0044600281FD08382164B4B
:10450000164918880968164E164B096836881B68C4
:10451000626060828A6826822946A36120469047AD
:10452000054618B9A08AC30703D40024204602B068
:1045300070BD2046FDF7ECF92C46F7E75168019273
:104540000093FDF79DF9019A009B04460028ECD0EA
:1045500043F00100A082D2E738130020841300202A
:104560000C08002034130020AFF30080AFF300806C
:1045700041F23833C2F2000318807047AFF3008075
:1045800041F23833C2F2000318887047AFF300805D
:1045900041F23433C2F2000318607047AFF3008079
:1045A00041F23433C2F2000318687047AFF3008061
:1045B00008B5828A21B102F0020189B271B108BD49
:1045C00002F0020189B20029F9D009490968096895
:1045D00022F0020282820B69984708BD04490968EB
:1045E000096842F0020282820B69984708BD00BF49
:1045F00084130020AFF30080AFF30080AFF300809E
:10460000838A03F0100210B5044690B2C9B1B8B95C
:1046100003F0020043F0100183B2A18283B162680B
:10462000D06868B1B4F90800B4F90A10B4F90E30D2
:10463000B4F90C20FEF77CFE61682046CB689847F1
:1046400010BD0028FCD003F002018AB223F0100351
:10465000A382002AE3D110BDAFF30080AFF3008046
:10466000F0B541F28433C2F2000383B01D68B0F9A3
:1046700008602F68B0F90A5000920B467C693146F9
:104680002A46A04703B0F0BDAFF30080AFF300802F
:1046900030B5838A044603F0020081B283B009B9C1
:1046A00003B030BDB4F90800B4F90A10B4F90C2015
:1046B000B4F90E30FEF73CFE658AB4F90C20B4F96B
:1046C0000E30B4F90800B4F90A100095FEF710FE98
:1046D00062681369002BE3D020469847E0E700BFEB
:1046E00070B530230C461646FFF702FF68B1E36849
:1046F000094D2169002B08BF2B46C36131B16269A6
:10470000A369016242621BB1836270BD7169F6E701
:10471000024B1B68F8E700BFD07F0008100800209C
:104720002DE9F0410B88A3F5807001280D4629D8AA
:1047300034490C6814B925E024681CB3A38A03F03B
:104740003202322AF8D103F0800081B2E1B1A889A7
:10475000698900F0010232EA010144D06668F66915
:1047600023F08003A382002EE6D0A88821896389E4
:10477000EA88411AD21A204609B212B2B047246818
:10478000002CDBD1BDE8F0816A89A88902F0010123
:104790008143D1D0AE88208932B201B28A42CBDBCC
:1047A000B4F90C70C9198A42C6DAB5F806C067892F
:1047B0000FFA8CF239B28A42BEDBB4F90E80414462
:1047C0008A42B9DA6268D2F8188043F08003A38283
:1047D000B8F1000FB0D0311AC7EB0C02204609B275
:1047E00012B2C047A8E763681B6A002BA4D0E88810
:1047F000AE8821896289711A821A09B2204612B2E2
:10480000984799E788130020AFF30080AFF300804A
:1048100010B541F23C34C2F200042046FFF7B0FB71
:1048200044F221712046C0F600010022BDE810408C
:10483000FFF76EBCAFF30080AFF30080AFF30080F2
:10484000838A03F0400210B5044690B228B123F0E9
:104850004001A182E069FDF75BF82046BDE8104009
:10486000FFF7EEBCAFF30080AFF30080AFF3008042
:10487000838A10B5044603F0020081B269B1B4F92D
:104880000800B4F90A10B4F90C20B4F90E30FEF7A0
:104890004FFD2046226A616A904710BDAFF3008049
:1048A000838A70B50D4603F02001044688B216468F
:1048B000C8B103F0400291B241B1E06923F0400376
:1048C000A38218B1FDF724F81048E0610DB12A78F1
:1048D00032B90E48E0612046BDE87040FFF7C8BF1E
:1048E00016B9E561F7E770BD284603F071F9411C80
:1048F0000020FCF7C5FF064630B1A18A41F0400315
:10490000A382294603F004F9E661E4E7D07F0008BA
:10491000838A03F020018AB20AB1C0697047104649
:10492000704700BFAFF30080AFF30080AFF30080AB
:10493000838A03F0200293B210B44BB151B10C46FC
:104940000A88498884624282018210BCFFF790BFC6
:1049500010BC7047014C2468F2E700BF100800202B
:1049600070B5104E002818BF0646A1B10E4B1C684A
:104970008CB10E4DA08A00F020018AB21AB1A06A53
:104980002B68984209D02468002CF3D13088FFF7B7
:10499000EFFD2E6070BD054DF8E720463146FFF76C
:1049A000C7FFF0E7E085000888130020100800200A
:1049B00044F2E161C0F600010022FFF7F9BA00BF3E
:1049C00008B501F0E5FD014628B103480322BDE822
:1049D0000840FFF7EDBA08BD3C130020AFF300809C
:1049E000704700BFAFF30080AFF30080AFF30080EB
:1049F000704700BFAFF30080AFF30080AFF30080DB
:104A0000704700BFAFF30080AFF30080AFF30080CA
:104A10002DE9F04F85B00E1E044615461F46BDF920
:104A200038807CDB002D324674DB3F49B1F800C092
:104A30000FFA8CF9A9F1020090422B4603DCACF18D
:104A4000030636B23246498808B2A0F1020A9A45F6
:104A500002DCCD1E2DB22B46022FD8BF0327D21960
:104A6000B8F1020FD8BF4FF0030891454344BB464D
:104A7000BCBFC6EB0C073FB2B4F908909842C246DF
:104A8000BCBFC5EB01080FFA88F8B14535D0A38A41
:104A900003F0020188B238B926816581A781A4F8A4
:104AA0000E8005B0BDE8F08F6289B4F80CB0B4F8A0
:104AB0000EA00392FFF764FD039B009019B20FFA5A
:104AC0008BF20FFA8AF34846FEF712FCA18A268180
:104AD0008B076581A781A4F80E80E2D56068C26863
:104AE000002ADED03046294643463A46FEF720FCEF
:104AF00063682046D9688847D3E7B4F90A10A94209
:104B0000C5D1B4F90C00B842C1D1B4F90E20424568
:104B1000BDD1C6E7A8440FFA88F8002585E79F199C
:104B20003FB200267EE700BFE4180020AFF300800C
:104B300030B50C46054641F2883083B02946C2F2B2
:104B40000000FEF74DFBB4F90010B4F90220B4F9EF
:104B50000430B4F9064028460094FFF759FF0120BD
:104B600003B030BDAFF30080AFF30080AFF300803F
:104B70002DE9F041838A03F00202044690B282B02C
:104B800088B123F00201A1822689B4F80A80A7899E
:104B9000E589FFF7F5FC0FFA88F100903AB230B2E0
:104BA0002BB2FEF7A5FB0348214602B0BDE8F04159
:104BB000FEF72EBB88130020AFF30080AFF3008018
:104BC00010B5014604460F48FEF722FB0D4821466A
:104BD000FEF706FBA38A03F0020081B281B162688E
:104BE000D3686BB1B4F90800B4F90A10B4F90C2019
:104BF000B4F90E30FEF79CFB61682046CA68904706
:104C000010BD00BF88130020AFF30080AFF3008019
:104C1000F0B5044683B0B0F90800B4F90A10B4F94D
:104C20000E30B4F90C20FEF783FBA38A03F00200D8
:104C300081B231B16268D3688BB12046984703B026
:104C4000F0BD25896789A689E489FFF799FC39B207
:104C5000009032B228B223B2FEF74AFBEFE7B4F974
:104C60000800B4F90A10B4F90C20B4F90E30648AC3
:104C70000094FEF73DFBE2E7AFF30080AFF3008066
:104C800041F2883008B5C2F20000FEF7A1FA41F205
:104C90008433C2F2000348F24062C0F600021A6098
:104CA00008BD00BFAFF30080AFF30080AFF300801A
:104CB00000238383C3837047AFF30080AFF300808A
:104CC000F0B400F10B0C074600F10A050C46B1FBED
:104CD000F2F602FB161101F13003392BC8BF01F1C6
:104CE0003703DBB2B4FBF2F42846314605F801394C
:104CF000002CECD1C0EB0C020146B818FA43821824
:104D0000D2070AD507F8013B11F8013F05E011F879
:104D1000013F7B7011F8013F571C3A4602F8013BF6
:104D20008242F4D1F0BC7047AFF30080AFF3008053
:104D300038B5074A00230D46FFF7DAFB044628B1D1
:104D400000238383C383297AFFF732FC204638BDD2
:104D500060860008AFF30080AFF30080AFF30080FF
:104D6000F0B543683A4DAB4283B004460E4601D0DD
:104D700003B0F0BD80690028FAD00021FEF7D0FB17
:104D800003210546A069FEF7CBFBB4F90A10B4F97C
:104D90000C20B4F90E300746B4F90800FEF7C8FA43
:104DA0000A2E30D00D2EE3D0A1693046FEF7E8FB85
:104DB000B4F91C10B4F90C20C019C7B2CB19934236
:104DC000E18BEDB219DAB4F90E3005FA81F09842B0
:104DD00020DCA28B89B252B3B4F808E06589208A3E
:104DE000A36900907244491910B209B23246FEF725
:104DF000E7FAA38BFF18A783BAE7691889B20020E6
:104E0000A083E183DFE7E08B002250FA85F5A283DF
:104E1000E583ADE7B4F812E0B4F90A10B4F908007C
:104E2000CDF800E0FEF764FA0021A183E183B4F835
:104E30000AC0638AB4F90C20B4F9080000936144F5
:104E400009B22B46FEF754FAA28BE18BC4E700BFF0
:104E500060860008AFF30080AFF30080AFF30080FE
:104E60000EB42DE9F04F4268754986B08A42044677
:104E7000DDF83CB004D006B0BDE8F04F03B0704799
:104E800080690028F7D00DF10D030DF10C0A10AD6B
:104E9000CAEB030C00930295CDF804C05D4615F8EB
:104EA000011B0029E7D025290AD0AB465D462046E4
:104EB000FFF756FF15F8011B0029DCD02529F4D196
:104EC0009BF801302D2B00F0638100272E2B00F082
:104ED0005B812026AB460299002507E00A78043161
:104EE00005EB850302EB43059BF80030A3F130028C
:104EF000D2B2092A0BF1010BF2D92A2BEED00020F5
:104F00002E2B02914BD06C2B55D04C2B53D0A3F1B0
:104F1000410119298CBF00210121A3F14402342A47
:104F200000F22C81DFE812F01B012A012A012A017C
:104F30002A012A012A012A012A012A012A0119012A
:104F40002A012A012A012A012A0111012A012A0122
:104F500004012A012A012A012A012A012A012A011F
:104F60002A012A012A018E001B012A012A012A0195
:104F70002A012A012A012A012A012A012A011901EA
:104F80002A012A012A0151002A0111012A012A01BC
:104F900004010A78043100EB800002EB40001BF8AA
:104FA000013BA3F13002D2B2092AF4D92A2BF0D066
:104FB0006C2B0291A9D19BF80010002900F0EE8023
:104FC0000B460BF1010B0121A7E7029E48F2506846
:104FD0003368C0F60008002B18BF9846311D98F8BA
:104FE0000020029147F6FF76002808BF3046002ACD
:104FF00000F0EF8098F80130411E08EB000908F13D
:10500000010201F00100B3B19145134600F0D680D2
:1050100060B15678013276B19145134606D1CDE0A4
:10502000567801323EB1994500F0C88058785A1C34
:10503000531C0028F4D1C8EB020920260CE000BF65
:10504000608600080298DDF804900268011D029154
:105050008DF80C202026D046C9EB050525EAE5751C
:105060000FBB6D42FDB198F800102D2900F098801B
:1050700020463146EF43FFF773FE013507F0010785
:1050800011D02FB120463146FFF76AFE01350AD014
:1050900020463146FFF764FE013520463146FFF7D2
:1050A0005FFE0135F4D1B9F1000F26DD4746C1445A
:1050B00017F8011B6FEA080809EB0803204603F004
:1050C0000108FFF74DFE4F4517D0B8F1000F06D08D
:1050D00017F8011B2046FFF743FE4F450DD0B84699
:1050E000204618F8011BFFF73BFE7978204608F1AF
:1050F0000107FFF735FE4F45F1D1002D3FF4CEAE4D
:105100006A1E15462046314602F00107FFF728FEC9
:10511000002D3FF4C3AE27B920463146FFF720FEED
:10512000013D20463146FFF71BFE013DF4D1B5E6B7
:105130001022029B69B1191D029119685046FFF7B0
:10514000BFFDD046CAEB000986E70A22029B002970
:10515000F1D1181D19680290F0E70822E9E7029BD7
:105160001A1D41B31968029200292BDB50460A220E
:10517000FFF7A6FDD046CAEB00096DE78DF80C30AD
:10518000DDF80490D04667E76B7830260135A1E65C
:105190000BF102059BF80230012797E60121BCE6DE
:1051A000302E7FF465AF2046FFF7DAFD08F10108E5
:1051B00009F1FF395CE719680292D5E7C8EB0909E4
:1051C000202649E72D208DF80C0049420DF10D00F5
:1051D000CDE7914620263FE7AFF30080AFF3008094
:1051E000828A42F480518182FFF742BBAFF3008094
:1051F000838A70B50C4623F4805181820546164699
:10520000FFF736FB002C09DB002E07DBB5F90C009D
:10521000A04203DDB5F90E20B24200DC70BD0024CF
:105220004FF4007621460848FEF79AFF044600280E
:10523000F4D0FEF7D5FF03462046002BF2D01E80A7
:105240005D60FEF7DDFFEDE7E1460008AFF30080AB
:1052500070B54368274A934286B0044601D006B031
:1052600070BD808A00F010018DB2002D3DD000F499
:105270008056B3B2A56A002B3AD01235E069A26914
:10528000009001922988A289E3890291AE88B4F93D
:105290000800B4F90A100396013A0126013B04966E
:1052A00012B21BB2FEF7B4F9A28920896189E389A1
:1052B0006E888018421ECB1810B2013B0246009641
:1052C00009B21BB2FDF7F4FF6689E1892089A28942
:1052D0006B8871180139821809B2023A009300B242
:1052E00012B20B46FDF7E4FFB9E7A56A0A35C5E738
:1052F0000235C3E780860008AFF30080AFF300807B
:1053000038B5054A0D46FFF7EBF9044610B1297A86
:10531000FFF74EF9204638BD80860008AFF30080C5
:10532000C289B0F90C3011B28B4230B40CDB026B85
:10533000846B416BA41A013B04FB03F38A1A93FBB1
:10534000F2F1818530BC704700F1300538CD01396C
:10535000ED1A05FB01F11C1B013A91FBF4F3D11886
:105360008185EFE7AFF30080AFF30080AFF30080FB
:1053700070B48689C58933B22CB2A34206DA002AFA
:105380000EDB94420ADC013D858504E0002907DB41
:105390008B4208DD818570BCFFF76ABA8285FAE727
:1053A00000218185F7E7013E8685F4E7AFF30080B1
:1053B000002970B505462EDBB0F90C3099422ADA87
:1053C000002A28DBB0F90E00824224DA83422ADA6E
:1053D000061F96422CDD042A2EDC6A6BAA6328463F
:1053E000FFF79EFF2846FFF743FA002440F201260C
:1053F00021461F48FEF7B4FE0446E0B1FEF7F0FE7A
:1054000003462046002BF3D0A96B1E805D60996097
:10541000FEF7F6FEECE72846FFF782FF2846BDE8D8
:105420007040FFF725BA1A1F8A42D6DD042911DC25
:105430002C6BAC63D3E770BD2B6B696B821ACE1AF1
:10544000941F06FB04F40A3894FBF0F0C31899B2D9
:10545000A963C4E72C6B6E6B0539301B00FB01F1AF
:105460000A3B91FBF3F31A1994B2AC63B7E700BFA0
:10547000E1460008AFF30080AFF30080AFF3008097
:10548000F0B54368814A934285B0044601D005B027
:10549000F0BD808A00F010018DB2A06A002D68D1A5
:1054A00000F10A05A689E78932B23BB29A4263DA73
:1054B000A68D581E31B281420ED06189EB88B4F9B5
:1054C00008000093B6B27118BF1B09B23BB2FDF7DA
:1054D0000FFFA68DB4F90C20002E40F09A806E8844
:1054E000B4F90800B4F90A10B4F90E300096FDF7CB
:1054F000A7FFA78D61892089A2896B887E188718EC
:1055000031B27A1E009312B20B4600B2FDF7D0FE04
:10551000A28D11B2012910DD61892089A6896B88CD
:105520008F18BA1E861911B2771E00933AB20B4635
:1055300000B2FDF7BDFEA28D11B2E38918B2461E7E
:105540008E4200F39080A289E769A669208961896B
:10555000009701962C8801300131023A023B0294F7
:105560000124039400B209B212B21BB2FEF750FA42
:105570008DE700F1120595E7A78D013A39B2914206
:1055800010D0B4F808E00289B4F90A100092BFB252
:1055900007EB0E00F61B00B232B2FDF7A9FEA78D95
:1055A000B4F90E30002F52D16E88B4F90800B4F966
:1055B0000A10B4F90C200096FDF742FFA78D208950
:1055C0006189E3896A883E18CF1830B27B1E009249
:1055D00009B21BB20246FDF76BFEA38D19B2012979
:1055E00010DD20896189E6896A88C718BB1E8E197B
:1055F00018B2771E009209B23BB20246FDF758FE80
:10560000A38D19B2A28910B2461E8E420EDCE38928
:105610009AE7A36AB4F908001F89B4F90A10009741
:1056200033B2FDF765FEB4F90C2058E7278961898C
:10563000E6896A88B81CC3188F1918B27E1E0092BA
:1056400009B2024633B2FDF733FEA289DFE7EA88EA
:10565000B4F90800B4F90A1000923AB2FDF748FE16
:10566000B4F90E30A0E767892089A6896B88B91C38
:105670008A18871911B27E1E009332B20B4600B20F
:10568000FDF716FEA289E3895EE700BFD086000819
:1056900038B5094A0D46FFF723F8044650B10023F8
:1056A0006422036342638363FFF73AFE2046297A4C
:1056B000FEF77EFF204638BDD0860008AFF300809D
:1056C00070B50546002440F2022621460A48FEF73E
:1056D00047FD044670B1FEF783FD03462046002BCC
:1056E000F3D0AA8A1E80C2F300315D601972FEF702
:1056F00087FDEAE770BD00BFE1460008AFF3008018
:10570000838A10B583F4805181820446FFF7B0F894
:105710002046BDE81040FFF7D3BF00BFAFF30080C5
:10572000F0B54368394A934287B0044601D007B0C8
:10573000F0BD808A00F010018DB2002D4DD000F434
:105740008056B7B2002F5ED0A36A03F11207B4F9F6
:105750000E20B4F90C502089B3F800E06189CDF82F
:1057600000E09542A8BF1546ABB29EB21DB2421CE6
:105770000131B31E10B209B22A461BB2FDF7B8FDC3
:105780007A88B4F90800B4F90A1000922B462A4628
:10579000FDF756FEA08A00F480518BB2032DCCBFDA
:1057A00002250125EBB9E169A269009101923D88CA
:1057B000A36A2089A28902951D88B4F90A10B4F958
:1057C0000E300395013A01303018961B00220492E6
:1057D00000B232B2FDF71CFFA9E7A36A03F10A0782
:1057E000B5E7ADB261892089BB88C5EBC53206EB50
:1057F000420212B228186D18009300B229B2134663
:10580000FDF776FDCFE7A36A9F1CA0E7108700088D
:1058100038B5054A0D46FEF763FF044610B1297AF4
:10582000FEF7C6FE204638BD10870008AFF30080A3
:105830002DE9F0434368404A934287B0044602D0C2
:1058400007B0BDE8F083808A00F010018DB2002D12
:1058500057D000F48056B7B2002F69D0A36A03F185
:105860001206B4F80C90B4F90E20B3F800E02089C9
:105870006189CDF800E00FFA89F59542A8BF154679
:10588000ABB21FFA83F8C8EB09071FFA87F909F1D1
:10589000FF3297B201381DB23A180131A8F1020364
:1058A00010B209B22A461BB2FDF722FD2089728888
:1058B000B4F90A1000923B1818B22A462B46FDF79D
:1058C000BFFDA18A01F4805082B2032DCCBF022516
:1058D0000125D2B9E369A269009301923088A16AD7
:1058E00002900A88B4F90800B4F90A10B4F90E302D
:1058F00003920224A9F10202049412B2FDF788FE79
:105900009EE7A36A03F10A06ABE7ADB2208961897D
:10591000B388C5EBC53208EB4202381812B228181A
:105920006918009300B209B21346FDF7E1FCD1E714
:10593000A36A9E1C95E700BF10870008AFF30080A4
:10594000F0B5838A03F48052044690B287B00028F1
:1059500039D1A58903F400539AB2002A2ED1E089E7
:10596000B4F90C102DB2A94226D1B4F90E2003B21D
:105970009A4207D0204629461A4607B0BDE8F040B3
:10598000FEF76EBEA28A20896189E769A66902F0E6
:10599000100292B2002A1ED1A26A54890097019681
:1059A0000294128803920022049200B209B22A469D
:1059B000FDF72EFE07B0F0BD03B2DBE7A0690021C2
:1059C000FDF7AEFDCCE7A169E069FDF7F1FD811CB3
:1059D0008DB2A38ABEE7A26A5488DFE7AFF30080E6
:1059E000B1F90430002B70B50C46054613DDB4F94F
:1059F0000610002600291DDD28462146124AFEF722
:105A00006FFE054628B1828A217A16438682FEF708
:105A1000CFFD284670BDCE68FEF7C2FD0146304678
:105A2000FDF7C6FDB4F9061002300029A0804FF43E
:105A30008056E1DCFEF7B4FD0021FDF771FD46F470
:105A40000056E080D8E700BF40870008AFF3008031
:105A50002DE9F04143683A4A934286B0044602D0A9
:105A600006B0BDE8F081808A00F010018DB2002DF3
:105A70005DD000F48056B7B2002F5CD0A36A03F16A
:105A80001206B4F90E20B4F90C50B3F800E0B4F9E2
:105A90000800B4F90A10CDF800E09542A8BF1546F9
:105AA000AFB23BB21A465D1E05EBD575FDF720FC83
:105AB000208961897388C5F34F052A1869180FFA80
:105AC00085F810B209B24246FDF74AFCA38A03F4F6
:105AD000805082B282B123896189E8186A18B8F1CE
