:020000040800F2
:100000000004002051030008210500082105000814
:100010002105000821050008210500082105000828
:1000200021050008210500082105000851050008E8
:100030002105000821050008210500082106000807
:1000400021050008210500082105000821050008F8
:1000500021050008210500082105000821050008E8
:10006000210500082105000821050008116E00087F
:10007000416E0008716E0008A16E0008D16E000884
:10008000016F0008316F00082105000821050008F4
:1000900021050008210500082105000821050008A8
:1000A0002105000821050008210500082105000898
:1000B00021050008210500086174000821050008D9
:1000C0002105000821050008210500082105000878
:1000D0002105000821050008D18700082105000836
:1000E0002105000821050008210500082105000858
:1000F000210500082105000821050008616F00089E
:100100002105000821050008210500082105000837
:100110002105000821050008210500082105000827
:10012000916F0008C16F0008F16F0008217000088E
:10013000517000082105000821050008210500086C
:10014000210500082105000821050008017F00089D
:1001500081700008B1700008E170000821050008F6
:1001600021050008210500082105000821050008D7
:1001700021050008210500082105000821050008C7
:0801800021050008210500081B
:1001900070B5594D594C82B006F002F800F0B0FA33
:1001A00008F00EFD284606F0ABF92146284606F079
:1001B000D7F92368196D8A6B22F400268E634FF4F9
:1001C0007A7000F02DFD20684D4906F031FB24685F
:1001D0004C48236D996B41F400229A63002106F08C
:1001E000AFF80020C4F20200042140F2823207F08E
:1001F00007FB002040F28232C4F2020008214FF4D3
:10020000806407F0FDFAC4F202043F483F4906F05B
:1002100097FA4FF480563E483E4906F091FA204640
:1002200031461922268307F0EBFA20464FF400519D
:1002300040F29A2207F0E4FA20464FF4804140F25F
:10024000822207F0DDFA204640F29A224FF4004164
:1002500007F0D6FA3048314905F0E2FF4FF440602C
:10026000C4F2020031464FF4817207F0C9FA4FF42C
:100270004060C4F202004FF400514FF4817207F065
:10028000BFFA4FF44060C4F202004FF480414FF4D3
:10029000817207F0B5FA4FF44060C4F202004FF4E7
:1002A00000414FF48172002407F0AAFA00941C4820
:1002B0001C4B4FF498714A2200F062FC44B1207F3D
:1002C0000E2813D04FF4FA7000F0AAFC002CF6D1DF
:1002D000D5F8543219680A78042AF3D112484FF439
:1002E0000B61402208F074FC0446EBE7204600F066
:1002F0002FFD0024E6E700BFE4150020F0A9000868
:1003000010A90008F81300209413002040AA000848
:10031000C413002030AA0008CC11002020AC000833
:10032000B01400201193000850AC0008AFF3008017
:10033000704700BFAFF30080AFF30080AFF30080E1
:10034000FEE700BFAFF30080AFF30080AFF30080A3
:1003500072B6644C84F30988022383F31488BFF3D4
:100360006F8F61486149884218D2CA1C051D531B12
:1003700023F00302034610184FF0553183421960F1
:10038000C2F380020AD01AB185422B46296005D0FB
:100390001D1D5960083383426960F9D15448A04259
:1003A00018D25449041D0A1B22F0030503462818DD
:1003B0004FF0553183421960C5F380020AD01AB15B
:1003C00084422346216005D01D1D596008338342B5
:1003D0006960F9D108F004FB4749484881421BD2C3
:1003E000C61C0C1D321B464822F00302161D056870
:1003F0000423B3420D60C2F380020DD022B14568E0
:100400000823B342256007D01A1D1D5884585D503B
:100410000833B3428C50F7D13A483B49884217D24F
:10042000CB1C041D1A1B22F00305034628180021CB
:1004300083421960C5F380020AD01AB18442234670
:10044000216005D01D1D5960083383426960F9D1D0
:10045000FFF76EFF2D4D2E498D421DD2CC1C2E1D57
:10046000A71BB808471C01242A6800EA0408904723
:10047000BC4211D0B8F1000F05D002243368984770
:10048000BC42354608D0696888470234A8682E1DEA
:1004900080470835BC42F6D1FFF77AFE1D4D1E4A53
:1004A00095421DD2D41C2E1DA71BBB085F1C012426
:1004B000296803EA04088847BC4211D0B8F1000F4C
:1004C00005D0022430688047BC42354608D06A68AF
:1004D00090470234AB682E1D98470835BC42F6D1D0
:1004E000FFF72EFF0008002000000020000400207D
:1004F000000400200308002000080020DC08002081
:1005000068AD0008E00800204018002088010008BD
:10051000880100088801000888010008AFF3008006
:10052000FEE700BFAFF30080AFF30080AFF30080C1
:1005300072B6FEE7AFF30080AFF30080AFF3008048
:1005400000F0AEFA00DF00BFAFF30080AFF3008031
:10055000EFF30983203383F30988002383F31188A1
:10056000704700BFAFF30080AFF30080AFF30080AF
:1005700008B54FF46D43CEF200034FF44072C0F261
:10058000FA520021996007201021DA6000F090F8FB
:100590000A204FF4007100F08BF80B208021BDE899
:1005A000084000F085B800BFAFF30080AFF30080D3
:1005B000202383F311884FF46D43CEF20003586873
:1005C00010F4006319D0EFF30983A3F1200282F342
:1005D000098810494FF080708A6943F8040CD07F75
:1005E00009689268896858B1914294BF002201223B
:1005F00062B1094A43F8082C704783F311887047A9
:10060000914234BF00220122002AF2D1034843F86C
:10061000080C7047F809002041050008440500084F
:1006200008B5202383F3118800F0A2F8002383F398
:100630001188BDE80840FFF7BBBF00BFAFF30080E3
:100640002DE9F04FC1F80CD0D0F80CD0BDE8F08FF8
:10065000002383F311882846A04700F041FB704730
:10066000F0B44FF461438408CEF20003C03400F0CC
:10067000030553F82470ED00FF26420906FA05F63B
:1006800027EA060601FA05F500F01F0002F16007EF
:10069000012101FA00F02E4343F8246043F82700BB
:1006A00043F82200F0BC7047AFF30080AFF3008046
:1006B00082084FF46D43CEF20003063200F00300CF
:1006C00030B4C00053F82250FF2404FA00F425EAA5
:1006D000040401FA00F10C4343F8224030BC704797
:1006E000024B034A98698261FEE700BFF8090020C7
:1006F000A0970008AFF30080AFF30080AFF3008055
:1007000000B583B0FFF734FF00F0F2F800F060F8B6
:1007100001F07EFB01F0C4FB40F6E0004021C2F294
:10072000000000F0CDF940F6F811C2F200010122FC
:1007300088610277002383F3118862B649F2B070B2
:100740008969C0F600008861009340F6281040F2E5
:10075000E163C021C0F60003C2F2000000F010FA0D
:1007600003B000BDAFF30080AFF30080AFF30080B3
:1007700038B5134B9869C27F0AB1511EC177036A1D
:10078000104C5A1C0262E0682268411CA242E160DF
:1007900014D09568013D956085B91368D1685C6097
:1007A0002360D560002383F31188106988472023D4
:1007B00083F31188226890680028EED038BD00BF0E
:1007C000F8090020E8090020AFF30080AFF30080B3
:1007D00040F6E813C2F200034FF0FF3200205B60E6
:1007E0001B609A60D8607047AFF30080AFF3008061
:1007F00070B40C4E03613468C260A568A94204D984
:100800002468491BA5688D42FAD363680460B4422A
:10081000436018606060816002D0A068411AA160E6
:1008200070BC7047E8090020AFF30080AFF3008090
:100830000368074A934203D09968826889189960CF
:1008400042681360036800215A60C160704700BFAE
:10085000E8090020AFF30080AFF30080AFF3008021
:10086000084B8142DA6806D9824208D38A422CBFFB
:100870000020012070478242F8D3012070470020F9
:10088000704700BFE8090020AFF30080AFF300809D
:10089000202383F31188037F0D2B11D8DFE803F0A9
:1008A00020101007100B101010101010100B416AC0
:1008B0008A68531C8B6090E80C001A6001684B60DA
:1008C0004FF0FF3242628168074B002202771B68BB
:1008D0009A688A42FBD25968036041600860586098
:1008E000002383F311887047F8090020AFF30080DC
:1008F00040F6F813C2F2000300225B601B609A60AE
:100900005B611B61704700BFAFF30080AFF30080F5
:1009100000228168054B02771B689A688A42FBD2E5
:10092000596803604160086058607047F80900200A
:1009300040F6F813C2F2000310B499691A680877F8
:1009400014201468C87701201077104663601C607B
:100950009A6110BCFFF774BEAFF30080AFF3008064
:1009600030B54B1C87B0054611D00B4C0B4AA36920
:1009700001A8FFF73DFF2846FFF7DAFF049B13B1FC
:1009800001A8FFF755FFA069406A07B030BDFFF727
:10099000CFFF014CF7E700BFF809002091080008DD
:1009A000F0B4144F8568BE690446B06861620023E4
:1009B00085420CD82377394609688A689542FBD965
:1009C00048682160606004604C60F0BC7047337719
:1009D000394609688A689042FBD94868316070607E
:1009E00006604E600123204631462377BC61F0BC8F
:1009F000FFF726BEF8090020AFF30080AFF30080B8
:100A00000E4B18689969026830B453601A608C689C
:100A100098610125142300220577CB770A770346D6
:100A200000E01B689A68A242FBD25A680B604A60D9
:100A30001160596030BCFFF703BE00BFF809002009
:100A40000D4B18689969026830B453608C681A605D
:100A500001259861002305770B77034600E01B68AA
:100A60009A68A242FBD85A680B604A6011605960CC
:100A700030BCFFF7E5BD00BFF8090020AFF30080F0
:100A8000044B1A68986991688368994200D8704746
:100A9000FFF7D6BFF8090020AFF30080AFF3008066
:100AA000034B9869C17F09B1FFF7CABFFFF7A8BF21
:100AB000F8090020AFF30080AFF30080AFF30080AF
:100AC000F0B440F6F814C2F2000400226569016433
:100AD000046100F12C06816000F1280745614FF0A8
:100AE000020C60610121142480F81CC04277C47795
:100AF000C2638263026281778261286187620663D2
:100B0000C662F0BC704700BFAFF30080AFF3008057
:100B10002DE9F00340F6F815C2F20005A1F1240C0E
:100B200000EB0C076969C76040F80C30069B7B60DE
:100B300040F25163C0F600033B62022303771423A3
:100B40000026904600F1280900F12C02C37701230A
:100B50000561C0F808804161044668614677C0F8C5
:100B60004080C66386630662837786610861C0F849
:100B700028900263C262BDE8F0037047AFF30080C3
:100B800010B51C4682B0202383F311882346049CB1
:100B90000094FFF7BDFF00210446FFF701FF00238B
:100BA00083F31188204602B010BD00BFAFF3008070
:100BB00010B5202383F31188084B9A69146C91684F
:100BC0008C4201D0814200D290601064FFF758FF40
:100BD000002383F31188204610BD00BFF8090020D0
:100BE00010B52023044683F311880021FFF7D8FEB7
:100BF000002383F31188204610BD00BFAFF30080AF
:100C0000202383F31188437F43F0040141770023BD
:100C100083F31188704700BFAFF30080AFF300800B
:100C200008B50146202383F311880620FFF798FEBC
:100C3000002383F3118808BDAFF30080AFF3008079
:100C400008B5202383F31188054BD968411A02D0D7
:100C50000620FFF785FE002383F3118808BD00BF3F
:100C6000E8090020AFF30080AFF30080AFF300800D
:100C700008B5202383F31188064B1A689869916898
:100C80008368994201D3FFF7BBFE002383F31188E9
:100C900008BD00BFF8090020AFF30080AFF300806B
:100CA00038B50E4B9C692546606255F8280FA8425E
:100CB00006D00168A162FFF72BFEA06AA842F8D116
:100CC000607F830704D1636922691A6121694B61DE
:100CD0000E20BDE83840FFF72BBE00BFF80900200A
:100CE000202383F31188FFF7DBBF00BFAFF3008041
:100CF00038B50446202383F31188037F0E2B07D0D9
:100D0000826A0848816907200A60A162FFF710FE25
:100D1000656A002383F31188204600F019F82846FD
:100D200038BD00BFF8090020AFF30080AFF30080AA
:100D3000202383F31188837F591C8177002383F359
:100D400011887047AFF30080AFF30080AFF30080ED
:100D50000146202383F31188827F531EDAB2827703
:100D6000002383F3118812B9037F0E2B00D0704744
:100D7000427F02F00303012B09D0022BF7D1436914
:100D80000269406C1A610A69536101F0B9B943699B
:100D900002691A6101694B6101F0EAB8AFF30080A2
:100DA000F0B583B00D4617461E4601F099F804468B
:100DB00090B1202383F31188089C334629463A4694
:100DC0000094FFF7A5FE0123437700210446FFF7B7
:100DD000E7FD002383F31188204603B0F0BD00BF78
:100DE0002DE9F04182B005460E4690461F4601F0BF
:100DF0006FF9044690B1202383F311886968009746
:100E000043463246FFF784FE0223437745640021C0
:100E10000446FFF7C5FD002383F31188204602B086
:100E2000BDE8F081AFF30080AFF30080AFF3008046
:100E3000202383F3118840F6F812C2F20002002347
:100E40001069817F4A1C827783F31188704700BF45
:100E500010B5202383F31188074B04699C4209D005
:100E6000A17F4A1CA277002383F31188FFF770FF4C
:100E7000204610BD0024F6E7F8090020AFF30080FB
:100E80004060006081607047AFF30080AFF3008086
:100E9000F8B5876881600137002F044629DC406877
:100EA000436863601C60FFF733FD6FF0010607F0D5
:100EB000010146627D1CEFB149B160684268626021
:100EC0001460FFF725FD0135012D466213D06068DF
:100ED000436863601C60FFF71BFD46626068416801
:100EE00061600C60FFF714FD6A1C46620235002A3F
:100EF000EDD1F8BDF8BDF8BDAFF30080AFF30080D1
:100F000008B5202383F31188FFF7C2FFFFF7B8FD70
:100F1000002383F3118808BDAFF30080AFF3008096
:100F200082680346501E002810B5986001DB00203F
:100F300010BD074CA26953625968136051600320C9
:100F40005A600A60FFF7F4FCA369586A10BD00BF3D
:100F5000F8090020AFF30080AFF30080AFF300800A
:100F600008B5202383F31188FFF7DAFF002383F30A
:100F7000118808BDAFF30080AFF30080AFF30080AD
:100F800003468068421E002A10B40C469A6002DBB9
:100F9000002010BC704759B1074CA26953625C68CD
:100FA000032082E818005A60226010BCFFF7D8BC0A
:100FB00098604FF0FF30ECE7F8090020AFF30080B5
:100FC00008B5202383F31188FFF7DAFF002383F3AA
:100FD000118808BDAFF30080AFF30080AFF300804D
:100FE00008B50246202383F311888368581C002823
:100FF000906003DD002383F3118808BD1068036847
:10100000002113605A60FFF7CBFCF3E7AFF30080D9
:1010100082680346501C0028986000DD70471A68FB
:101020001168104619604B6000235362FFF770BCD3
:10103000F8B50D1E044637DD83680026581C6A1E6D
:10104000B042A06002F001072FDD013D2CD077B146
:10105000A3685A1C002AA2602FDD013D07D134E0AD
:10106000A168481C0028A06014DD013D1BD0A068C9
:10107000431C002BA36005F1FF35F1DC20680268FA
:1010800022605460FFF744FC4662A168481C0028B7
:10109000A060EADC2068036823605C60FFF738FC2E
:1010A000013D4662E3D1F8BDF8BD206801682160CA
:1010B0004C60FFF72DFC4662C7E72068016821609D
:1010C0004C60FFF725FC4662C7E7F8BDAFF3008030
:1010D00010B5024682B0202383F311888368581C20
:1010E0000028906019DD8A68501E0028886007DBA0
:1010F000FFF7C6FC0020002383F3118802B010BD67
:101100000B4C4B68A469032084E80A004C601C6007
:101110006162FFF70DFC606AEDE710680368136019
:101120005A600191FFF7F4FB002141620199DAE76F
:10113000F8090020AFF30080AFF30080AFF3008028
:101140000023406000608360704700BFAFF3008001
:10115000F8B52F4A836894690546002B51D0A168E1
:101160009868814206D91A7F9960042A31D0052AED
:101170001CD092B128460068854203D08368A168DC
:101180008B42F8D2426820606260446004201460A0
:101190006562BDE8F840FFF7CBBB93E8060011603D
:1011A000196818464A60FFF7B3FBE3E758681F6801
:1011B0005E6A07601F68324678601268964202D005
:1011C00090688842F9D251681A6059600B60536088
:1011D000D0E758681F685E6A07601F68324678600B
:1011E0001268964212D090688842F9D251681A600B
:1011F00059600B605360B368A1689A688A42B2D3A1
:10120000B8E7E36B8460C360E063F8BD3246EDE7A6
:10121000F8090020AFF30080AFF30080AFF3008047
:1012200008B5202383F31188FFF792FF002383F38F
:10123000118808BDAFF30080AFF30080AFF30080EA
:101240000246202383F31188836823B10020002302
:1012500083F31188704704488369D96B9360D16028
:101260000120DA63F3E700BFF8090020AFF3008044
:10127000154A38B59069202383F31188C46B25681B
:10128000E368A542C3631CD0016C4BB11A689A4253
:1012900003D09268914238BF1146DB68002BF5D12C
:1012A0002B68EA6B8160236028465C600021A560A2
:1012B000E260EC63FFF774FB002383F311882046A0
:1012C00038BD0023A360F7E7F8090020AFF30080E2
:1012D00038B5124B9869C46B2568E368A542C363AF
:1012E00018D0016C4BB11A689A4203D092689142AF
:1012F00038BF1146DB68002BF5D12B68EA6B8160A3
:10130000236028465C60A560E260EC63FFF700FBA9
:10131000204638BD0021A160204638BDF8090020D4
:10132000134A70B52023946983F31188E36BD3B11A
:1013300000260BE01168D56B196010464B609A606F
:10134000DD60D363FFF7E4FAE36B43B11A68D96851
:101350009A42E163EED19E60E36B002BF6D1206CE4
:10136000A060FFF78DFB002383F3118870BD00BFE1
:10137000F8090020AFF30080AFF30080AFF30080E6
:1013800040600060704700BFAFF30080AFF30080A3
:1013900008B50246202383F311880068904205D0E7
:1013A0000368002113605A60FFF7FAFA002383F301
:1013B000118808BDAFF30080AFF30080AFF3008069
:1013C00008B503460068984206D002681A60536068
:1013D000FFF79EFA0021416208BD00BFAFF3008015
:1013E00038B504460068A0420AD06FF001050368D2
:1013F00023605C60FFF78CFA45622068A042F6D15A
:1014000038BD00BFAFF30080AFF30080AFF30080C2
:1014100008B5202383F31188FFF7E2FFFFF730FBC5
:10142000002383F3118808BDAFF30080AFF3008081
:10143000F8B5104B05469C69FFF74AFF2E46074654
:101440006562284603E08168A268914210D3006873
:101450008542F8D17368266063601C607460052063
:10146000FFF766FA646A3846FFF772FE2046F8BD59
:101470000646EFE7F8090020AFF30080AFF30080E5
:1014800008B5202383F31188FFF7D2FF002383F3ED
:10149000118808BDAFF30080AFF30080AFF3008088
:1014A0002DE9F04106468846FFF712FF0E4B9A6978
:1014B0000746334656621B689E4203D09D68946877
:1014C000A542F8D25C68052082E8180041462260F7
:1014D0005A60FFF745FA431C044602D03846FFF72E
:1014E00037FE2046BDE8F081F8090020AFF3008008
:1014F00008B5202383F31188FFF7D2FF002383F37D
:10150000118808BDAFF30080AFF30080AFF3008017
:1015100030B4202383F3118840F6F813C2F200039D
:1015200004689D690C600024016023464D608A6058
:10153000CC6083F3118830BC704700BFAFF30080EC
:10154000202383F31188024600E01A461368834281
:1015500003D09942F9D108681060002383F3118801
:10156000704700BFAFF30080AFF30080AFF300809F
:1015700010B4202383F3118840F6F812C2F200025F
:10158000002391698A6B22EA00048C6383F311883B
:10159000104010BC704700BFAFF30080AFF3008075
:1015A000202383F3118840F6F812C2F200020023D0
:1015B0009269916B0843906383F31188704700BF71
:1015C00008B5826B037F1143082B81630BD0092B75
:1015D00000D008BD426A11408A42FAD1FFF798F95B
:1015E0000021416208BD436A1942F7D108BD00BF1E
:1015F00008B5202383F31188FFF7E2FFFFF740FAD5
:10160000002383F3118808BDAFF30080AFF300809F
:1016100070B50468A04205460E4608D0201D0BC8D0
:101620003343E360FFF7CCFF2468A542F6D170BDD9
:1016300008B5202383F31188FFF7EAFFFFF720FAAC
:10164000002383F3118808BDAFF30080AFF300805F
:10165000F8B50D46074689B10024012601E00134A2
:1016600065B106FA04F32B42F9D057F8242020463E
:1016700025EA030501349047002DF2D1F8BD00BFE3
:1016800038B50D4B05469C69202383F31188A16B67
:1016900010EA010206D160620820FFF749F9A16B48
:1016A00005EA01025042104021EA0001A163002333
:1016B00083F3118838BD00BFF8090020AFF3008024
:1016C00038B50B4B05469C69202383F31188A16B29
:1016D000084006D108206562FFF72AF9A16B05EAE8
:1016E000010021EA0001A163002383F3118838BDC2
:1016F000F8090020AFF30080AFF30080AFF3008063
:1017000038B50C4B04469D69202383F31188A86BE0
:1017100004EA0002A24204D009206C62FFF708F933
:10172000A86B20EA0400A863002383F311882046F5
:1017300038BD00BFF8090020AFF30080AFF3008090
:10174000114B70B59E690546202383F31188B06B59
:1017500015EA00040ED121B9234683F311882046EF
:1017600070BD08207562FFF7FBF80028F4DBB06B52
:1017700005EA000461420C4020EA0400B063002343
:1017800083F31188204670BDF8090020AFF3008074
:10179000104B70B59E690446202383F31188B26B09
:1017A00014EA02050ED121B92B4683F3118828468D
:1017B00070BD08207462FFF7D3F80028F4DBB26B29
:1017C00004EA020522EA0502B263002383F31188CA
:1017D000284670BDF8090020AFF30080AFF3008009
:1017E00038B5134B04469D69202383F31188AA6BF7
:1017F00004EA0203A3420DD029B90B4683F31188F2
:101800000C46204638BD09206C62FFF7A9F8002875
:1018100008DBAA6B22EA0402AA63002383F311887F
:10182000204638BD002383F311881C46F8E700BF2B
:10183000F8090020AFF30080AFF30080AFF3008021
:101840000E4B70B59C69202383F3118800F12C05A1
:101850006562067F036B25600C2E61636360046321
:101860001C6007D00A20FFF763F8606A002383F347
:10187000118870BDFFF74CF8F4E700BFF8090020AD
:1018800010B5202383F311880B4CA3691A4652F834
:101890002C0F904208D00168D9624A600B220023C5
:1018A000027783F3118810BD0C20FFF741F8A3697C
:1018B0001A4652F82C0FEEE7F8090020AFF300802B
:1018C00008B5202383F31188FFF76AF8002383F318
:1018D000118808BDAFF30080AFF30080AFF3008044
:1018E00038B504460B4601EB820500F11C00114699
:1018F000E360A36084E82800FFF7C2FA04F1100057
:101900000021BDE83840FFF7BBBA00BFAFF300804D
:1019100010B52023044683F3118803684168C3602F
:10192000CA1A9110A36000F11C00FFF7B1FA04F18C
:1019300010000021FFF7ACFAFFF7A2F8002383F3B1
:10194000118810BDAFF30080AFF30080AFF30080CB
:1019500070B504460E4600F11C001146FFF710FB5F
:10196000054678B9A368626843F8046B9342A360A4
:1019700028BF236804F1100028BFA360FFF748FBCD
:10198000FFF77EF8284670BDAFF30080AFF300800C
:1019900008B5202383F31188FFF7DAFF002383F3D0
:1019A000118808BDAFF30080AFF30080AFF3008073
:1019B000426A002A10B50FDD83684468013A42622A
:1019C00043F8041BA342836024BF03688360103084
:1019D000FFF71EFB002010BD4FF0FF3010BD00BF11
:1019E00070B504460E4600F11C001146FFF7C8FA18
:1019F000054660B9E3682268191F9142E16008D387
:101A000004F110000E60FFF703FBFFF739F82846DA
:101A100070BD6068011FE160F2E700BFAFF30080B6
:101A200008B5202383F31188FFF7DAFF002383F33F
:101A3000118808BDAFF30080AFF30080AFF30080E2
:101A4000426A002A10B510DDC3680468043B013AFD
:101A5000A3424262C36002D24368043BC3601030B9
:101A60001960FFF7D5FA002010BD4FF0FF3010BD10
:101A700070B504460E4600F110001146FFF780FADB
:101A8000054680B9E368626853F8041B93423160ED
:101A9000E36028BF236804F11C0028BFE360FFF760
:101AA000B7FAFEF7EDFF284670BD00BFAFF3008028
:101AB00008B5202383F31188FFF7DAFF002383F3AF
:101AC000118808BDAFF30080AFF30080AFF3008052
:101AD0008269002A10B510DDC3684468013A82614A
:101AE00053F8042BA3420A60C36024BF0368C36099
:101AF0001C30FFF78DFA002010BD4FF0FF3010BDF5
:101B000010B4024659B1084B9B69586244680D20D5
:101B100083E814005360236010BCFEF721BF4FF030
:101B2000FF3010BC704700BFF8090020AFF3008001
:101B300010B4C361019B40608A1800240060846077
:101B400041618161C1600261036210BC704700BFE6
:101B500038B50446C368006863610021A042A361F0
:101B6000A1600AD06FF00105026822605460FEF7A0
:101B7000CFFE45622068A042F6D138BDAFF30080A9
:101B8000426908B503468069824298681AD00130DC
:101B9000986002F8011B19695A618A420BD21868D1
:101BA00098420DD0016819604B60FEF7B1FE00232A
:101BB0004362184608BD1868DA6898425A61F1D144
:101BC000002008BD0028E2D06FF0030008BD00BF70
:101BD00070B5202304460E4683F31188C36903B110
:101BE0009847A568204631463DB9FFF789FF002890
:101BF000F7DA2B4683F3118870BDA1692269013D94
:101C0000A56011F8010B9142A16124BFE168A161B7
:101C1000002383F3118870BDAFF30080AFF3008021
:101C20002DE9F0471E460446C769202383F3118837
:101C30004FF0000801F1010901EB020A0FB1204643
:101C4000B847A568204631464DB9FFF759FF00282F
:101C5000F7D02B4683F311884046BDE8F087A3698F
:101C6000013DA56013F8012B09F8012C2069A3613F
:101C7000834224BFE368A361002383F31188D14525
:101C800008F10108E8D0202383F3118809F1010944
:101C9000D4E700BFAFF30080AFF30080AFF3008064
:101CA00010B4C361019B40608C1800608260416188
:101CB0008161C1600461036210BC7047AFF30080B2
:101CC00038B50269C368044600686361D11AA0424E
:101CD000A361A1600AD06FF00105036823605C6016
:101CE000FEF716FE45622068A042F6D138BD00BF5F
:101CF000F8B504460F461646202383F31188A568DD
:101D0000204631463DB9FFF7FBFE0028F7DA2B46A7
:101D100083F31188F8BD6369013DA56003F8017B79
:101D200022696361934228BFE368E16928BF636168
:101D300009B120468847002383F311881846F8BD6F
:101D4000826941699142034610B5806816D0441CEF
:101D50009C6012F8014B19699A618A420BD218688B
:101D6000984206D0016819604B60FEF7D1FD002350
:101D70004362204610BDDA689A61F0E70028E6D099
:101D80006FF0020010BD00BFAFF30080AFF3008022
:101D90002DE9F0479A46044688461646D0F81C902E
:101DA000202383F311880027A56820466B1EEDB120
:101DB000A360656918F8011B05F8011B22696561BC
:101DC000954224BFE2686261B9F1000F00D0C847B4
:101DD000002383F311880137013E10D0202383F3C1
:101DE0001188A56820466B1E002DE1D12046514682
:101DF000FFF786FE0028D7D02B4683F3118838469C
:101E0000BDE8F087AFF30080AFF30080AFF3008050
:101E100040F6182240F614234CF200010648C2F2A4
:101E20000002C2F20003C2F2010120F0070021F01B
:101E3000070110601960704747180020AFF3008059
:101E4000202383F31188094B09491A680968073070
:101E500020F00700891A88429ABF101818600022E3
:101E6000002383F311881046704700BF180A002032
:101E7000140A0020AFF30080AFF30080AFF30080BE
:101E800040F6142240F61823C2F20002C2F2000308
:101E900010681968401A7047AFF30080AFF30080F4
:101EA00040F62023C2F2000341F641610022C0F651
:101EB000000103F1100019609A60DA60FFF740B981
:101EC000002303608160C360083A10300B604A60F1
:101ED000FFF736B9AFF30080AFF30080AFF30080B7
:101EE000F8B5204E002818BF0646073106F110004D
:101EF00021F0070506F10804FFF792F900E01C46FF
:101F00002368FBB15A689542F9D805F1080191425E
:101F100015D84FF6F870CFF6FF70401B03EB010E9B
:101F200082181868CEF8042058505D60C4F800E0AC
:101F30001C4644F8086BFFF79BF92046F8BD19686A
:101F40002160F5E7FFF794F932684AB105F108001E
:101F5000904728B100F10804066045602046F8BDAE
:101F60000024EAE7200A0020AFF30080AFF30080EE
:101F700070B50646A0F1080450F8080C00F10805F9
:101F80001030FFF74DF92B46AB421A6801D0A3423F
:101F900002D21AB1944201D31346F5E756F8041C55
:101FA00046F8082C1C6001F1080256F8085CA018DD
:101FB000A84209D05A6802F1080019188C4211D0C1
:101FC000BDE87040FFF754B94068A25809180831BD
:101FD00046F8041C46F8082C5A6802F10800191843
:101FE0008C42EDD156F8040C56F8081C1218083231
:101FF00083E80600E4E700BFAFF30080AFF30080A2
:1020000038B50E4C002818BF044604F110000D46E8
:10201000FFF706F9A3686BB10022144658681B68E5
:1020200012180134002BF9D105B12A60FFF720F90D
:10203000204638BD1A461C46F6E700BF200A00209D
:102040000023036041608260704700BFAFF30080EF
:1020500070B4002A36D0013A02F00105202383F340
:102060001188046800230C60016083F311884368C1
:10207000C9183AB365B1202383F31188046800239B
:102080000C60016083F311884368013A194419D048
:10209000202383F31188046800230C60016083F31C
:1020A00011884568013A4C19202383F3118806688A
:1020B00000234E51046083F311884368013A04EB16
:1020C0000301E5D170BC7047AFF30080AFF300802F
:1020D00008B50246202383F31188006828B10168FF
:1020E0001160002383F3118808BD9368002BF8D09A
:1020F00050689847F5E700BFAFF30080AFF300806A
:10210000202383F31188026800230A60016083F3AF
:1021100011887047AFF30080AFF30080AFF3008009
:1021200041F23503C2F2000301221A70704700BF6A
:1021300038B50B4D4C24286803682D219A689047C8
:1021400028680168013C8B682D219847013CF2D139
:10215000034804490068026813680222984738BDA2
:102160006810002080A70008AFF30080AFF3008064
:10217000F0B585B0002837D00DF101054CF6CD46FD
:102180002B46CCF6CC46A6FB0012D40804EB840107
:10219000A0EB41003030C1B2204603F8011C1C46C0
:1021A00001330028EFD16A4694421BD9601BC30754
:1021B000114F11D5386803689A68904714F8021CCB
:1021C000013C09E0386814F8021C0368661E9A682E
:1021D000904716F8021C023C386803689A689047DA
:1021E000AC42EFD105B0F0BD034908680368302167
:1021F0009A689047F6E700BF68100020AFF30080B0
:1022000038B5017849B1054D0446286803689A68D5
:10221000904714F8011F0029F7D138BD681000203D
:1022200038B50178084D41B10446286803689A68BA
:10223000904714F8011F0029F7D128680349036863
:1022400002221B68984738BD6810002080A700084C
:10225000202383F3118841F23802C2F200020023E6
:10226000116801F8010B116083F31188704700BFFA
:1022700041B9054A054901231370054A0B701060E6
:102280001846704700207047341000203C10002092
:1022900030100020AFF30080AFF30080AFF3008078
:1022A000DFF874C0F0B4184FDCF80060F21BD207FE
:1022B0003B4614D5BE4217D911F8012B3C787B1C44
:1022C00094420CD016E01B7812F8015BAB4204F18B
:1022D00001030FD14D782478511CAC420AD19E42A3
:1022E0000A4603F10104EED80B781BB9CCF8007054
:1022F000184607E0054A064B01211170054A19707E
:1023000010600846F0BC70476C10002034100020AC
:102310003C1000203010002038100020AFF3008067
:1023200010B5044608461146FEF79AFA40B9054A28
:10233000054806490123037013700C60184610BD50
:10234000002010BD341000203C1000203010002070
:1023500010B50C4C206808B1FEF752FC606808B15B
:10236000FEF74EFCA06808B1FEF74AFCE06808B131
:10237000FEF746FC206918B1BDE81040FEF740BCEE
:1023800010BD00BF54100020AFF30080AFF30080F9
:1023900010B5124C206818B1FEF7AAFC0023236088
:1023A000606820B1FEF7A4FC0C4800224260A068DF
:1023B00020B1FEF79DFC094B00219960E06820B137
:1023C000FEF796FC05480022C260206920B1FEF7A6
:1023D0008FFC024B0021196110BD00BF541000207A
:1023E000104B30B49C694FF47A7101FB00F0226A03
:1023F00044F6D355431EC1F26205501CA5FB0351A0
:1024000000EB9115AA42236A03D29A4203D930BC49
:1024100070479A42F6D99D4294BF00230123002BB6
:10242000F0D1F4E7F8090020AFF30080AFF30080AB
:1024300008B50120FEF7F4FB40F6E813C2F20003F2
:10244000D86808BDAFF30080AFF30080AFF3008021
:1024500041F23503C2F2000310B500241C702023A2
:1024600083F311884FF47A7101FB00F044F6D352E4
:102470000138C1F26202A2FB0023990941F2400037
:1024800042F221122346C2F200000131C0F60002DE
:10249000FEF7AEF9234683F3118810BDAFF3008039
:1024A0002DE9F04F9C4C9D4D206083B09C48FFF778
:1024B000B7FE9C48FFF7B4FE9B48FFF7B1FE2A2108
:1024C000206803689A68904715F8011F0029F7D122
:1024D0009648974EFFF7A4FE2A2120680768BD683A
:1024E000A84716F8011F0029F7D19248924EFFF72E
:1024F00097FE2A21206803689A68904716F8011F02
:102500000029F7D18D488E4FFFF78AFE2A212068D7
:102510000568AE68B04717F8011F0029F7D1894850
:10252000894FFFF77DFE2A21206803689A6890474B
:1025300017F8011F0029F7D18448854DFFF770FE79
:102540002A2120680668B768B84715F8011F0029D6
:10255000F7D18048804DFFF763FE2A212068036889
:102560009A68904715F8011F0029F7D17B487C4EE7
:10257000FFF756FE2A2120680768BD68A84716F8AD
:10258000011F0029F7D1774B774800910193FFF79E
:1025900047FE6348754EDFF80C92754FFFF740FE1B
:1025A00041F23C000099C2F200008A4601700AF133
:1025B000010A4FF0000857F8042B002A00F084802D
:1025C0006C4DFFF7B5FD2D21206802689368984790
:1025D00015F8011F0029F7D15046FFF7C9FD4E49F4
:1025E000654D086802682E21936808F10108984734
:1025F0004046FFF7BDFD2021206802689368984798
:1026000015F8011F0029F7D157F8040C056829783F
:1026100039B1206802689368984715F8011F0029AE
:10262000F7D15648564DFFF7FBFDC820FEF7F8FAE4
:10263000544957F804BCC6F8009000200860486070
:102640008860C8600861DBF80420287002B19047F8
:10265000DBF80C309847DBF8081001B18847FFF72A
:1026600097FE2D78002D00F09F80474D2D2120688A
:1026700002689368984715F8011F0029F7D143486D
:10268000434D0068FFF774FD2021206802689368BD
:10269000984715F8011F0029F7D1316849450BD932
:1026A0003C4D206815F8011C026893689847306813
:1026B000294601358142F4D33748FFF7B1FD57F879
:1026C000042B002A7FF47CAF019D55F8047F01950F
:1026D000002F7FF46CAFFFF72BFD304D1048FFF754
:1026E0009FFD4621206803689A68904715F8011FEE
:1026F0000029F7D141F23C01C2F20001087800281C
:1027000056D12748FFF78CFD41F23C03C2F200038B
:10271000187803B0BDE8F08F68100020109800080A
:102720003CA80008F09700080C9800087098000872
:102730008098000894980008AC980008C098000899
:10274000089900081C990008289900083C9900087D
:10275000489900085C990008749900088899000855
:10276000A4990008009A0008B899000838100020C1
:10277000709A000824980008E0990008349800082E
:102780003410002054100020389800083010002029
:10279000E49900086D10002050980008E89900089E
:1027A000609800086C1000200348FFF739FD02E72D
:1027B0000248FFF735FDA7E754980008689800081D
:1027C000F8B54D4EB3699C68651C2846FEF7F0F9D4
:1027D000021B5142514107460120FFF749FD00B15C
:1027E000F8BDB06983680220EA1A51425141FFF7EF
:1027F0003FFD0028F4D13846FEF7DAF9B5EB000CBE
:10280000DCF1000050EB0C010320FFF731FD002844
:10281000E6D1B3699A680420B2EB040EDEF1000140
:1028200051EB0E01FFF724FD0028D9D1202383F3BB
:102830001188B769BB689A1CBA60034683F3118894
:10284000B0698168A71C0520CB1B5A4252EB0301DB
:10285000FFF70EFD0028C3D12846FEF7A9F9001B9B
:10286000414241410620FFF703FD0028B8D1B3697A
:102870009A680720B7EB020CDCF1000151EB0C0168
:10288000FFF7F6FC0028ABD1B069036C0820B5EB6C
:10289000030EDEF1000252EB0E01FFF7E9FC002807
:1028A0009ED1E71C3846FEF783F9281A4142414180
:1028B0000920FFF7DDFC002892D1B3699A680A204D
:1028C000BB1A59425941FFF7D3FC002888D1B0699F
:1028D000026C0B20BB1A59425941FFF7C9FC002872
:1028E0007FF47EAF202383F31188B16903468C60A7
:1028F0000C6483F3118873E7F8090020AFF30080BC
:10290000F0B540F6F817C2F2000749F2D076BB697D
:1029100083B0C0F600069A68706842F6E1254AF670
:102920009C31C0F60005C0F60001043A2B46009128
:102930004FF49871FEF724F9BC693168A36841F23D
:102940005404C2F200045A1F606049F6A020C0F689
:1029500000002B46009008464FF49871FEF710F9DE
:10296000BA6931699368206049F69020C0F600008A
:102970005A1E00902B4608464FF49871FEF700F956
:10298000BA69F1689268206149F69420C0F60000A7
:102990002B460090023A08464FF49871FEF7F0F883
:1029A0002023E06083F31188BB69B0689A6849F618
:1029B0009821C0F600012B460091033A4FF498711C
:1029C000FEF7A6F80023A06083F31188A068FEF745
:1029D00007F9FFF7DDFC49F69C210120C0F6000154
:1029E00003B0BDE8F040FFF75BBC00BFAFF3008071
:1029F0002DE9F04140F6F818C2F2000849F2D0760D
:102A0000D8F8183082B0C0F600069A68306842F6EE
:102A1000E12549F6A024C0F60005C0F60004053AF9
:102A20002B4600944FF49871FEF7AAF841F2540433
:102A3000C2F20004D8F8181077688B6820604AF654
:102A40009C30C0F600001A1F00902B464FF498717E
:102A50003846FEF795F8D8F81820B7689368606094
:102A600049F69820C0F60000DA1E00902B464FF47D
:102A700098713846FEF784F8D8F81810F7688A6815
:102A8000A06049F69420C0F60000023A2B46009060
:102A90004FF498713846FEF773F8D8F81830366955
:102AA0009A68E06049F69020C0F600004FF49871F3
:102AB000013A2B4600903046FEF762F82061FFF79E
:102AC00067FC49F69C210120C0F6000102B0BDE878
:102AD000F041FFF7E5BB00BFAFF30080AFF300802C
:102AE00008B50078FFF7B4FB002008BDAFF3008005
:102AF00038B51C4DFFF79CFCEC686420FEF790F89D
:102B0000012004F1640104F16502FFF709FC00B142
:102B100038BDEC686420FEF783F8022004F16401FC
:102B200004F16502FFF7FCFB0028F1D1EC684FF4DB
:102B30007A70FEF775F8032004F57A7104F2E93231
:102B4000FFF7EEFB0028E3D1EC6804F164052846AA
:102B5000FEF776F80420294604F16502BDE8384006
:102B6000FFF7DEBBE8090020AFF30080AFF3008081
:102B700040F60000C2F200000021FEF781B900BF5C
:102B800040F60000C2F200000021FEF779B900BF54
:102B900040F60000C2F200000021FEF771B900BF4C
:102BA00000B587B0002103A8FEF76AF9002103A849
:102BB000FEF7A6F9059901200029CCBF00210121CB
:102BC000FFF756FB08B107B000BD304B9869304B9A
:102BD0008268304803A9013A009100684FF4987167
:102BE000FDF7CEFF2C4B186003A8FEF7B9F9059945
:102BF00002200029CCBF00210121FFF739FB00286A
:102C0000E1D1202383F31188059A002A36DDFDF7F0
:102C100037FF002383F31188059903209942D4BF1D
:102C200000210121FFF724FB0028CCD105990420C5
:102C30004B1E5A4252EB0301FFF71AFB0028C2D188
:102C4000202383F31188059800281BDDFDF718FF6A
:102C5000002383F31188059903209942D4BF0021F2
:102C60000121FFF705FB0028ADD1059905204B1E7A
:102C70005A4252EB0301FFF7FBFAA4E703A8FEF761
:102C8000C7F9C4E703A8FEF7C3F9DFE7F809002096
:102C9000A12C0008D097000854100020AFF300804A
:102CA00008B5202383F311888368002B06DDFDF728
:102CB000E7FE002383F31188184608BDFEF7A8F944
:102CC000F5E700BFAFF30080AFF30080AFF3008003
:102CD00010B540F60004C2F200042046FEF740F9A9
:102CE0002046FEF77DF9002010BD00BFAFF3008045
:102CF00010B5044640F60000C2F20000FEF730F9BD
:102D00002078FFF7A5FA002010BD00BFAFF30080C8
:102D100008B53220FDF784FF202383F3118840F6A5
:102D20000000C2F20000FEF773F9FDF7A9FE0023D0
:102D300083F31188184608BDAFF30080AFF300801D
:102D40002DE9F043DFF84081454CD8F8183026686B
:102D50009A68444F444B454D85B04FF49871053205
:102D600000973046FDF70CFFD8F8181063688A68A2
:102D700028603F4803934FF4987101323A4B00901A
:102D80000398FDF7FDFED8F81810A2688B686860FC
:102D9000384803924FF49871DA1C0090324B039834
:102DA000FDF7EEFED8F81810E2688B68A86032488C
:102DB00003924FF498711A1D00902B4B0398FDF766
:102DC000DFFED8F8181024698A68E8602B48264B83
:102DD00000904FF4987102322046FDF7D1FE284C46
:102DE00028612046FEF7FCF82046FEF7F9F8204659
:102DF000FEF7F6F82046FEF7F3F82046FEF7F0F867
:102E0000FFF7C6FA01201F49FFF74AFA814610B1C1
:102E100005B0BDE8F083D8F81810134B8A68009706
:102E200030464FF498710532FDF7AAFE2023286042
:102E300083F3118802212046FEF7FAF84B4683F30C
:102E40001188FFF7A5FAA3680220B3F1010EDEF1A5
:102E5000000151EB0E0105B0BDE8F043FFF708BAE1
:102E6000D0970008909A0008F12C00085410002018
:102E7000949A0008989A00089CAB0008A09A000851
:102E8000000800209C9A0008F8090020AFF3008099
:102E900010B5224B224C9869224B826882B00020E8
:102EA0000090214801324FF498710068FDF768FEE8
:102EB0001E4B214618602046FEF70AF921680120C2
:102EC0000A1B534253EB0201FFF7D2F908B102B0DB
:102ED00010BDA1680220D1F1010138BF0021FFF728
:102EE000C7F90028F3D121462046FEF7F1F8226801
:102EF0000320B2EB040CDCF1000353EB0C01FFF7F1
:102F0000B7F90028E3D1A1680420D1F1010138BF4D
:102F1000002102B0BDE81040FFF7AAB9F80900206F
:102F200000080020D12C0008D09700085410002081
:102F300070B5A04C002182B02046FEF741F8B0F1F8
:102F4000FF33594259410120FFF792F908B102B00D
:102F500070BD22680220B2EB040CDCF1000353EBDD
:102F60000C01FFF785F90028F1D1A1680320D1F108
:102F7000010138BF0021FFF77BF90028E7D18E4D12
:102F80008E4BAA69916800908D484A1E00684FF4E4
:102F90009871FDF7F5FD8B4B4FF4FA7118602046E0
:102FA000FEF70EF80546FFF7F3F90420D5F101010D
:102FB00038BF0021FFF75CF90028C8D1226805203E
:102FC000B2EB040EDEF1000151EB0E01FFF750F9F8
:102FD0000028BCD1A3680620D3F1010138BF00212D
:102FE000FFF746F90028B2D1774EFFF721FA4120CA
:102FF000F668FFF72DF94FF4FA712046FDF7E0FF70
:10300000B0F1FF30424252EB00010720FFF730F9E8
:1030100000289CD1216808200B1B5A4252EB030167
:10302000FFF726F9002892D1A1680920D1F101010A
:1030300038BF0021FFF71CF9002888D14220FFF794
:1030400007F94FF4FA712046FDF7BAFFB0F1FF3CE3
:10305000DCF1000050EB0C010720FFF709F9002814
:103060007FF475AF23680820B3EB040EDEF1000295
:1030700052EB0E012546FFF7FBF800287FF467AFFF
:10308000A1680920D1F1010138BF0021FFF7F0F854
:1030900000287FF45CAF4320FFF7DAF84FF4FA71B1
:1030A0002046FDF78DFFB0F1FF30434253EB0001A6
:1030B0000720FFF7DDF800287FF449AF22680820D9
:1030C000131B59425941FFF7D3F800287FF43FAF53
:1030D000A2680920D2F1010138BF0021FFF7C8F82A
:1030E00000287FF434AF4420FFF7B2F84FF4FA71B0
:1030F0002046FDF765FFB0F1FF3CDCF1000050EB2E
:103100000C010720FFF7B4F800287FF420AF2368F4
:103110000820B3EB040EDEF1000151EB0E01FFF7C6
:10312000A7F800287FF413AFA2680920D2F10101AB
:1031300038BF0021FFF79CF800287FF408AF452036
:10314000FFF786F84FF4FA712046FDF739FFB0F12A
:10315000FF30434253EB00010720FFF789F80028B6
:103160007FF4F5AE216808200A1B534253EB02019D
:10317000FFF77EF800287FF4EAAEA1680920D1F1BC
:10318000010138BF0021FFF773F800287FF4DFAE9C
:103190000A200E49FFF784F800287FF4D8AE0B20F0
:1031A00006F6C41106F6C91202B0BDE87040FFF77A
:1031B000B7B800BF00080020F8090020112D000852
:1031C000D097000854100020E80900209C9A0008BD
:1031D000F0B540F6F813C2F2000349F2D0759969D0
:1031E00083B08E68C0F6000549F69024C0F600044E
:1031F00043F2F123721C009428684FF49871C0F6D2
:103200000003FDF7BDFC41F25404C2F200046F68F4
:10321000206049F69820C0F6000043F2C123B21C9A
:1032200000904FF49871C0F600033846FDF7A8FCF3
:10323000AD68606049F69420C0F6000043F2812337
:103240004FF49871F21CC0F6000300902846FDF779
:1032500097FC40F62C05C2F20005A0602846FEF758
:1032600097F82846FEF794F8FFF792F849F62041C0
:103270000120C0F6000103B0BDE8F040FFF710B830
:1032800010B5044640F61C00C2F20000FDF7C8FF6E
:103290002078FEF7DDFFFDF7EBFF002010BD00BF3B
:1032A00010B5044640F60C00C2F20000FDF7B8FF6E
:1032B0002078FEF7CDFFFDF7DBFF002010BD00BF3B
:1032C00010B5044640F60C00C2F20000FDF7A8FF5E
:1032D00040F62C00C2F20000FEF7D2F82078FEF78C
:1032E000B7FFFDF7C5FF002010BD00BFAFF30080A2
:1032F00010B5044640F61C00C2F20000FDF790FF36
:1033000040F60C00C2F20000FDF78AFF40F62C00E8
:103310004FF0FF31C2F20000FEF7EAF82078FEF726
:1033200097FFFDF7A5FFFDF7A3FF002010BD00BF2D
:1033300040F62C0008B5C2F20000FEF721F840F676
:103340000C00C2F20000FDF7FBFE40F61C00C2F2CA
:103350000000BDE80840FDF7F3BE00BFAFF30080FA
:1033600008B540F62C00C2F20000FEF709F840F65E
:103370000C00C2F20000BDE80840FDF7E1BE00BF4E
:1033800008B540F62C00C2F20000FDF7F9FF40F648
:103390000C00C2F20000BDE80840FDF7D1BE00BF3E
:1033A00040F60C00C2F20000FDF7CABEAFF3008089
:1033B00008B540F60C00C2F20000FDF7C1FE40F671
:1033C0001C00C2F20000BDE80840FDF7B9BE00BF16
:1033D00008B540F60C00C2F20000FDF7B1FE40F661
:1033E0001C00C2F20000BDE80840FDF7A9BE00BF06
:1033F00040F60C00C2F20000FDF7A2BEAFF3008061
:1034000040F60C00C2F20000FDF79ABEAFF3008058
:10341000F0B540F6F813C2F2000349F2D07699698C
:1034200083B08F68C0F6000643F2C12549F6A02498
:10343000C0F60005C0F600047A1C2B4600943068E4
:103440004FF49871FDF79CFB41F25404C2F2000462
:10345000BA1C20604AF69C30C0F600002B46009053
:103460004FF498717068FDF78BFB606049F6982007
:10347000C0F60000FA1C2B4600904FF49871B0681B
:10348000FDF77EFBA06049F69420C0F600003A1DCF
:103490002B4600904FF49871F068FDF771FB366988
:1034A000E06049F69020C0F600004FF498717A1D54
:1034B0002B4600903046FDF763FB206140F62C0060
:1034C000C2F20000FDF7A4FFFEF762FF49F69C215F
:1034D0000120C0F6000103B0BDE8F040FEF7E0BEF9
:1034E000F0B540F6F813C2F2000349F2D0769969BC
:1034F00083B08F68C0F6000643F2C12549F6A024C8
:10350000C0F60005C0F600047A1C2B460094306813
:103510004FF49871FDF734FB41F25404C2F20004F9
:10352000716820604AF69C30C0F60000BA1C2B4639
:10353000009008464FF49871FDF722FBB168606077
:1035400049F69820C0F60000FA1C2B460090084669
:103550004FF49871FDF714FBF168A06049F69420D0
:10356000C0F600003A1D2B46009008464FF49871B3
:10357000FDF706FB3269E06049F69021C0F60001D4
:103580002B46009110464FF498717A1DFDF7F8FA1A
:103590002023206183F3118840F62C04C2F200043A
:1035A0002046FDF70DFF2046FDF70AFF2046FDF7F8
:1035B00007FF2046FDF704FF2046FDF701FFFDF75A
:1035C0005FFA002383F31188FEF7E2FE49F69C219F
:1035D0000120C0F6000103B0BDE8F040FEF760BE78
:1035E000F0B52C4F2C48BB692C4E9C682C4D85B0F7
:1035F000FDF716FE2B4A30682B4B00924FF4987162
:10360000621CFDF7BDFA7168286028480391A21C6E
:103610004FF49871244B00900398FDF7B1FAB3680A
:10362000686023480393E21C4FF498711E4B00908E
:103630000398FDF7A5FAF268A8601E4803924FF4BC
:103640009871221D184B00900398FDF799FA36697E
:10365000E8601948144B00904FF49871621D304691
:10366000FDF78EFA2861FDF703FEFEF791FEB969BA
:103670008B6801201A1B51425141FEF7F9FD08B138
:1036800005B0F0BD0D49022005B0BDE8F040FEF7E1
:1036900007BE00BFF80900200C080020D0970008E2
:1036A00054100020A09A0008A13200089CAB00082A
:1036B000989A0008949A0008909A00089C9A00082A
:1036C000F8B52E4D2E4CAB6920469E68FDF7B8FD2F
:1036D00001460120FEF7CCFD00B1F8BD2046FDF704
:1036E000AFFD80F00101C9B20220FEF7C1FD07461F
:1036F0000028F2D1202383F31188FDF7E9FD3B4632
:1037000083F3118822680320B2EB040CDCF1000380
:1037100053EB0C01FEF7ACFD0028DED1A1680420BC
:10372000D1F1010138BF0021FEF7A2FD0028D4D15C
:10373000A86982680520B2EB060EDEF1000353EBA8
:103740000E01FEF795FD0028C7D12046FDF768FD64
:10375000FDF7E6FD216806200A1B534253EB0201E8
:10376000FEF786FD0028B8D1A1680720D1F101013C
:1037700038BF0021BDE8F840FEF77ABDF809002007
:103780000C080020AFF30080AFF30080AFF300809F
:103790002DE9F0468C4D8D4EAB6932689C688C48A3
:1037A0008C4B8D4F85B004F10109039200904FF4CA
:1037B00098714A460398FDF7E3F9766838608748C0
:1037C000874B009004F1020A4FF49871524630463C
:1037D000FDF7D6F978608348FDF722FDA9698B686B
:1037E00001201A1B51425141FEF742FD10B105B0B4
:1037F000BDE8F0866420FDF713FAA869836802200B
:10380000B3EB090251425141FEF732FD0028EED1DF
:103810007548FDF705FDA86983680320B3EB090C23
:10382000DCF1000252EB0C01FEF722FD0028DED194
:103830006420FDF7F5F9A9698B680420B3EB0A0E43
:10384000DEF1000252EB0E01FEF712FD0028CED190
:10385000FDF70EFDA86981680520B1EB09035A4206
:1038600052EB0301FEF704FD0028C0D16420FDF7F0
:10387000D7F9A86981680620B1EB09035A4252EBD7
:103880000301FEF7F5FC0028B1D1FDF749FDA86959
:1038900081680720B1EB040CDCF1000353EB0C0151
:1038A000FEF7E6FC0028A2D1FEF772FD4F4A494B15
:1038B00000924FF498714A460398FDF761F9386019
:1038C0004B48474B00904FF4987152463046FDF7F5
:1038D00057F978604348FDF7A3FCA9698B68082075
:1038E000B3EB040EDEF1000252EB0E01FEF7C0FC5A
:1038F00000287FF47CAF6420FDF792F9A869816805
:103900000920B1EB09035A4252EB0301FEF7B0FC68
:1039100000287FF46CAF3448FDF782FCA869816809
:103920000A20B1EB09035A4252EB0301FEF7A0FC57
:1039300000287FF45CAF6420FDF772F9AE69B168CE
:103940000B20B1EB0A0CDCF1000353EB0C01FEF78A
:103950008FFC064600287FF44AAF202383F31188AA
:10396000FDF7B6FC334683F31188A86982680C2002
:10397000B2EB090EDEF1000151EB0E01FEF778FC0F
:1039800000287FF434AF6420FDF74AF9AB699A68E8
:103990000D20B2EB090359425941FEF769FC00289A
:1039A0007FF425AFFDF7BCFCA86982680E20131BCD
:1039B00059425941FEF75CFC00287FF418AF05B06E
:1039C000BDE8F046FEF7E4BCF8090020D0970008F7
:1039D000949A0008213A000854100020909A000898
:1039E000013A00081C0800200C0800209CAB0008CD
:1039F000989A0008AFF30080AFF30080AFF3008027
:103A000008B59620FDF70CF940F60C00C2F2000054
:103A1000FDF706FCFDF72CFC002008BDAFF300808D
:103A200008B53220FDF7FCF840F61C00C2F2000099
:103A3000FDF7F6FBFDF71CFC002008BDAFF300808E
:103A40002DE9F041304EDFF8E480304C84B0FEF7D1
:103A5000EFFCB3692E499A68CF682E4BD8F8000066
:103A600000254FF49871053A0095FDF789F8B36980
:103A7000D8F804209B68039220601A1F4FF49871B5
:103A8000254B00950398FDF77BF8B169D8F808201D
:103A90008B6803926060DA1E4FF498711F4B00959B
:103AA0000398FDF76DF8B169D8F80C208B68039284
:103AB000A0609A1E4FF49871194B00950398FDF77A
:103AC0005FF8B169D8F810608A68164BE0604FF46F
:103AD0009871013A00953046FDF752F82061FEF7E3
:103AE00057FC01201049FEF7DBFB10B104B0BDE824
:103AF000F081022007F16E0107F1730204B0BDE806
:103B0000F041FEF70DBC00BFF80900205410002062
:103B1000E8090020B13C0008613C0008313C000885
:103B2000113C0008E13B00089C9A0008D09700086F
:103B30002DE9F041224EDFF8A480224C84B0FEF73C
:103B400077FCB36920499A68CF68204BD8F8000009
:103B500000254FF49871013A0095FDF711F8B3690B
:103B6000D8F804209B68039220609A1E4FF4987145
:103B7000174B00950398FDF703F8B169D8F8086072
:103B80008A68144B60604FF49871033A0095304690
:103B9000FCF7F6FFA060FEF7FBFB01200E49FEF7E5
:103BA0007FFB10B104B0BDE8F081022007F1640191
:103BB00007F1690204B0BDE8F041FEF7B1BB00BFF8
:103BC000F809002054100020E8090020313D0008C9
:103BD000113D0008E13C0008209C0008D097000837
:103BE00008B53220FDF71CF840F61C00C2F20000B8
:103BF000FDF716FB0A20FEF7F3FBFDF739FB41202A
:103C0000FEF726FB002008BDAFF30080AFF3008075
:103C100008B52820FDF704F81420FEF7E1FB422048
:103C2000FEF716FB002008BDAFF30080AFF3008065
:103C300008B51420FCF7F4FF40F61C00C2F20000A7
:103C4000FDF7EEFA0A20FEF7CBFBFDF711FB432050
:103C5000FEF7FEFA002008BDAFF30080AFF300804E
:103C600008B50A20FCF7DCFF40F61C00C2F2000099
:103C7000FDF7D6FA1420FEF7B3FB40F60C00C2F2B3
:103C80000000FDF7CDFA0A20FEF7AAFBFDF7F0FAD7
:103C90000A20FEF7A5FBFDF7EBFA4420FEF7D8FA61
:103CA000002008BDAFF30080AFF30080AFF30080C9
:103CB00040F60C0008B5C2F20000FDF7B1FA1E2074
:103CC000FEF78EFBFDF7D4FA4520FEF7C1FA00207F
:103CD00008BD00BFAFF30080AFF30080AFF30080FA
:103CE00040F60C0008B5C2F20000FDF799FA282052
:103CF000FEF776FBFDF7BCFA0A20FEF771FB4320C6
:103D0000FEF7A6FA002008BDAFF30080AFF30080F5
:103D100008B51420FCF784FF2820FEF761FB422041
:103D2000FEF796FA002008BDAFF30080AFF30080E5
:103D300008B52820FCF774FF40F60C00C2F2000022
:103D4000FDF76EFA0A20FEF74BFBFDF791FA4120D2
:103D5000FEF77EFA002008BDAFF30080AFF30080CD
:103D600010B540F6F812C2F2000249F2D073916920
:103D7000C0F6000382B08C681868009143F6F153D6
:103D8000C0F60003621C4FF49871FCF7F9FE41F293
:103D90005402C2F200021060FDF772FD446B21462E
:103DA000FDF78EFDE0B2FEF753FAFDF769FD446BB7
:103DB0002146FDF785FDE0B2FEF74AFAFDF760FD0A
:103DC000446B2146FDF77CFDE0B2FEF741FA49F66F
:103DD00020410120C0F6000102B0BDE81040FEF70E
:103DE0005FBA00BFAFF30080AFF30080AFF3008095
:103DF00010B541210446FDF723FD42212046FDF781
:103E00001FFD20464321FDF71BFD002010BD00BF14
:103E1000F0B57D4C616A01204B1F5A4283B052EBD2
:103E20000301FEF725FA002845D1422120464FF034
:103E3000FF32FDF7ADFDD0F1010138BF00210220B6
:103E4000FEF716FAB8BB432120464FF0FF32FDF7CC
:103E50009FFDD0F1010138BF00210220FEF708FAD2
:103E600048BB442120464FF0FF32FDF791FDD0F1D1
:103E7000010138BF00210220FEF7FAF9D8B9452127
:103E800020464FF0FF32FDF783FDD0F1010138BF2E
:103E900000210220FEF7ECF968B9412120464FF0DD
:103EA000FF32FDF7BDFDD0F1010138BF0021032035
:103EB000FEF7DEF908B103B0F0BD5821012220461B
:103EC000FDF766FDB0F1FF3CDCF1000050EB0C01AA
:103ED0000420FEF7CDF905460028ECD1202383F31A
:103EE000118858212046FDF763FD2B46014683F3D8
:103EF00011880520B1F1FF3EDEF1000353EB0E0106
:103F0000FEF7B6F90028D6D1582101222046FDF748
:103F100087FDB0F1FF356A4252EB05010620FEF73E
:103F2000A7F905460028C6D1202383F3118858211C
:103F30002046FDF785FD2B46014683F311880720B7
:103F4000B1F1FF335A4252EB0301FEF791F9002819
:103F5000B1D1202383F31188676A0820D7F10101CA
:103F600038BF0021FEF784F92646074618B1002322
:103F700083F311889FE7034683F31188202383F39B
:103F80001188A5690920B5F1050CDCF1000151EBA0
:103F90000C01FEF76DF9054618B13B4683F3118815
:103FA00089E7034683F31188202383F31188A368EC
:103FB000E2680A20B2EB030EDEF1000151EB0E01C4
:103FC000FEF756F90346D0B983F31188052605E0BC
:103FD0009DF80400FEF73CF9013E17D00A4D01A9F7
:103FE0004FF0FF322846FDF763FDD0F1010138BFE5
:103FF00000210B20FEF73CF90028E9D05BE72B46B7
:1040000083F3118857E700BF340800200C20C8490B
:10401000FEF746F900287FF44EAF472128464FF0BF
:10402000FF32FDF7B5FCD0F1010138BF00210D20B2
:10403000FEF71EF900287FF43EAF01A928464FF095
:10404000FF32FDF735FDD0F1010138BF00210E2010
:10405000FEF70EF900287FF42EAF2A68AB680F2018
:10406000D21A51425141FEF703F900287FF423AFE1
:104070002A68EB681020D21A51425141FEF7F8F835
:1040800000287FF418AF01A901222846FDF710FD92
:10409000B0F1FF30434253EB00011120FEF7E8F886
:1040A00000287FF408AF202383F31188284601A954
:1040B000FDF70EFD3346024683F311881220B2F15C
:1040C000FF3CDCF1000151EB0C01FEF7D1F80028B8
:1040D0007FF4F1AE202383F311886B6A13205A1FFB
:1040E00051425141FEF7C4F8002383F311880028A0
:1040F0007FF4E1AE202383F31188A5698D4C142051
:10410000D5F1010138BF0021FEF7B2F805460028BD
:104110007FF42DAF034683F31188202383F31188A6
:10412000A368E2681520D21A51425141FEF7A0F867
:10413000034600287FF463AF83F31188202383F3C1
:10414000118841212046FDF733FCD0F1010138BF31
:1041500000211620FEF78CF800287FF4ACAE422137
:104160002046FDF725FCD0F1010138BF00211720C2
:10417000FEF77EF800287FF49EAE43212046FDF72F
:1041800017FCD0F1010138BF00211820FEF770F8AC
:1041900000287FF490AE44212046FDF709FCD0F1C1
:1041A000010138BF00211920FEF762F805460028FA
:1041B0007FF481AE20464521FDF7FAFB2B460246EF
:1041C00083F311881A20D2F1010138BF0021FEF7D4
:1041D0004FF800287FF46FAEE168A3681B20B1EBB5
:1041E000030EDEF1000252EB0E01FEF741F800284B
:1041F0007FF461AE0525202383F311884D4C01A97E
:104200002046FDF765FC0023014683F311881C203E
:10421000CB1A5A4252EB0301FEF72AF800287FF42A
:104220004AAE9DF80400FEF713F8013DE3D11D20CE
:104230003F49FEF735F800287FF43DAE202383F395
:104240001188616A1E204B1F5A4252EB0301FEF790
:104250000FF82B4683F3118800287FF42CAE20231F
:1042600083F31188A1691F20D1F1010138BF00211A
:10427000FDF7FEFF2B4683F3118800287FF41BAE69
:10428000E268A3682020D21A51425141FDF7F0FFA5
:1042900000287FF410AE202383F3118845212046A7
:1042A000FDF7CEFBD0F1010138BF00212120FDF741
:1042B000DFFF00287FF4FFAD44212046FDF7C0FB5F
:1042C000D0F1010138BF00212220FDF7D1FF0028E5
:1042D0007FF4F1AD43212046FDF7B2FBD0F101019F
:1042E00038BF00212320FDF7C3FF00287FF4E3AD92
:1042F00042212046FDF7A4FBD0F1010138BF002187
:104300002420FDF7B5FF00287FF4D5AD094C4121ED
:104310002046FDF795FB0023024683F311882520F4
:10432000B2EB030CDCF1000353EB0C0104E000BF23
:104330009C9A000834080020FDF79AFF00287FF4BB
:10434000BAADE168A2682620B1EB020EDEF10003EF
:1043500053EB0E01FDF78CFF00287FF4ACAD052474
:10436000202383F311884A4D01A92846FDF7B0FBAD
:104370000023014683F311882720CA1A534253EBC6
:104380000201FDF775FF00287FF495AD9DF804004C
:10439000FDF75EFF013CE3D128203E49FDF780FF99
:1043A00000287FF488AD202383F31188696A2920CF
:1043B0004A1F534253EB0201FDF75AFF234683F392
:1043C000118800287FF477AD202383F31188A96931
:1043D0002A20D1F1010138BF0021FDF749FF234612
:1043E00083F3118800287FF466ADEA68AB682B2060
:1043F000B2EB030CDCF1000151EB0C01FDF738FFCF
:1044000000287FF458AD2846FDF782FA202383F375
:1044100011886A6A2C20B2F1050EDEF1000353EB1D
:104420000E01FDF725FF234683F3118800287FF452
:1044300042AD202383F31188A9692D20D1F1010118
:1044400038BF0021FDF714FF234683F311880028AD
:104450007FF431AD202383F31188AB682A682E20C6
:10446000D21A51425141FDF703FF234683F31188CD
:1044700000287FF420AD202383F311882A68EB689D
:104480002F20D21A51425141FDF7F2FE6FE500BFD5
:10449000340800209C9A0008AFF30080AFF300803E
:1044A00040F6340040F64021C2F20000C2F20001A2
:1044B0000522FDF715BA00BFAFF30080AFF300800F
:1044C0004FF0FF30FDF754B8AFF30080AFF300803A
:1044D0004FF0FF30FDF74CB8AFF30080AFF3008032
:1044E0004FF0FF30FDF744B8AFF30080AFF300802A
:1044F0002DE9F04205208CB0FDF752F84FF0FF3067
:10450000FDF7BEF80138414241410120FDF7B0FE00
:1045100010B10CB0BDE8F0824FF0FF30FDF7B0F8FD
:10452000021F534253EB02010220FDF7A1FE0028B7
:10453000EFD14FF0FF30FDF71BF8D0F1010138BF8C
:1045400000210320FDF794FE0028E2D1744D754F41
:10455000754EFDF76DFF7549AC690A68A068039256
:104560004FF49871421E724B00940398FC68FCF75C
:1045700007FB30604FF0FF30FDF782F804F13201A5
:10458000814604F137020420FDF7CAFE0028C0D19D
:104590000520B9F1010359425941FDF769FE002890
:1045A000B7D14FF0FF30FCF7E3FFD0F1010138BF86
:1045B00000210620FDF75CFE0028AAD1FDF7E8FEE9
:1045C0000520FCF7EDFF4FF0FF30FDF779F8B0F173
:1045D000050CDCF1000050EB0C010720FDF748FE54
:1045E000002896D14FF0FF30FCF7C2FFD0F1010157
:1045F00038BF00210820FDF73BFE002889D1FDF7D8
:1046000017FFAC694A4BA268039800944FF4987165
:10461000013AFC68FCF7B4FA30604FF0FF30FDF768
:104620004FF804F13201814604F137020920FDF709
:1046300077FE00287FF46DAF0A20B9F1010EDEF19C
:10464000000353EB0E01FDF713FE00287FF461AF6A
:104650004FF0FF30FCF78CFFD0F1010138BF002193
:104660000B20FDF705FE00287FF453AFDFF8D09054
:10467000304CFDF78DFE484604A90122C9F8009090
:104680002460FCF745FF08A904222046FCF740FF00
:10469000FDF7CEFEAD692849A868284B0091421E5F
:1046A0004FF498710398FD68FCF76AFA30600520B2
:1046B000FDF726F80C2005F1320105F13702FDF770
:1046C0002FFE00287FF425AF4FF0FF30FCF750FF9E
:1046D000D0F1010138BF00210D20FDF7C9FD0028F0
:1046E0007FF417AFFDF754FE484604A9FCF728FFF6
:1046F000204608A9FCF724FFD9F800200E20B2EBD1
:10470000090359425941FDF7B3FD00287FF401AF79
:1047100022680F20131B59425941FDF7A9FDF8E605
:10472000F8090020E809002054100020D097000864
:104730008147000860080020909A0008514700084F
:104740005C080020AFF30080AFF30080AFF300807F
:1047500040F65C0008B50021C2F20000FCF768FFDB
:104760003220FCF75DFA40F66000C2F20000002142
:10477000FCF75EFF002008BDAFF30080AFF30080C0
:1047800010B504463220FCF74BFA20460121FCF715
:104790002FFF002010BD00BFAFF30080AFF30080FB
:1047A00010B51E4C88B00122204669462460FCF7F3
:1047B000AFFE204604A90222FCF7AAFE21680120D0
:1047C000091B18BF0121FDF753FD08B108B010BD4A
:1047D00020466946FCF7B4FE22680220111B18BF70
:1047E0000121FDF745FD0028F0D1204604A9FCF782
:1047F000A7FE23680320B3EB040EDEF1000151EBAA
:104800000E01FDF735FD0028E0D107210448FCF733
:104810001FFF04200349FDF743FDD7E75C08002094
:10482000809E0008209C0008AFF30080AFF300805A
:104830004320FDF70DBD00BFAFF30080AFF3008054
:104840004220FDF705BD00BFAFF30080AFF300804D
:104850004120FDF7FDBC00BFAFF30080AFF3008047
:1048600008B500214FF0FF30FCF76AFFD0F10101DD
:1048700038BF00210120FDF7FBFC00B108BD014657
:104880004FF0FF30FCF784FFD0F1010138BF002169
:104890000220FDF7EDFC0028F0D101464FF0FF307B
:1048A000FCF79EFFD0F1010138BF00210320FDF786
:1048B000DFFC0028E2D10A214FF0FF30FCF740FF77
:1048C000D0F1010138BF00210420FDF7D1FC002800
:1048D000D4D10A214FF0FF30FCF75AFFD0F101018B
:1048E00038BF00210520FDF7C3FC0028C6D10A21EE
:1048F0004FF0FF30FCF774FFD0F1010138BF002109
:104900000620BDE80840FDF7B3BC00BFAFF3008050
:1049100070B582B0FDF7B4FA01A90020FDF770FB75
:1049200010210020FDF7DCFA011C18BF012104460C
:104930000120FDF79DFC054608B102B070BD204680
:10494000FDF716FB6FF0FF012846FDF7C9FAD0F11D
:10495000010138BF00210220FDF78AFC0028ECD1BC
:1049600001A97E48FDF74CFB10217C48FDF7B8FA01
:10497000102105467948FDF7B3FA1021044677481F
:10498000FDF7AEFA06462846FDF7F2FA2046FDF797
:10499000EFFA3046FDF7ECFA69467048FDF730FB58
:1049A000B0F1010EDEF1000151EB0E010320FDF725
:1049B0005FFC0028C1D110216848FDF791FA102151
:1049C00004466648FDF78CFA102105466348FDF75A
:1049D00087FAFDF7CDFA2846FDF7CAFA2046FDF71B
:1049E000C7FA69465D48FDF70BFB0138424252EBBE
:1049F00000010420FDF73CFC00289ED111215748FE
:104A0000FDF76EFA102104465448FDF769FA054691
:104A10002046FDF7ADFA69465048FDF7F1FA831ECE
:104A2000594259410520FDF723FC002885D110216A
:104A30004A48FDF755FA694604464848FDF7E0FA4A
:104A4000012800F0898069464448FDF7D9FA023808
:104A5000424252EB00010620FDF70AFC00287FF4D9
:104A60006CAF2846FDF784FA2046FDF781FA6946C7
:104A70003A48FDF7C5FAB0F1010CDCF1000353EB45
:104A80000C010720FDF7F4FB00287FF456AF10213E
:104A90003248FDF725FA102105463048FDF720FA87
:104AA00004462846FDF764FA69462C48FDF7A8FA43
:104AB000B0F1020EDEF1000151EB0E010820FDF70E
:104AC000D7FB00287FF439AF20212448FDF708FAEE
:104AD000FDF74EFA2046FDF74BFA69461F48FDF7F1
:104AE0008FFA0138424252EB00010920FDF7C0FB6A
:104AF00000287FF422AF69461848FDF781FA009933
:104B00001648FDF7EDF9694604461448FDF778FAB2
:104B1000D0F1010138BF00210A20FDF7A9FB0028D0
:104B20007FF40BAF2046FDF723FA69460B48FDF7EB
:104B300067FA431E594259410B20FDF799FB0028A3
:104B40007FF4FBAE9DE80A000C20CA1A534253EBD7
:104B50000201FDF78DFBF0E601467CE780100020A6
:104B600041F2800040F64021C2F20000C2F2000192
:104B70004FF4BE62FDF7A4B9AFF30080AFF300803D
:104B800000207047AFF30080AFF30080AFF30080E8
:104B900040F66400C2F200004FF498710022FDF765
:104BA0004FBA00BFAFF30080AFF30080AFF30080D7
:104BB00038B5574C5748256805222946FDF748FA6D
:104BC0005448FDF785FA011C18BF01210120FDF7AB
:104BD0004FFB002840F08A804E48FDF779FA011C0F
:104BE00018BF01210120FDF743FB00287ED1494871
:104BF000FDF76EFA011C18BF01210120FDF738FBFB
:104C0000002873D14348FDF763FA011C18BF012146
:104C10000120FDF72DFB002868D13E48FDF758FA2A
:104C2000011C18BF01210120FDF722FB00285DD1E6
:104C30003848FDF74DFAD0F1010138BF00210220BC
:104C4000FDF716FB002851D132482946FDF758FAE6
:104C500030486168FDF754FA2E48A168FDF750FA14
:104C60002C48E168FDF74CFA21692A48FDF748FA1B
:104C70002848FDF72DFA011C18BF01210320FDF77C
:104C8000F7FA002832D12348FDF722FA011C18BF99
:104C900001210320FDF7ECFA40BB1E48FDF718FA8E
:104CA000011C18BF01210320FDF7E2FAF0B91948F1
:104CB000FDF70EFA011C18BF01210320FDF7D8FAF9
:104CC000A0B91448FDF704FA011C18BF0121032004
:104CD000FDF7CEFA50B90F48FDF7FAF9D0F101010E
:104CE00038BF00210420FDF7C3FA00B138BD102100
:104CF000094A0848FDF7A4F90648FDF7E9F9D0F19B
:104D0000010138BF00210520BDE83840FDF7B0BAE9
:104D1000D097000864080020814B0008AFF30080A2
:104D200038B50546FCF784F8002403461846AB4224
:104D300008BF44F00104FCF78BF803460028F5D1C6
:104D4000204638BDAFF30080AFF30080AFF30080A2
:104D500010B54A4B4A4C99694A488A684A4B82B016
:104D60004FF498710094013AFCF71AF804460120B8
:104D7000A37FB3EB000CDCF1000151EB0C01FDF75C
:104D800077FA08B102B010BD2046FBF7D1FFA27F31
:104D90000220B2EB000EDEF1000353EB0E01FDF733
:104DA00067FA0028EED12046FBF7D2FFA17F03204F
:104DB0004A1E534253EB0201FDF75AFA0028E1D193
:104DC0002046FFF7ADFF01460420FDF751FA002809
:104DD000D8D12046FFF7A4FF01460520FDF748FA89
:104DE0000028CFD12046FBF7B3FFA17F0620D1F1E9
:104DF000010138BF0021FDF73BFA0028C2D1227F14
:104E00000720D2F1010138BF0021FDF731FA002857
:104E1000B8D12046FFF784FF01460820FDF728FAA5
:104E20000028AFD12046FFF77BFF01460920FDF7A0
:104E30001FFA0028A6D13220FBF7F2FE237F0A20BA
:104E4000B3F10E0251425141FDF712FA002899D1F7
:104E50002046FFF765FF01460B20FDF709FA002801
:104E600090D12046FFF75CFF80F00100C1B20C201A
:104E700002B0BDE81040FDF7FBB900BFF809002003
:104E8000909A0008B0100020914E0008AFF3008007
:104E900008B50078FDF7DCF9002008BDAFF300800D
:104EA00041F2B00040F64021C2F20000C2F200011F
:104EB0004FF4BE62FDF704B8AFF30080AFF300809B
:104EC00041F2B00040F64021C2F20000C2F20001FF
:104ED0004FF4BE62FCF7F4BFAFF30080AFF3008085
:104EE000444B45489A6970B5444E95683168444CC6
:104EF000FDF706F940487168FDF702F93E48B168D0
:104F0000FDF7FEF83C48F168FDF7FAF8691E3D4AE6
:104F10003D4B3948FBF764FFA91E2060394A3B4BE3
:104F20003548FBF75DFFE91E6060364A384B324872
:104F3000FBF756FF291FA060324A364B2E48FBF77D
:104F40004FFF691FE0602F4A2B48334BFBF748FFA8
:104F50002168206149B1616839B1A16829B1E1686E
:104F600019B1D0F1010138BF00210120FDF780F90E
:104F700000B170BDFDF70CFA02202849FDF790F949
:104F80000028F6D11C48FDF7A3F8011C18BF012129
:104F90000320FDF76DF90028EBD11748FDF798F8CD
:104FA000011C18BF01210320FDF762F90028E0D1A0
:104FB0001148FDF78DF8011C18BF01210320FDF7F2
:104FC00057F90028D5D10C48FDF782F8011C18BF0D
:104FD00001210320FDF74CF90028CAD10648FDF74E
:104FE00077F8D0F1010138BF00210420BDE87040FE
:104FF000FDF73EB9F8090020A0100020D097000866
:1050000054100020914E0008909A0008949A0008CD
:10501000989A00089CAB0008A09A0008609F0008BE
:1050200041F2A000C2F200004FF498710022FDF797
:1050300007B800BFAFF30080AFF30080AFF300808C
:1050400070B5334B33489969334C8D6884B003A9EC
:10505000FCF7D6FF314A324B00924FF498716A1E2A
:105060002C48FBF79DFE20602E482D4B0090AA1E79
:105070004FF498712748FBF793FE02A9606025481A
:10508000FCF7BEFF02992348FCF72AFF2649244B70
:10509000009106464FF49871EA1E1E48FBF780FE09
:1050A000A0603046FCF764FF216829B1616819B13E
:1050B000A168002923D000210120FDF7D9F808B10B
:1050C00004B070BDFDF764F902201849FDF7E8F857
:1050D0000028F5D102A90F48FCF792FF01384142A0
:1050E00041410320FDF7C4F80028E9D1039B029A4F
:1050F0000420D31A59425941FDF7BAF8E0E7E368B2
:10510000002BD9D12269D2F1010138BF0021D3E7A8
:10511000F8090020B010002054100020909A0008D8
:10512000914E0008949A0008989A0008689F000819
:10513000704700BFAFF30080AFF30080AFF3008093
:1051400040F6700008B50021C822C2F20000FCF74A
:10515000CFFD002008BD00BFAFF30080AFF300809B
:1051600000B549F2D07383B0C0F60003002019687F
:10517000009045F2311340F67000C2F200000422A4
:10518000C0F60003FCF78CFD03B000BDAFF3008058
:1051900040F6940008B5C821C2F20000FCF718FDE3
:1051A000002008BDAFF30080AFF30080AFF30080B4
:1051B00000B549F2D07383B0C0F60003002019682F
:1051C000009045F2311340F69400C2F20000042230
:1051D000C0F60003FCF7ACFC03B000BDAFF30080E9
:1051E0002DE9F041202382B083F31188AA4D6A692A
:1051F000AB699A4200F0978000210120FDF738F852
:105200000646002868D1034683F31188A24C412149
:1052100020464FF0FF32FCF76BFD422120464FF055
:10522000FF32FCF765FD432120464FF0FF32FCF7CB
:105230005FFD204644214FF0FF32FCF759FD20234B
:1052400083F31188AD680220D5F1010138BF002138
:10525000FDF70EF80546002844D1034683F3118874
:10526000202383F311882046FCF76AFD2B4683F345
:105270001188C0B2FCF7ECFF202383F3118820468D
:10528000FCF75EFD2B4683F31188C0B2FCF7E0FF0C
:10529000202383F311882046FCF752FD2B4683F32D
:1052A0001188C0B2FCF7D4FF202383F31188204675
:1052B000FCF746FD2B4683F31188C0B2FCF7C8FF0C
:1052C000202383F311886069A269904230D0294677
:1052D0000320FCF7CDFF48B1002383F3118802B00F
:1052E000BDE8F081334683F31188F8E7034683F382
:1052F000118804206949FCF7D3FF04460028EED149
:10530000202383F31188644D2846FCF719FD0330F0
:1053100014BF002101210520FCF7AAFF68B1234634
:1053200083F31188DBE7A968003118BF012164E726
:10533000A368191C18BF0121CAE7034683F311882B
:10534000574E7468082221462846FCF721FD071FA6
:10535000794279410620FCF78BFF07460028BED131
:10536000202383F31188AA680720D2F1010138BFF6
:105370000021FCF77DFF804618B13B4683F311887E
:10538000ADE7034683F311883068464E464BB1695A
:10539000464E8A68CDF800804FF498710132FBF7D1
:1053A000EFFB2023306083F311882869E968AB683C
:1053B000421AD61A0820B6F1040CDCF1000151EBB8
:1053C0000C01FCF755FF064618B1434683F31188DC
:1053D00085E7034683F31188FCF7DAFF202383F384
:1053E00011882846FCF76CFC334683F31188202390
:1053F00083F311882869EA68AB68811A0920B1EB48
:10540000030EDEF1000252EB0E01FCF731FF034602
:1054100000287FF467AF83F31188022221462846D3
:10542000FCF7B6FC0238434253EB00010A20FCF7BC
:105430001FFF034600287FF452AF21460222284670
:10544000FCF7A6FC821E514251410B20FCF710FFD5
:1054500000287FF444AF202383F31188AB680C202D
:10546000D3F1010138BF0021FCF702FF002383F3D1
:10547000118800287FF433AF19460A220648FCF74A
:1054800037FCB0F1FF30424252EB00010D2002B078
:10549000BDE8F041FCF7ECBE70080020609F0008FA
:1054A000D0970008F809002041510008541000204E
:1054B0002DE9F043202383B083F31188894CA16840
:1054C0000120D1F1010138BF0021FCF7D1FE0546D2
:1054D00028BB034683F31188202383F311884121DD
:1054E0002046FCF74DFB42212046FCF749FB4321B7
:1054F0002046FCF745FB20464421FCF741FB2B46A8
:1055000083F31188202383F311886269A3699A4287
:1055100056D029460220FCF7ABFE054628B10023F1
:1055200083F3118803B0BDE8F083034683F3118849
:10553000202383F311886B4E01463046FCF720FB95
:10554000043014BF002101210320FCF791FE07461F
:1055500090BB034683F311884FF0FF313046FCF7D0
:1055600037FBC0B2FCF774FE4FF0FF313046FCF75A
:105570002FFBC0B2FCF76CFE4FF0FF313046FCF75A
:1055800027FBC0B2FCF764FE4FF0FF313046FCF75A
:105590001FFBC0B2FCF75CFE202383F31188B168C7
:1055A0000420D1F1010138BF0021FCF761FE60B198
:1055B0003B4683F31188B5E72B4683F31188B1E7A7
:1055C000A068011C18BF0121A4E7034683F31188DA
:1055D00005204549FCF764FE05460028A2D120239A
:1055E00083F3118841213046FCF7CAFA4221304644
:1055F000FCF7C6FA43213046FCF7C2FA3046442194
:10560000FCF7BEFA2B4683F31188384F7D680822D9
:1056100029463046FCF704FB021F534253EB0201BC
:105620000620FCF725FE804600287FF47BAF202370
:1056300083F31188B1680720D1F1010138BF00213F
:10564000FCF716FE8146002847D1034683F31188F4
:10565000202383F3118841213046FCF791FA42213F
:105660003046FCF78DFA43213046FCF789FA304684
:105670004421FCF785FA4B4683F311880222294620
:105680003046FCF7CDFA0238424252EB00010820C6
:10569000FCF7EEFD00287FF445AF022203462946C1
:1056A0003046FCF7BDFAB0F1020CDCF1000353EB1D
:1056B0000C010920FCF7DCFD804600287FF432AFA6
:1056C000202383F31188B5680A20D5F1010138BF82
:1056D0000021FCF7CDFD054650B1434683F3118808
:1056E00020E700BF94080020609F0008D0970008C2
:1056F000034683F31188202383F311880146304643
:10570000FCF73EFA3046FCF723FA2B4683F3118868
:10571000202383F31188B1680B20D1F1010138BF38
:105720000021FCF7A5FD002383F3118800287FF4F6
:10573000F9AE184A38689569AA6800931D464FF477
:1057400098710132144BFBF71BFA144920230860AF
:1057500083F31188A3680C20B3EB050EDEF1000281
:1057600052EB0E01FCF784FD034600287FF424AFC2
:1057700083F31188FCF70CFE0A210948FCF728FA8C
:10578000B0F1FF30414241410D2003B0BDE8F0438C
:10579000FCF76EBDF809002091510008541000205C
:1057A00094080020AFF30080AFF30080AFF30080D7
:1057B000704700BFAFF30080AFF30080AFF300800D
:1057C000704700BFAFF30080AFF30080AFF30080FD
:1057D0004AF2001010B5C0F600004AF21014C0F6EC
:1057E0000004FCF70DFD4FF4CA70FCF7C1FC204625
:1057F000FCF716FD4AF21810C0F60000FCF700FD99
:105800004820FCF7B5FC2046FCF70AFD4AF22810B8
:10581000C0F60000FCF7F4FC1420FCF7A9FC2046BD
:10582000FCF7FEFC4AF23810C0F60000FCF7E8FC7A
:105830000C20FCF79DFC2046FCF7F2FC4AF24810D5
:10584000C0F60000FCF7DCFC0420FCF791FC2046CD
:10585000FCF7E6FC4AF25810C0F60000FCF7D0FC5A
:105860001020FCF785FC2046FCF7DAFC4AF26810B1
:10587000C0F60000FCF7C4FC1020FCF779FC2046C1
:10588000FCF7CEFC4AF27810C0F60000FCF7B8FC3A
:105890000820FCF76DFC2046FCF7C2FC4AF2881099
:1058A000C0F60000FCF7ACFC2420FCF761FC2046AD
:1058B000FCF7B6FC4AF29810C0F60000FCF7A0FC1A
:1058C0002820FCF755FC2046BDE81040FCF7A8BC9A
:1058D00038B5FCF7ADFD4FF47A70FCF7B9FD124D09
:1058E00000241248FBF79CFCFBF7C2FC0F48FBF7B7
:1058F00097FCFBF7BDFC0D48FBF792FCFBF7B8FCEF
:105900000A48FBF78DFCFBF7B3FC2B780134002B26
:10591000E7D00748FCF774FCA000FCF729FC054819
:10592000BDE83840FCF77CBC351000201811002081
:10593000A8A10008B8A10008AFF30080AFF3008071
:1059400041F21810C2F20000FBF7FABBAFF300807F
:1059500010B5074C02E00748FBF702FBA369587F2C
:1059600000F00401CAB2002AF5D0002010BD00BF2B
:10597000F809002028110020AFF30080AFF3008069
:1059800038B5FCF755FD4FF47A70FCF761FD144D06
:1059900000241448FBF7E4FA1248FBF721FB1148F6
:1059A000FBF7DEFA0F48FBF71BFB0E48FBF7D8FAB4
:1059B0000C48FBF715FB0B48FBF7D2FA0948FBF73D
:1059C0000FFB2B780134002BE3D00748FCF718FCC1
:1059D000A000FCF7CDFB0548BDE83840FCF720BC33
:1059E0003510002028110020A8A10008C8A1000837
:1059F00041F22810C2F200000121FBF741BA00BFBA
:105A000041F22810C2F200000021FBF739BA00BFB2
:105A100038B5FCF70DFD4FF47A70FCF719FD154D04
:105A20000024202383F31188012100231248134A04
:105A3000FAF7DEFE002342F21071104A1048FAF71E
:105A4000D7FE0D48FAF7F4FE0D48FAF7F1FE0023F1
:105A500083F311882B780134002BE2D00948FCF73E
:105A6000CFFB6000FCF784FB0748BDE83840FCF73B
:105A7000D7BB00BF35100020D0100020C157000850
:105A800034110020A8A10008D8A10008AFF30080BD
:105A900030B583B0002424492448009410222346C2
:105AA000FCF746F8FCF7C4FC4FF47A70FCF7D0FC26
:105AB0001F4D202383F3118800211C48FCF760F858
:105AC00001211A48FCF75CF802211848FCF758F845
:105AD00003211648FCF754F8002383F311884FF094
