:020000040800F2
:1000000000040020E10A0008E10C0008E10C0008EF
:10001000E10C0008E10C0008E10C0008E10C00080C
:10002000E10C0008E10C0008E10C0008010D0008DB
:10003000E10C0008E10C0008E10C0008010E0008CA
:10004000E10C0008E10C0008E10C0008E10C0008DC
:10005000E10C0008E10C0008E10C0008E10C0008CC
:10006000E10C0008E10C0008E10C0008611C00082C
:10007000911C0008C11C0008F11C0008211D00088B
:10008000511D0008811D0008E10C0008E10C00086A
:10009000E10C0008E10C0008E10C0008E10C00088C
:1000A000E10C0008E10C0008E10C0008E10C00087C
:1000B000E10C0008E10C0008E10C0008E10C00086C
:1000C000E10C0008E10C0008E10C0008E10C00085C
:1000D000E10C0008E10C0008012500086126000879
:1000E000E10C0008E10C0008E10C0008E10C00083C
:1000F000E10C0008E10C0008E10C0008B11D00084B
:10010000E10C0008E10C0008E10C0008E10C00081B
:10011000E10C0008E10C0008E10C0008E10C00080B
:10012000E11D0008111E0008411E0008711E000894
:10013000A11E0008E10C0008E10C0008E10C000819
:10014000E10C0008E10C0008E10C0008E10C0008DB
:10015000D11E0008011F0008311F0008E10C000833
:10016000E10C0008E10C0008E10C0008E10C0008BB
:10017000E10C0008E10C0008E10C0008E10C0008AB
:08018000E10C0008E10C00088D
:1001900030B589B001F094FC00F082FE02F0A0FBC3
:1001A0001D481E4D02F044FD02F032FE00211C48A5
:1001B00002F046FF002002F08BFC08A90A2300246D
:1001C00021F81C3D0122D7238DF80C20ADF8083012
:1001D0004FF48C7214232046ADF80630ADF80A2097
:1001E00005940694079403F0FBF84FF6E072028240
:1001F0004482286002F03CFE28680A4903F088F92E
:100200002868094903F084F940F2DC5001F088F8CD
:1002100002F096FAF8E700BF404400084C0B0020BB
:10022000904A0008444400085C440008AFF3008092
:1002300081F0004102E000BF83F0004330B54FEA97
:1002400041044FEA430594EA050F08BF90EA020F04
:100250001FBF54EA000C55EA020C7FEA645C7FEA97
:10026000655C00F0E2804FEA5454D4EB5555B8BFBA
:100270006D420CDD2C4480EA020281EA030382EA2B
:10028000000083EA010180EA020281EA0303362DBD
:1002900088BF30BD11F0004F4FEA01314FF4801C90
:1002A0004CEA113102D0404261EB410113F0004FA2
:1002B0004FEA03334CEA133302D0524263EB430359
:1002C00094EA050F00F0A780A4F10104D5F1200EF7
:1002D0000DDB02FA0EFC22FA05F2801841F1000152
:1002E00003FA0EF2801843FA05F359410EE0A5F126
:1002F00020050EF1200E012A03FA0EFC28BF4CF057
:10030000020C43FA05F3C01851EBE37101F000450C
:1003100007D54FF0000EDCF1000C7EEB00006EEB19
:100320000101B1F5801F1BD3B1F5001F0CD34908A3
:100330005FEA30004FEA3C0C04F101044FEA4452FA
:1003400012F5800F80F09A80BCF1004F08BF5FEA81
:10035000500C50F1000041EB045141EA050130BD61
:100360005FEA4C0C404141EB010111F4801FA4F104
:100370000104E9D191F0000F04BF01460020B1FA59
:1003800081F308BF2033A3F10B03B3F120020CDA91
:100390000C3208DD02F1140CC2F10C0201FA0CF06F
:1003A00021FA02F10CE002F11402D8BFC2F1200CD4
:1003B00001FA02F120FA0CFCDCBF41EA0C0190408A
:1003C000E41AA2BF01EB0451294330BD6FEA0404D3
:1003D0001F3C1CDA0C340EDC04F11404C4F12002BE
:1003E00020FA04F001FA02F340EA030021FA04F3D0
:1003F00045EA030130BDC4F10C04C4F1200220FA27
:1004000002F001FA04F340EA0300294630BD21FA64
:1004100004F0294630BD94F0000F83F4801306BF2A
:1004200081F480110134013D4EE77FEA645C18BF1E
:100430007FEA655C29D094EA050F08BF90EA020FB5
:1004400005D054EA000C04BF1946104630BD91EAAD
:10045000030F1EBF0021002030BD5FEA545C05D1B0
:100460004000494128BF41F0004130BD14F58004EF
:100470003CBF01F5801130BD01F0004545F0FE4163
:1004800041F470014FF0000030BD7FEA645C1ABF98
:10049000194610467FEA655C1CBF0B46024650EACF
:1004A000013406BF52EA033591EA030F41F40021FB
:1004B00030BD00BF90F0000F04BF0021704730B581
:1004C0004FF4806404F132044FF000054FF0000156
:1004D00050E700BF90F0000F04BF0021704730B517
:1004E0004FF4806404F1320410F0004548BF4042EC
:1004F0004FF000013EE700BF42004FEAE2014FEA41
:1005000031014FEA02701FBF12F07F4393F07F4F1B
:1005100081F06051704792F0000F14BF93F07F4F4D
:10052000704730B54FF4607401F0004521F0004190
:1005300020E700BF50EA010208BF704730B54FF016
:1005400000050AE050EA010208BF704730B511F01B
:10055000004502D5404261EB41014FF4806404F153
:1005600032045FEA915C3FF4DCAE4FF003025FEAD5
:10057000DC0C18BF03325FEADC0C18BF033202EB5D
:10058000DC02C2F1200300FA03FC20FA02F001FAB7
:1005900003FE40EA0E0021FA02F11444C1E600BF56
:1005A00070B54FF0FF0C4CF4E06C1CEA11541DBF09
:1005B0001CEA135594EA0C0F95EA0C0F00F0DEF8D4
:1005C0002C4481EA030621EA4C5123EA4C5350EAB9
:1005D000013518BF52EA033541F4801143F480130A
:1005E00038D0A0FB02CE4FF00005E1FB02E506F09B
:1005F0000042E0FB03E54FF00006E1FB03569CF0F0
:10060000000F18BF4EF0010EA4F1FF04B6F5007FF5
:1006100064F5407404D25FEA4E0E6D4146EB060667
:1006200042EAC62141EA55514FEAC52040EA5E50F0
:100630004FEACE2EB4F1FD0C88BFBCF5E06F1ED89A
:10064000BEF1004F08BF5FEA500E50F1000041EBD1
:10065000045170BD06F0004646EA010140EA02007E
:1006600081EA0301B4EB5C04C2BFD4EB0C0541EAA0
:10067000045170BD41F480114FF0000E013C00F3B5
:10068000AB8014F1360FDEBF002001F0004170BDD9
:10069000C4F10004203C35DA0C341BDC04F11404F2
:1006A000C4F1200500FA05F320FA04F001FA05F27E
:1006B00040EA020001F0004221F0004110EBD3704B
:1006C00021FA04F642EB06015EEA430E08BF20EA77
:1006D000D37070BDC4F10C04C4F1200500FA04F31A
:1006E00020FA05F001FA04F240EA020001F00041AC
:1006F00010EBD37041F100015EEA430E08BF20EA1F
:10070000D37070BDC4F1200500FA05F24EEA020E66
:1007100020FA04F301FA05F243EA020321FA04F095
:1007200001F0004121FA04F220EA020000EBD3704C
:100730005EEA430E08BF20EAD37070BD94F0000F4C
:100740000FD101F00046400041EB010111F4801F80
:1007500008BF013CF7D041EA060195F0000F18BF31
:10076000704703F00046520043EB030313F4801F6D
:1007700008BF013DF7D043EA0603704794EA0C0F27
:100780000CEA135518BF95EA0C0F0CD050EA41063D
:1007900018BF52EA4306D1D181EA030101F00041BA
:1007A0004FF0000070BD50EA410606BF10461946E2
:1007B00052EA430619D094EA0C0F02D150EA0136EE
:1007C00013D195EA0C0F05D152EA03361CBF10462F
:1007D00019460AD181EA030101F0004141F0FE41CE
:1007E00041F470014FF0000070BD41F0FE4141F452
:1007F000780170BD70B54FF0FF0C4CF4E06C1CEA52
:1008000011541DBF1CEA135594EA0C0F95EA0C0F06
:1008100000F0A7F8A4EB050481EA030E52EA0335C1
:100820004FEA013100F088804FEA03334FF08055E2
:1008300045EA131343EA12634FEA022245EA11150F
:1008400045EA10654FEA00260EF000419D4208BFC0
:10085000964244F1FD0404F5407402D25B084FEA6D
:100860003202B61A65EB03055B084FEA32024FF419
:1008700080104FF4002CB6EB020E75EB030E22BF76
:10088000B61A754640EA0C005B084FEA3202B6EB36
:10089000020E75EB030E22BFB61A754640EA5C00E5
:1008A0005B084FEA3202B6EB020E75EB030E22BF75
:1008B000B61A754640EA9C005B084FEA3202B6EB76
:1008C000020E75EB030E22BFB61A754640EADC0035
:1008D00055EA060E18D04FEA051545EA16754FEA97
:1008E00006164FEAC30343EA52734FEAC2025FEAB5
:1008F0001C1CC0D111F4801F0BD141EA00014FF044
:1009000000004FF0004CB6E711F4801F04BF014314
:100910000020B4F1FD0C88BFBCF5E06F3FF6AFAE30
:10092000B5EB030C04BFB6EB020C5FEA500C50F1C0
:10093000000041EB045170BD0EF0004E4EEA113143
:1009400014EB5C04C2BFD4EB0C0541EA045170BD4A
:1009500041F480114FF0000E013C90E645EA060E8E
:100960008DE60CEA135594EA0C0F08BF95EA0C0FBC
:100970003FF43BAF94EA0C0F0AD150EA01347FF404
:1009800034AF95EA0C0F7FF425AF104619462CE7DB
:1009900095EA0C0F06D152EA03353FF4FDAE10463E
:1009A000194622E750EA410618BF52EA43067FF48F
:1009B000C5AE50EA41047FF40DAF52EA43057FF41F
:1009C000EBAE12E700000000000000000000000095
:1009D0004FEA410212F5001215D211D56FF4787367
:1009E000B3EB625212D94FEAC12343F0004343EA0A
:1009F000505311F0004F23FA02F018BF40427047E5
:100A00004FF00000704750EA013005D111F000406E
:100A100008BF6FF0004070474FF00000704700BF04
:100A20004FEA4102B2F1E04324BFB3F5001CDCF110
:100A3000FE5C0DD901F0004C4FEAC0024CEA507048
:100A4000B2F1004F40EB830008BF20F00100704777
:100A500011F0804F21D113F13872BCBF01F000407A
:100A6000704741F480114FEA5252C2F11802C2F1AC
:100A7000200C10FA0CF320FA02F018BF40F001002D
:100A80004FEAC1234FEAD32303FA0CFC40EA0C00DF
:100A900023FA02F34FEA4303CCE77FEA625307D11C
:100AA00050EA01331EBF4FF0FE4040F44000704753
:100AB00001F0004040F0FE4040F40000704700BFED
:100AC000704700BFAFF30080AFF30080AFF300804A
:100AD000FEE700BFAFF30080AFF30080AFF300800C
:100AE00072B6704C84F309884EF63472CEF200026E
:100AF0004EF68853CEF200034FF040411160186863
:100B000040F470051D600022E1EE102A4EF63C73A1
:100B1000CEF2000306211A6081F31488BFF36F8FB1
:100B20006148624DA84218D2EA1C051D531B23F0F0
:100B30000302034610184FF0553183421960C2F387
:100B400080020AD01AB185422B46296005D01D1DAE
:100B50005960083383426960F9D15548A04218D2E0
:100B60005449041D0A1B22F00305034628184FF0C0
:100B7000553183421960C5F380020AD01AB184420C
:100B80002346216005D01D1D5960083383426960EA
:100B9000F9D101F0C5FD4849484881421BD2C61C25
:100BA0000C1D321B464822F00302161D0568042363
:100BB000B3420D60C2F380020DD022B14568082314
:100BC000B342256007D01A1D1D5884585D50083364
:100BD000B3428C50F7D13B483B49884217D2CB1CDB
:100BE000041D1A1B22F00305034628180021834226
:100BF0001960C5F380020AD01AB1844223462160ED
:100C000005D01D1D5960083383426960F9D1FFF793
:100C100057FF2E4D2E498D421DD2CC1C2E1DA71BD9
:100C2000B808471C01242A6800EA04089047BC421F
:100C300011D0B8F1000F05D0022433689847BC42A8
:100C4000354608D0696888470234A8682E1D804759
:100C50000835BC42F6D1FFF79BFA1E4D1E4A95425D
:100C60001DD2D41C2E1DA71BBB085F1C01242968A4
:100C700003EA04088847BC4211D0B8F1000F05D040
:100C8000022430688047BC42354608D06A689047E5
:100C90000234AB682E1D98470835BC42F6D1FFF7E9
:100CA00017FF00BF00080020000000200004002003
:100CB0000004002003080020000800201408002081
:100CC000084B000818080020140C002088010008B8
:100CD000880100088801000888010008AFF300803F
:100CE000FEE700BFAFF30080AFF30080AFF30080FA
:100CF00000F08EFA00DF00BFAFF30080AFF300809A
:100D0000EFF309824EF63073CEF20003D2F8CC1026
:100D10005960986868309860683282F309880023C7
:100D200083F31188704700BFAFF30080AFF30080FA
:100D300008B54FF46D43CEF200034FF44072C0F299
:100D4000FA520021996007201021DA6000F080F843
:100D50000A204FF4007100F07BF80B208021BDE8E1
:100D6000084000F075B800BFAFF30080AFF300801B
:100D7000202383F311884FF46D43CEF200035868AB
:100D800010F4006324D0EFF30983A3F1680282F327
:100D9000098816494FF080708A6943F84C0CD07F5F
:100DA000096892688968B0B1914294BF002201221B
:100DB000BAB10F4A43F8502CF1EE10FA4EF63072E9
:100DC000CEF20002516841F0010059665060704750
:100DD00083F311887047914234BF00220122002A18
:100DE000E7D1044843F8500CE8E700BFB8090020F9
:100DF000F10C0008F40C0008AFF30080AFF30080A2
:100E000008B5202383F3118800F082F8002383F3D0
:100E10001188BDE80840FFF7ABBF00BFAFF300800B
:100E20002DE9F04F2DED108AC1F80CD0D0F80CD080
:100E3000BDEC108ABDE8F08FAFF30080AFF3008007
:100E4000002383F311882846A04700F0B1FA7047C9
:100E500082084FF46D43CEF20003063200F0030027
:100E600030B4C00053F82250FF2404FA00F425EAFD
:100E7000040401FA00F10C4343F8224030BC7047EF
:100E8000024B034A98698261FEE700BFB80900205F
:100E9000E0410008AFF30080AFF30080AFF30080C3
:100EA00000B583B0FFF744FF00F0DAF800F060F817
:100EB00000F02EFD00F064FD40F618004021C2F263
:100EC000000000F0B5F940F6B811C2F200010122AD
:100ED00088610277002383F3118862B644F2F01030
:100EE0008969C0F600008861009340F6600040F612
:100EF00081634FF4A471C0F60003C2F2000000F059
:100F0000F7F903B000BD00BFAFF30080AFF300807E
:100F100038B5134B9869C27F0AB1511EC177036A75
:100F2000104C5A1C0262E0682268411CA242E16037
:100F300014D09568013D956085B91368D1685C60EF
:100F40002360D560002383F311881069884720232C
:100F500083F31188226890680028EED038BD00BF66
:100F6000B8090020A8090020AFF30080AFF300808B
:100F700040F6A813C2F200034FF0FF3200205B607E
:100F80001B609A60D8607047AFF30080AFF30080B9
:100F900070B40C4E03613468C260A568A94204D9DC
:100FA0002468491BA5688D42FAD363680460B44283
:100FB000436018606060816002D0A068411AA1603F
:100FC00070BC7047A8090020AFF30080AFF3008029
:100FD0000368074A934203D0996882688918996028
:100FE00042681360036800215A60C160704700BF07
:100FF000A8090020AFF30080AFF30080AFF30080BA
:10100000202383F31188037F0D2B11D8DFE803F031
:1010100020101007100B101010101010100B416A48
:101020008A68531C8B6090E80C001A6001684B6062
:101030004FF0FF3242628168074B002202771B6843
:101040009A688A42FBD25968036041600860586020
:10105000002383F311887047B8090020AFF30080A4
:1010600040F6B813C2F2000300225B601B609A6076
:101070005B611B61704700BFAFF30080AFF300807E
:1010800000228168054B02771B689A688A42FBD26E
:10109000596803604160086058607047B8090020D3
:1010A00040F6B813C2F2000310B499691A680877C1
:1010B00014201468C87701201077104663601C6004
:1010C0009A6110BCFFF7ACBEAFF30080AFF30080B5
:1010D00030B54B1C87B0054611D00B4C0B4AA369A9
:1010E00001A8FFF755FF2846FFF7DAFF049B13B16D
:1010F00001A8FFF76DFFA069406A07B030BDFFF798
:10110000CFFF014CF7E700BFB8090020011000082D
:10111000F0B4144F8568BE690446B068616200236C
:1011200085420CD82377394609688A689542FBD9ED
:1011300048682160606004604C60F0BC70473377A1
:10114000394609688A689042FBD948683160706006
:1011500006604E600123204631462377BC61F0BC17
:10116000FFF75EBEB8090020AFF30080AFF3008048
:101170000E4B18689969026830B453601A608C6825
:1011800098610125142300220577CB770A7703465F
:1011900000E01B689A68A242FBD25A680B604A6062
:1011A0001160596030BCFFF73BBE00BFB80900209A
:1011B0000D4B18689969026830B453608C681A60E6
:1011C00001259861002305770B77034600E01B6833
:1011D0009A68A242FBD85A680B604A601160596055
:1011E00030BCFFF71DBE00BFB8090020AFF3008080
:1011F000044B1A68986991688368994200D87047CF
:10120000FFF7D6BFB8090020AFF30080AFF300802E
:10121000034B9869C17F09B1FFF7CABFFFF7A8BFA9
:10122000B8090020AFF30080AFF30080AFF3008077
:10123000F0B440F6B814C2F20004002265690164FB
:10124000046100F12C06816000F1280745614FF030
:10125000020C60610121142480F81CC04277C4771D
:10126000C26382630262817782612861876206635A
:10127000C662F0BC704700BFAFF30080AFF30080E0
:101280002DE9F001643940F6B8154118C2F20005A5
:1012900000266F69C1600B64059B4B6440F6416397
:1012A000C0F600030B660221944600F1280800F105
:1012B0002C020177142301210561C0F808C04761A1
:1012C000044668614677C377C0F840C0C66386634A
:1012D0000662817786613861C0F828800263C26245
:1012E000BDE8F001704700BFAFF30080AFF30080AE
:1012F00010B51C4682B0202383F311882346049C3A
:101300000094FFF7BDFF00210446FFF701FF002313
:1013100083F31188204602B010BD00BFAFF30080F8
:1013200008B50146202383F311880620FFF7D0FE7D
:10133000002383F3118808BDAFF30080AFF3008072
:1013400008B5202383F31188064B1A6898699168C1
:101350008368994201D3FFF70BFF002383F31188C1
:1013600008BD00BFB8090020AFF30080AFF30080D4
:1013700038B50E4B9C692546606255F8280FA84287
:1013800006D00168A162FFF77BFEA06AA842F8D1EF
:10139000607F830704D1636922691A6121694B6107
:1013A0000E20BDE83840FFF77BBE00BFB809002023
:1013B000202383F31188FFF7DBBF00BFAFF300806A
:1013C0004060006081607047AFF30080AFF3008041
:1013D00082680346501E002810B5986001DB00208B
:1013E00010BD074CA2695362596813605160032015
:1013F0005A600A60FFF754FEA369586A10BD00BF27
:10140000B8090020AFF30080AFF30080AFF3008095
:1014100008B5202383F31188FFF7DAFF002383F355
:10142000118808BDAFF30080AFF30080AFF30080F8
:1014300003468068421E002A10B40C469A6002DB04
:10144000002010BC704759B1074CA26953625C6818
:10145000032082E818005A60226010BCFFF738BEF3
:1014600098604FF0FF30ECE7B8090020AFF3008040
:1014700008B5202383F31188FFF7DAFF002383F3F5
:10148000118808BDAFF30080AFF30080AFF3008098
:1014900082680346501C0028986000DD70471A6877
:1014A0001168104619604B6000235362FFF7E8BDD6
:1014B0000023406000608360704700BFAFF300808E
:1014C000F8B52F4A836894690546002B51D0A1686E
:1014D0009868814206D91A7F9960042A31D0052A7A
:1014E0001CD092B128460068854203D08368A16869
:1014F0008B42F8D24268206062604460042014602D
:101500006562BDE8F840FFF7CBBD93E806001160C7
:10151000196818464A60FFF7B3FDE3E758681F688B
:101520005E6A07601F68324678601268964202D091
:1015300090688842F9D251681A6059600B60536014
:10154000D0E758681F685E6A07601F683246786097
:101550001268964212D090688842F9D251681A6097
:1015600059600B605360B368A1689A688A42B2D32D
:10157000B8E7E36B8460C360E063F8BD3246EDE733
:10158000B8090020AFF30080AFF30080AFF3008014
:1015900008B5202383F31188FFF792FF002383F31C
:1015A000118808BDAFF30080AFF30080AFF3008077
:1015B000154A38B59069202383F31188C46B2568D8
:1015C000E368A542C3631CD0016C4BB11A689A4210
:1015D00003D09268914238BF1146DB68002BF5D1E9
:1015E0002B68EA6B8160236028465C600021A5605F
:1015F000E260EC63FFF78CFD002383F31188204643
:1016000038BD0023A360F7E7B8090020AFF30080DE
:1016100008B5826B037F1143082B81630BD0092B24
:1016200000D008BD426A11408A42FAD1FFF728FD76
:101630000021416208BD436A1942F7D108BD00BFCD
:1016400070B50468A04205460E4608D0201D0BC8A0
:101650003343E360FFF7DCFF2468A542F6D170BD99
:1016600010B4024659B1084B9B69586244680D207A
:1016700083E814005360236010BCFFF729BD4FF0CE
:10168000FF3010BC704700BFB8090020AFF30080E6
:1016900010B4C361019B40608A180024006084601C
:1016A00041618161C1600261036210BC704700BF8B
:1016B000426908B503468069824298681AD00130B1
:1016C000986002F8011B19695A618A420BD21868A6
:1016D00098420DD0016819604B60FFF7D1FC0023E0
:1016E0004362184608BD1868DA6898425A61F1D119
:1016F000002008BD0028E2D06FF0030008BD00BF45
:1017000070B5202304460E4683F31188C36903B1E4
:101710009847A568204631463DB9FFF7A1FF00284C
:10172000F7DA2B4683F3118870BDA1692269013D68
:10173000A56011F8010B9142A16124BFE168A1618C
:10174000002383F3118870BDAFF30080AFF30080F6
:101750002DE9F0471E460446C769202383F311880C
:101760004FF0000801F1010901EB020A0FB1204618
:10177000B847A568204631464DB9FFF771FF0028EC
:10178000F7D02B4683F311884046BDE8F087A36964
:10179000013DA56013F8012B09F8012C2069A36114
:1017A000834224BFE368A361002383F31188D145FA
:1017B00008F10108E8D0202383F3118809F1010919
:1017C000D4E700BFAFF30080AFF30080AFF3008039
:1017D00010B4C361019B40608C180060826041615D
:1017E0008161C1600461036210BC7047AFF3008087
:1017F000F8B504460F461646202383F31188A568E2
:10180000204631463DB9FFF72BFF0028F7DA2B467B
:1018100083F31188F8BD6369013DA56003F8017B7E
:1018200022696361934228BFE368E16928BF63616D
:1018300009B120468847002383F311881846F8BD74
:10184000826941699142034610B5806816D0441CF4
:101850009C6012F8014B19699A618A420BD2186890
:10186000984206D0016819604B60FFF709FC00231D
:101870004362204610BDDA689A61F0E70028E6D09E
:101880006FF0020010BD00BFAFF30080AFF3008027
:101890002DE9F0479A46044688461646D0F81C9033
:1018A000202383F311880027A56820466B1EEDB125
:1018B000A360656918F8011B05F8011B22696561C1
:1018C000954224BFE2686261B9F1000F00D0C847B9
:1018D000002383F311880137013E10D0202383F3C6
:1018E0001188A56820466B1E002DE1D12046514687
:1018F000FFF7B6FE0028D7D02B4683F31188384671
:10190000BDE8F087AFF30080AFF30080AFF3008055
:1019100040F6D81240F6D4134CF200010648C2F249
:101920000002C2F20003C2F2010120F0070021F020
:1019300007011060196070471B0C0020AFF3008096
:10194000202383F31188094B09491A680968073075
:1019500020F00700891A88429ABF101818600022E8
:10196000002383F311881046704700BFD809002078
:10197000D4090020AFF30080AFF30080AFF3008004
:1019800040F6E013C2F2000341F641110022C0F616
:10199000000103F1100019609A60DA60FFF788BD5A
:1019A000F8B5204E002818BF0646073106F1100092
:1019B00021F0070506F10804FFF7EAFD00E01C46E8
:1019C0002368FBB15A689542F9D805F108019142A4
:1019D00015D84FF6F870CFF6FF70401B03EB010EE1
:1019E00082181868CEF8042058505D60C4F800E0F2
:1019F0001C4644F8086BFFF7DBFD2046F8BD19686C
:101A00002160F5E7FFF7D4FD32684AB105F108001F
:101A1000904728B100F10804066045602046F8BDF3
:101A20000024EAE7E0090020AFF30080AFF3008074
:101A300070B50646A0F1080450F8080C00F108053E
:101A40001030FFF7A5FD2B46AB421A6801D0A34228
:101A500002D21AB1944201D31346F5E756F8041C9A
:101A600046F8082C1C6001F1080256F8085CA01822
:101A7000A84209D05A6802F1080019188C4211D006
:101A8000BDE87040FFF794BD4068A25809180831BE
:101A900046F8041C46F8082C5A6802F10800191888
:101AA0008C42EDD156F8040C56F8081C1218083276
:101AB00083E80600E4E700BFAFF30080AFF30080E7
:101AC00008B500F0EDFA44F2F020C0F6000000F096
:101AD0009FFB00F055F800F0A3F800F0B1F8BDE866
:101AE000084000F025BE00BFAFF30080AFF30080D8
:101AF0000A460BC801FA03F100F062BCAFF30080A4
:101B00000C30FFF725BE00BFAFF30080AFF30080BD
:101B10000C304FF0FF33FFF71BBE00BFAFF3008068
:101B20003030FFF7B5BE00BFAFF30080AFF30080E9
:101B300030304FF0FF33FFF7ABBE00BFAFF3008094
:101B40000C30FFF7DDBD00BFAFF30080AFF30080C6
:101B50000C304FF0FF31FFF7D3BD00BFAFF3008073
:101B60003030FFF745BE00BFAFF30080AFF3008019
:101B700030304FF0FF32FFF73BBE00BFAFF30080C5
:101B800000F056BDAFF30080AFF30080AFF30080EC
:101B900070B544F210230546C0F60003044645F82C
:101BA000043B82B0656001250B46164604F15401E2
:101BB0001022257200F10C000094FFF769FD0094DB
:101BC00004F1300004F1640110223346FFF700FEF7
:101BD00002B070BDAFF30080AFF30080AFF30080C0
:101BE00038B5436904460D463BB104F10C00294663
:101BF000FFF75EFD00280BDB38BD04300421FFF742
:101C00001FFD04F10C002946FFF752FD0028F3DA0E
:101C1000201D8021BDE83840FFF712BDAFF30080E2
:101C200000F036BCAFF30080AFF30080AFF300806C
:101C3000002301220270436083600C30FFF738BC40
:101C400000F056BDAFF30080AFF30080AFF300802B
:101C5000002301220270437083704360704700BF0D
:101C60004FF4C043C4F2020307481968026810B574
:101C70003D2401F03D019C600AB140689047BDE8F9
:101C80001040FFF775B800BF000A0020AFF30080D6
:101C90004FF4C043C4F2020308481968826810B5C3
:101CA0008C0904F03D014FF474649C600AB1C06873
:101CB0009047BDE81040FFF75BB800BF000A002066
:101CC0004FF4C043C4F2020308481968026910B512
:101CD0000C0C04F03D014FF474149C600AB140698F
:101CE0009047BDE81040FFF743B800BF000A00204E
:101CF0004FF4C043C4F2020308481968826910B562
:101D00008C0D04F03D014FF074649C600AB1C06911
:101D10009047BDE81040FFF72BB800BF000A002035
:101D20004FF4C043C4F2020307485968026A10B571
:101D30003D2401F03D01DC600AB1406A9047BDE8F6
:101D40001040FFF715B800BF000A0020AFF3008075
:101D50004FF4C043C4F2020308485968826A10B5C0
:101D60008C0904F03D014FF47464DC600AB1C06A70
:101D70009047BDE81040FEF7FBBF00BF000A0020FF
:101D80004FF4C043C4F2020308485968026B10B50F
:101D90000C0C04F03D014FF47414DC600AB1406B8C
:101DA0009047BDE81040FEF7E3BF00BF000A0020E7
:101DB0004FF4C043C4F2020308485968826B10B55F
:101DC0008C0D04F03D014FF07464DC600AB1C06B0F
:101DD0009047BDE81040FEF7CBBF00BF000A0020CF
:101DE0004FF4C843C4F2020307481968026C10B5E7
:101DF0003D2401F03D019C600AB1406C9047BDE874
:101E00001040FEF7B5BF00BF000A0020AFF300800E
:101E10004FF4C843C4F2020308481968826C10B535
:101E20008C0904F03D014FF474649C600AB1C06CED
:101E30009047BDE81040FEF79BBF00BF000A00209E
:101E40004FF4C843C4F2020308481968026D10B584
:101E50000C0C04F03D014FF474149C600AB1406D09
:101E60009047BDE81040FEF783BF00BF000A002086
:101E70004FF4C843C4F2020308481968826D10B5D4
:101E80008C0D04F03D014FF074649C600AB1C06D8C
:101E90009047BDE81040FEF76BBF00BF000A00206E
:101EA0004FF4C843C4F2020307485968026E10B5E4
:101EB0003D2401F03D01DC600AB1406E9047BDE871
:101EC0001040FEF755BF00BF000A0020AFF30080AE
:101ED0004FF4C843C4F2020308485968826E10B533
:101EE0008C0904F03D014FF47464DC600AB1C06EEB
:101EF0009047BDE81040FEF73BBF00BF000A00203E
:101F00004FF4C843C4F2020308485968026F10B581
:101F10000C0C04F03D014FF47414DC600AB1406F06
:101F20009047BDE81040FEF723BF00BF000A002025
:101F30004FF4C843C4F2020308485968826F10B5D1
:101F40008C0D04F03D014FF07464DC600AB1C06F89
:101F50009047BDE81040FEF70BBF00BF000A00200D
:101F60002DE9F00F40F680258AB0C2F2000546F256
:101F700040400295783046F21045C4F20205A0F5C3
:101F800080600495C4F2020046F240450390C4F21A
:101F9000020546F228400695C4F2020046F270455A
:101FA0000590C4F2020546F258400195C4F20200C1
:101FB00046F2B8450790C4F2020546F288400995FA
:101FC000C4F20200029D089046F2100B002040F679
:101FD000002346F2280A46F2400946F2580846F223
:101FE000700C46F2880746F2A006C2F20003286091
:101FF000C4F2020B039DCBF80000C4F2020AC4F243
:102000000209C4F20208C4F2020CC4F20207C4F2CC
:1020100002061860CAF800009860C9F8000018614C
:10202000C8F800009861CCF8000018623860986227
:10203000306018632860049D98632860059D1864CB
:102040002860069D98642860079D186546F2104434
:1020500028606034019D986530342860C4F2020421
:10206000089D18664FF4C0414FF4C8422860C4F27E
:1020700002019866C4F202022060099C18674FF0C2
:10208000FF35206098678D60CD609560D5600AB09F
:10209000BDE8F00F704700BFAFF30080AFF30080E2
:1020A0004FF46053C4F2020370B400224FF0FF34C7
:1020B00019691C611A6159695C615A611E6A4EF2A4
:1020C0001001CEF2000166F0805649F23F051E6213
:1020D000C0F202051A624EF6F0505E6A5C62CEF201
:1020E00000005A624D608A6007220A60C1684FF49E
:1020F0008052CEF2000241F08071C160106840F061
:1021000001011160186C4FF4E042C4F2000240F08B
:1021100080511964136843F480701060516821F491
:102120000073536070BCFFF71BBF00BFAFF30080AC
:102130004FF46052C4F202024FF4E043C4F20003D1
:102140004FF0805111644FF4804218461A60436882
:102150005B04FCD54FF46050C4F2020001460268F3
:1021600042F00103036008684FF460538007C4F233
:102170000203F8D5196841F480321A6018460168E4
:102180004FF460538A03C4F20203F8D55A6F42F049
:102190000100586719464A6F4FF460539007C4F224
:1021A0000203F8D545F20840C0F240705860196843
:1021B00041F080721A60184601684FF460538A013A
:1021C000C4F20203F8D598684FF414424FF47051EA
:1021D000C3F60802C4F20201104340F2057298608F
:1021E0000A60996841F002009860996801F00C005B
:1021F0004FF460520828C4F20202F6D1536C43F443
:1022000080415164506E40F480435366704700BF74
:102210004FF46053C4F202031A6B6FEA52216FEA63
:1022200041221A63196D6FEA51226FEA4221196542
:1022300000234168C4F202034FF480625960816850
:102240009960C168D9600169596141691962816900
:10225000596201681960016AC4F202024FF4006316
:102260005160416A9160816AD160C16A5161016BBC
:102270001162416B5162C1691160C4F20203C26B09
:102280005A60016C9960426CDA60816C5961C26C71
:102290001A62016D5962816B4FF440621960816D61
:1022A000C4F202024FF480535160C16D9160016E1F
:1022B000D160416E5161816E1162C16E5162416D9A
:1022C0001160C4F20203426F5A60816F9960C26F5D
:1022D000DA60D0F880105961D0F884201A62D0F802
:1022E00088105962016F4FF4A0521960D0F8901015
:1022F000C4F202024FF4C0535160D0F894109160C0
:10230000D0F89810D160D0F89C105161D0F8A0108E
:102310001162D0F8A4105162D0F88C101160D0F87E
:10232000AC10C4F202034FF4E0525960D0F8B01080
:102330009960D0F8B410D960D0F8B8105961D0F8CD
:10234000BC101962D0F8C0105962D0F8A810C4F2BD
:1023500002021960D0F8C8305360D0F8CC109160F8
:10236000D0F8D030D360D0F8D4105161D0F8D83044
:102370001362D0F8DC105162D0F8C4104FF400534F
:102380001160D0F8E420C4F202035A60D0F8E810DB
:102390009960D0F8EC20DA60D0F8F0105961D0F8EC
:1023A000F4201A62D0F8F8105962D0F8E0001860F2
:1023B000704700BFAFF30080AFF30080AFF3008041
:1023C0002DE9F00F002302F00307C2F38006C2F3E9
:1023D000C105C2F341144FF00F09C2F3C3124FF00D
:1023E000010A38E0D0F820B02BEA0C0C4CEA0808BF
:1023F000C0F82080D0F804B00AFA03FC2BEA0C08DD
:1024000048EA060BC0F804B04FEA430C4FF0030B48
:10241000D0F808800BFA0CFC6FEA0C0C0CEA0808E8
:1024200048EA0508C0F80880D0F80C800CEA0808D3
:1024300048EA0408C0F80C80D0F800800CEA080CC8
:102440004CEA070CC0F800C049081AD07600AD006D
:10245000A400BF00013303F0070C4FEA8C0C11F00D
:10246000010F02FA0CF809FA0CFCEDD0072BB9D9D0
:10247000D0F824B02BEA0C0C4CEA0808C0F82480F1
:10248000B8E7BDE8F00F7047AFF30080AFF300800E
:1024900038B540F6842340F68824C2F20004C2F224
:1024A00000034FF6FF7220461A80FFF7C1FB44F28B
:1024B0003023C0F600034FF4705016214622C4F2B8
:1024C000000003F15405C0F20101C0F20102E06115
:1024D00023626562A162E26238BD00BFAFF3008093
:1024E0004FF48843C4F200039A8990B240F080010F
:1024F00099817047AFF30080AFF30080AFF30080A5
:10250000F8B5474B5D6FAE892C88A988A4B2220725
:10251000B6B28FB24BD104F4807188B2002834D1A6
:1025200004F0200293B2002B24D106F0800188B27F
:1025300020B104F0800293B2002B59D104F0400482
:10254000A4B29CB1202383F3118836481021FFF7F1
:1025500077F8002383F311884FF6BF733340AB81C4
:10256000298821F040000204130C2B80BDE8F840BC
:10257000FEF7FEBB202383F311882948F9B2FFF749
:102580002FFB002383F31188CFE7202383F31188E7
:1025900024484FF40071FFF753F8002383F31188A8
:1025A0002A8822F480731904080C2880B8E704F004
:1025B000080082B2002A14BF80210021E30704F042
:1025C000020398B248BF41F0200108B141F0400138
:1025D00004F0040293B20BB141F48071202383F321
:1025E00011881048FFF72CF8002383F3118892E735
:1025F000202383F311880C48FFF722F9002805DB1C
:1026000081B2A980002383F3118897E70548082148
:10261000FFF716F826F0C00040F04002AA81F1E76B
:10262000B80A0020BC0A0020E80A0020AFF30080AE
:1026300010B540F6B824C2F2000442F2E14220464E
:102640000021C0F60002FFF7A3FA4FF48843C4F25A
:102650000003636710BD00BFAFF30080AFF30080DD
:1026600070B51F4EB5682C88AB88A4B240F20F132A
:10267000234013B3706803694FF6FF622A80E3B109
:1026800004F0080188B2002814BF10210021E207DD
:1026900004F0020290B248BF41F0040108B141F0D9
:1026A000080104F0040290B2B8B904F4807290B248
:1026B00008B141F040010A48984704F04004A4B230
:1026C0003CB1736859684FF6BF722A8009B104485B
:1026D0008847BDE87040FEF74BBB41F02001E4E7BE
:1026E000300B0020AFF30080AFF30080AFF3008029
:1026F00010B540F63034C2F200042046FFF7A8FAC5
:10270000064B4FF49042C4F2000203F11801062078
:10271000A260E0602361616110BD00BF3C4200081F
:10272000FFF706BDAFF30080AFF30080AFF300808A
:10273000704700BFAFF30080AFF30080AFF30080BD
:102740002DE9F04F0026DFF89491C4F20206102123
:1027500000240D4685B001223046C9F81040C9F862
:102760000C40C9F80840C9F80440C9F80040FFF718
:1027700027FE4FF47A703583FEF7D2FD1220758361
:10278000FEF7CEFD2946304622463583FFF718FE78
:102790000120FEF7C5FDA046A2460125CB46002438
:1027A00019E0D4B2FEF7BCFD3369C3F30011012078
:1027B0008D4204EB000219D1D4B2FEF7B1FD3069AD
:1027C000C0F30013621C01209D420FD1D4B2FEF76A
:1027D000A7FDFF2C54D03369C3F30011012000275B
:1027E0008D4204EB0002C4F20207DAD03D69FF2CEF
:1027F000C5F300151BD0B8F1030F11D918F0010F64
:102800000ED14FEADA010AF1010A59F8210042001B
:10281000102C88BF42F001024BF821205FFA8AFA9F
:1028200008F101085FFA88F8B8F1550FB7D1BAF18D
:10283000270FD9F80050D9F80440D9F80810D9F872
:102840000C3007D928194218D9F81060D018C2B234
:10285000964217D01D4E00208DE80A00FDF74CFE71
:1028600033682A46CDE9020118461949234600F08B
:102870004FFE3068174905B0BDE8F04F00F048BE84
:102880003B69D4E707EE901AB8EEE77AB2EE020A97
:1028900067EE000AB1EE041AC0EE811A00910B49EE
:1028A0000E6801939FED0C2A71EE822A12EE900AB7
:1028B000FDF722FE2A46CDE90201234630460449AF
:1028C00000F026FE05B0BDE8F08F00BF4C0B0020E5
:1028D000F04300082844000800000042500B00208C
:1028E0000B4B10B51C7804B110BD01221A7000F01A
:1028F00017F800F0D5F900F01BFA00F0D1F82046E7
:1029000000F0E6F800F02CFABDE8104001F008B83D
:10291000640B0020AFF30080AFF30080AFF30080C2
:1029200008B5054B986900B108BDFFF7C9F8BDE8C7
:102930000840FEF7B5BA00BFB8090020AFF3008029
:10294000034608B9FEF7FCBC421C0CD04FF47A7267
:1029500002FB03F344F6D350C1F26200591EA0FB00
:1029600001139A09501CFEF7DBBC00BFAFF30080D7
:10297000034600B97047411C0CD04FF47A7202FB39
:1029800003F34DF68360C4F21B30591EA0FB011304
:102990009A0C501CFEF7C4BCAFF30080AFF300806C
:1029A0008A42B8BF1146C260FEF70ABDAFF300808D
:1029B00008B54B1C12D04FF47A7303FB01F144F6B7
:1029C000D3520139C1F26202A2FB01239A09511CC0
:1029D000FEF74EFD013018BF012008BDFEF718FDBF
:1029E000012008BDAFF30080AFF30080AFF300809B
:1029F00008B5202383F311888168C368994201DAFE
:102A0000FEF746FDFEF7F4FB002383F3118808BDB3
:102A10000023436003607047AFF30080AFF3008092
:102A200000230B60202383F31188026832B14368CE
:102A300019604160002383F3118870474160016091
:102A4000F8E700BFAFF30080AFF30080AFF3008082
:102A500010B4B9B1202383F3118802687AB191428E
:102A600001D111E01A4613684BB19942FAD143687B
:102A70000C688B42146008BF42600020086000238D
:102A800083F3118810BC70470A68002302600B6052
:102A9000002383F31188F5E7AFF30080AFF30080E4
:102AA00010B540F66834C2F200042046FEF700FD7F
:102AB0002046FEF76DFD01F053F8BDE81040FEF72B
:102AC00077BD00BFAFF30080AFF30080AFF30080AD
:102AD00010B5044640F66830C2F20000FEF758FD1B
:102AE000204601F0D5FABDE81040FEF761BD00BFF9
:102AF0002DE9F04182B00546BDF8204040F668302F
:102B0000884617461E46C2F20000FEF741FD0094BB
:102B1000284641463A46334601F0FAFA02B0BDE88B
:102B2000F041FEF745BD00BFAFF30080AFF300807A
:102B3000F8B5044640F668300F4616461D46C2F208
:102B40000000FEF725FD2046394632462B4600F0B0
:102B5000CFFFBDE8F840FEF72BBD00BFAFF300800C
:102B60002DE9F04182B00546BDF8204040F66830BE
:102B7000884617461E46C2F20000FEF709FD009483
:102B8000284641463A46334601F0D2F902B0BDE844
:102B9000F041FEF70DBD00BFAFF30080AFF3008042
:102BA00005290AD8DFE801F00C12181E2403037B64
:102BB000407A00FB03F318B27047002318B2704745
:102BC000417B027902FB01F318B27047437BC07965
:102BD00000FB03F318B27047417B827902FB01F3DB
:102BE00018B27047037B407900FB03F318B27047BB
:102BF000017B027A02FB01F318B27047AFF3008049
:102C00008B7A83420AD8CA7A824207D3C01A0B69E8
:102C1000097B1A5C02FB01F000B27047002000B291
:102C2000704700BFAFF30080AFF30080AFF30080C8
:102C3000F0B4174D0778064605F10C0C55F8040B57
:102C4000026811783B4634464BB9D1F1010238BFD6
:102C5000002212B96545F1D30020F0BC70472A2B41
:102C600006D08B42F6D16378517801340132EBE71C
:102C700041B163788B4202D051780132F8E70134D8
:102C80000B46E1E76178D1F1010238BF0022E0E7AD
:102C900000080020AFF30080AFF30080AFF30080A6
:102CA00040F67830C2F20000FEF702BCAFF30080BD
:102CB00010B500216FF000420446FFF771FE0121BC
:102CC00004F110000A46FFF76BFE00232362238500
:102CD00010BD00BFAFF30080AFF30080AFF3008002
:102CE000F8B504460E461746A8B10E4804F1100583
:102CF000FEF74EFC28464FF0FF31FFF759FEA36860
:102D00006762002B266207DB2846FFF771FEBDE8ED
:102D1000F840FEF74DBCF8BD012020852046FFF7A6
:102D200067FEF1E7780B0020AFF30080AFF300807F
:102D300008B540F69830C2F2000000210122FFF7EA
:102D40002FFE40F68830C2F20000BDE80840FEF7D2
:102D5000AFBB00BFAFF30080AFF30080AFF30080E4
:102D600008B500F025F9BDE8084000F0E1BA00BF61
:102D700070B50D4682B0044600281FD08382164BE2
:102D8000164918880968164E164B096836881B685C
:102D9000626060828A6826822946A3612046904745
:102DA000054618B9A08AC30703D40024204602B000
:102DB00070BD2046FEF73CFE2C46F7E751680192B5
:102DC0000093FEF7EDFD019A009B04460028ECD02D
:102DD00043F00100A082D2E7AC0B0020F80B0020EA
:102DE0000C080020A80B0020AFF30080AFF3008098
:102DF00040F6AC33C2F2000318807047AFF3008096
:102E000040F6AC33C2F2000318887047AFF300807D
:102E100040F6A833C2F2000318607047AFF3008099
:102E200008B5828A21B102F0020189B271B108BDF0
:102E300002F0020189B20029F9D00949096809683C
:102E400022F0020282820B69984708BD0449096892
:102E5000096842F0020282820B69984708BD00BFF0
:102E6000F80B0020AFF30080AFF30080AFF30080D9
:102E700030B5838A044603F0020081B283B009B9F9
:102E800003B030BDB4F90800B4F90A10B4F90C204D
:102E9000B4F90E30FFF74CFE658AB4F90C20B4F992
:102EA0000E30B4F90800B4F90A100095FFF720FEBF
:102EB00062681369002BE3D020469847E0E700BF23
:102EC0002DE9F0410B88A3F5807001280D4629D823
:102ED00034490C6814B925E024681CB3A38A03F0B4
:102EE0003202322AF8D103F0800081B2E1B1A88920
:102EF000698900F0010232EA010144D06668F6698E
:102F000023F08003A382002EE6D0A888218963895C
:102F1000EA88411AD21A204609B212B2B047246890
:102F2000002CDBD1BDE8F0816A89A88902F001019B
:102F30008143D1D0AE88208932B201B28A42CBDB44
:102F4000B4F90C70C9198A42C6DAB5F806C06789A7
:102F50000FFA8CF239B28A42BEDBB4F90E804144DA
:102F60008A42B9DA6268D2F8188043F08003A382FB
:102F7000B8F1000FB0D0311AC7EB0C02204609B2ED
:102F800012B2C047A8E763681B6A002BA4D0E88888
:102F9000AE8821896289711A821A09B2204612B25A
:102FA000984799E7FC0B0020AFF30080AFF3008057
:102FB00010B540F6B034C2F200042046FFF778FEA8
:102FC00042F6C1612046C0F600010022BDE8104073
:102FD000FFF786BEAFF30080AFF30080AFF3008051
:102FE000838A10B5044603F0020081B269B1B4F9D6
:102FF0000800B4F90A10B4F90C20B4F90E30FFF748
:1030000097FD2046226A616A904710BDAFF30080A9
:10301000838A03F0200293B210B44BB151B10C4635
:103020000A88498884624282018210BCFFF7D8BFB7
:1030300010BC7047014C2468F2E700BF1008002064
:1030400070B5104E002818BF0646A1B10E4B1C6883
:103050008CB10E4DA08A00F020018AB21AB1A06A8C
:103060002B68984209D02468002CF3D13088FFF7F0
:10307000BFFE2E6070BD054DF8E720463146FFF7D4
:10308000C7FFF0E7704A0008FC0B00201008002082
:10309000704700BFAFF30080AFF30080AFF3008054
:1030A000704700BFAFF30080AFF30080AFF3008044
:1030B000704700BFAFF30080AFF30080AFF3008034
:1030C0002DE9F04F85B00E1E044615461F46BDF98A
:1030D00038807CDB002D324674DB3F49B1F800C0FC
:1030E0000FFA8CF9A9F1020090422B4603DCACF1F7
:1030F000030636B23246498808B2A0F1020A9A4560
:1031000002DCCD1E2DB22B46022FD8BF0327D219C9
:10311000B8F1020FD8BF4FF0030891454344BB46B6
:10312000BCBFC6EB0C073FB2B4F908909842C24648
:10313000BCBFC5EB01080FFA88F8B14535D0A38AAA
:1031400003F0020188B238B926816581A781A4F80D
:103150000E8005B0BDE8F08F6289B4F80CB0B4F809
:103160000EA00392FFF74CFE039B009019B20FFADA
:103170008BF20FFA8AF34846FFF7BAFCA18A268140
:103180008B076581A781A4F80E80E2D56068C268CC
:10319000002ADED03046294643463A46FFF7C8FCAF
:1031A00063682046D9688847D3E7B4F90A10A94272
:1031B000C5D1B4F90C00B842C1D1B4F90E204245D2
:1031C000BDD1C6E7A8440FFA88F8002585E79F1906
:1031D0003FB200267EE700BF040C0020AFF3008062
:1031E00030B50C46054640F6FC3083B02946C2F2A5
:1031F0000000FFF715FCB4F90010B4F90220B4F98F
:103200000430B4F9064028460094FFF759FF012026
:1032100003B030BDAFF30080AFF30080AFF30080A8
:103220002DE9F041838A03F00202044690B282B095
:1032300088B123F00201A1822689B4F80A80A78907
:10324000E589FFF7DDFD0FFA88F100903AB230B260
:103250002BB2FFF74DFC0348214602B0BDE8F04118
:10326000FFF7F6BBFC0B0020AFF30080AFF300804C
:1032700010B5014604460F48FFF7EAFB0D4821460A
:10328000FFF7CEFBA38A03F0020081B281B162682E
:10329000D3686BB1B4F90800B4F90A10B4F90C2082
:1032A000B4F90E30FFF744FC61682046CA689047C5
:1032B00010BD00BFFC0B0020AFF30080AFF3008017
:1032C000F0B5044683B0B0F90800B4F90A10B4F9B7
:1032D0000E30B4F90C20FFF72BFCA38A03F0020098
:1032E00081B231B16268D3688BB12046984703B090
:1032F000F0BD25896789A689E489FFF781FD39B288
:10330000009032B228B223B2FFF7F2FBEFE7B4F934
:103310000800B4F90A10B4F90C20B4F90E30648A2C
:103320000094FFF7E5FBE2E7AFF30080AFF3008026
:1033300040F6FC3008B5C2F20000FFF769FB40F62A
:10334000F833C2F2000344F6D022C0F600021A603D
:1033500008BD00BFAFF30080AFF30080AFF3008083
:1033600000238383C3837047AFF30080AFF30080F3
:10337000F0B4002B08BF0B46074600F10B0C00F120
:103380000A05B1FBF2F602FB161101F13004392CEB
:10339000C8BF01F13704E4B2B3FBF2F3284631466B
:1033A00005F80149002BECD1C0EB0C03F9430246B0
:1033B000F8184318DB070AD507F8014B12F8014F3C
:1033C00005E012F8014F7C7012F8014F5F1C3B467C
:1033D00003F8014B8342F4D1F0BC7047AFF3008097
:1033E00038B5074A00230D46FFF7C2FC044628B152
:1033F00000238383C383297AFFF712FD204638BD5B
:10340000F04A0008AFF30080AFF30080AFF3008014
:10341000F0B543683A4DAB4283B004460E4601D046
:1034200003B0F0BD80690028FAD00021FFF7B8FB97
:1034300003210546A069FFF7B3FBB4F90A10B4F9FC
:103440000C20B4F90E300746B4F90800FFF770FB02
:103450000A2E30D00D2EE3D0A1693046FFF7D0FB05
:10346000B4F91C10B4F90C20C019C7B2CB1993429F
:10347000E18BEDB219DAB4F90E3005FA81F0984219
:1034800020DCA28B89B252B3B4F808E06589208AA7
:10349000A36900907244491910B209B23246FFF78D
:1034A0005FFBA38BFF18A783BAE7691889B20020D6
:1034B000A083E183DFE7E08B002250FA85F5A28349
:1034C000E583ADE7B4F812E0B4F90A10B4F90800E6
:1034D000CDF800E0FFF70CFB0021A183E183B4F8F5
:1034E0000AC0638AB4F90C20B4F90800009361445F
:1034F00009B22B46FFF7FCFAA28BE18BC4E700BFB1
:10350000F04A0008AFF30080AFF30080AFF3008013
:103510000EB42DE9F04F2DED028B4368734A8CB049
:1035200093428046179E06D00CB0BDEC028BBDE8DE
:10353000F04F03B0704780690028F5D00DF1190CE9
:103540000DF1180ACDF800C018A9CAEB0C0C0591B2
:10355000CDF804C0344614F8011B0029E4D0252915
:103560000AD0264634464046FFF752FF14F8011BA6
:103570000029D9D02529F4D173782D2B00F0A28110
:1035800000272E2B00F09A8120252646059900243D
:1035900006E00A78043104EB840302EB4304337839
:1035A000A3F13002D2B20136092AF4D92A2BF0D085
:1035B00000202E2B05914BD06C2B55D04C2B53D08B
:1035C000A3F1410119298CBF00210121A3F144027B
:1035D000342A00F26D81DFE812F05B016B016B01B0
:1035E0006B016B016B016B016B016B016B016B017B
:1035F00059016B016B016B016B016B0151016B0197
:103600006B0143016B016B016B016B016B016B0182
:103610006B016B016B016B0138015B016B018B006E
:103620006B016B016B016B016B016B016B016B013A
:1036300059016B016B016B014F006B0151016B0173
:103640006B0143010A78043100EB800002EB40007B
:1036500016F8013BA3F13002D2B2092AF4D92A2B81
:10366000F0D06C2B0591A9D13178002900F02E8182
:103670000B4601360121A9E7059D44F6E0292B6898
:10368000C0F60009002B18BF9946291D99F80020A3
:10369000059147F6FF75002808BF2846002A00F06C
:1036A000388199F80130411E09EB000B09F1010244
:1036B00001F00100B3B19345134600F0178160B1EA
:1036C0005578013275B19345134606D10EE1557810
:1036D00001323DB19B4500F0098158785A1C531CBA
:1036E0000028F4D1C9EB020B202542E0F04A000883
:1036F000059AD01D20F0070101F10803D1E900016E
:103700000593FDF78DF908EE100AB5EEC08AF1EECB
:1037100010FA00F1F6805046FDEEC88A0A22002316
:1037200018EE901AFFF724FE81462E2009F8010BAF
:1037300018EE100AFCF7E0FECDE9020118EE900A3F
:10374000FCF7C8FE02460B46DDE90201FCF774FDFA
:1037500071A3D3E90023FCF723FFFDF739F90A220F
:10376000014642F210734846FFF702FED146CAEB0B
:10377000000BCBEB040424EAE4740FBB6442FCB1FD
:1037800099F800102D2900F0A38040462946E74310
:10379000FFF73EFE013407F0010711D02FB140467C
:1037A0002946FFF735FE01340AD040462946FFF787
:1037B0002FFE013440462946FFF72AFE0134F4D19A
:1037C000BBF1000F26DD4F46CB446FEA090E17F818
:1037D000011B0BEB0E0C40460CF00109FFF718FE25
:1037E0005F4517D0B9F1000F06D017F8011B40460E
:1037F000FFF70EFE5F450DD0B946404619F8011B94
:10380000FFF706FE7978404609F10107FFF700FE51
:103810005F45F1D1002C3FF49DAE631E1C4640462F
:10382000294603F00107FFF7F3FD002C3FF492AEA9
:1038300027B940462946FFF7EBFD013C40462946A3
:10384000FFF7E6FD013CF4D184E6059DDDF804B008
:1038500029682B1D05938DF818102025D14688E77F
:103860001022059B71B1191D05911968504600235E
:10387000FFF77EFDD146CAEB000B7AE70A22059BD3
:103880000029F0D1181D19680590EFE70822E8E734
:10389000059B1A1D39B31968059200292ADB504689
:1038A0000A220023FFF764FDD146CAEB000B60E754
:1038B0008DF81830DDF804B0D1465AE7637830252A
:1038C000013462E6B41CB37801275AE601217DE693
:1038D000302D7FF45AAF4046FFF79AFD09F10109F8
:1038E0000BF1FF3B51E719680592D6E7C9EB0B0BCB
:1038F00020253EE72D208DF8180049420DF11900D2
:10390000CEE72D228DF81820B1EE488A0DF119006E
:1039100002E7934620252CE700000000006AF840EB
:10392000704700BFAFF30080AFF30080AFF30080BB
:1039300070B46D4C2479032C00F2B780DFE804F0FA
:103940008E5C2A028518461E013DC9B200234FF045
:10395000C044C6F20203B21841EA0526B5B24426B5
:103960002680C0051D80D20545252580C00DD20DBD
:103970004625188025801A8000234FF0C042C6F2E9
:10398000020389B24E24148019804F2111801880BF
:1039900070BC704786B2C6F1F00489B2A21AC1F5B4
:1039A000A075C0F1EF00D2B20024C6F20204EB1AF7
:1039B00042EA00224FF0C045C1F59F7190B201313B
:1039C000DB0544222A80DB0D2080C90545202880A4
:1039D000C90D238046232B8021804FF0C042C6F1C1
:1039E000EF000023C6F20203C6B24E2010804F2023
:1039F0001E8010801980CBE78EB2C6F1F00480B231
:103A0000E31AC0F5A075C1F1EF01DBB20024C6F2E4
:103A10000204AA1A43EA01234FF0C045C0F59F7083
:103A200099B20130D20544232B80D20D2180C005EC
:103A300045212980C00D228046222A8020804FF017
:103A4000C042C6F1EF010023C6F20203CEB24E21FE
:103A500011804F211E801180188099E786184D1E15
:103A6000721EC0B20024C6F20204EB1840EA02261D
:103A70004FF0C045B2B244262E80C9052280DB0536
:103A800045222A80C90DDB0D462221802A80238011
:103A900000234FF0C042C6F2020380B24E241480CD
:103AA00018804F201080198072E7032C3FF670AF0A
:103AB000DFE804F0060A1202C005C9B2C00D5BE7D8
:103AC000CC05C0B2E10DE3E785B2C5F59F76731C66
:103AD000DA058EB2D00DB2E78DB2C5F59F76731CB4
:103AE000DA0586B2D10D78E7040C0020AFF3008030
:103AF0002DE9F001164C268835B2854224DDB4F854
:103B000002C00FFA8CF78F421EDD002A1CDB002B4F
:103B10001ADB20EAE07000EB0208A84521EAE17117
:103B20001FFA80F801EB0305C4BFC8EB060632B2EA
:103B3000BD428DB2C4BFC5EB0C031BB24244EB18AF
:103B400020816181A281E381BDE8F001704700BF5F
:103B5000040C0020AFF30080AFF30080AFF30080CF
:103B60002DE9F04F44F2C0134FF46054C4F2020444
:103B7000C0F6000393E80700A66B89B00C3302ADD2
:103B800046F00107A76385E8070093E8070005AC46
:103B900084E80700284640F20261FDF7A9FF2046AD
:103BA00040F20261FDF7A4FF40F60A274FF02043E0
:103BB0000026C0F20A075F604FF48061C4F202067B
:103BC00041F211071F6019228846304600244FF049
:103BD000C045C6F20204FEF7F3FB1420A6F81A80D3
:103BE0000027FEF7ADFE4FF001091420A6F818805B
:103BF000FEF7A6FE2F800520A4F80090FEF7B8FE81
:103C00004FF0030A4AF6A401A5F800A00520218080
:103C1000FEF7AEFE0C20288005202780FEF7A8FEC8
:103C200040F60C060D222A8005202680FEF7A0FE15
:103C30000E234FF42C512B8005202180FEF798FE97
:103C4000B0221E20288042F63F3622800520FEF753
:103C50008FFEA5F8009005202680FEF789FE4FF420
:103C6000C06102232B8005202180FEF781FE1020F9
:103C70002880052027800526FEF77AFE112246F2CD
:103C800070032A8030462380FEF772FE2E80304675
:103C90002780FEF76DFE0621298030462780FEF73B
:103CA00067FE4EF61C721620288022803046FEF7F2
:103CB0005FFE17232B803046A4F800A0FEF758FEC5
:103CC000072101F59672298030462280FEF750FECA
:103CD0000B20288030462780FEF74AFE0F232B80DA
:103CE00030462780FEF744FE412129803046278058
:103CF000FEF73EFE42222A8030462780FEF738FE3D
:103D00004820288030462780FEF732FE40F23F1BD5
:103D100049232B803046A4F800B0FEF729FE4A2143
:103D2000298030462780FEF723FE4B222A8030462A
:103D30002780FEF71DFE4FF46F4344202880238028
:103D40003046FEF715FE4521298030462780FEF7D4
:103D50000FFE46222A803046A4F800B0FEF708FE87
:103D600040F207733020288023803046FEF700FEA3
:103D70004FF40178312129803046A4F80080FEF705
:103D8000F7FD32222A803046A4F8008040F2025B20
:103D90000192FEF7EDFD332028803046A4F800B0F4
:103DA000FEF7E6FD342340F207512B803046218098
:103DB000FEF7DEFD35222A803046A4F80080FEF7AB
:103DC000D7FD362028803046A4F80080FEF7D0FDCD
:103DD00037232B803046A4F800B0FEF7C9FD08F168
:103DE000FE083A2129803046A4F80080FEF7C0FD85
:103DF0003B222A803046A4F80080FEF7B9FD23203C
:103E0000288030462780FEF7B3FD24232B803046E0
:103E10002780FEF7ADFD25214FF400422980304672
:103E20002280FEF7A5FD4F20288030462780FEF730
:103E30009FFD4E232B8030462780FEF799FD40F6EC
:103E40000443C2F2000364249C7101991F71F020A5
:103E50004FF4A072188098815A8083F805A0D97118
:103E60001F815F81DA81484609B0BDE8F08F00BF4D
:103E70002B4B30B4B3F9084084420BDCB3F90A4051
:103E80008C4207DCB3F90C40844203DDB3F90E40E9
:103E90008C4201DC30BC70471B79032B16D8DFE85D
:103EA00003F0382D021EC1F59F71002301314FF040
:103EB000C044C6F20203C0F1EF00CD05C0B2E90D67
:103EC0004E25258018804F20208019800023C6F2BF
:103ED00002034FF0C041222008801A80DAE7002355
:103EE0004FF0C044C6F20203C505C9B2E80D4E2525
:103EF000258019804F2121801880E7E7C0F59F7049
:103F0000002301304FF0C044C6F20203C1F1EF01BB
:103F1000EAE700234FF0C044C6F20203CDE700BF3A
:103F2000040C0020AFF30080AFF30080AFF30080FB
:103F30002DE9F04F9C7A8DB09442BDF85860059100
:103F400000F2A380D97A9142C0F09F80121B1969B8
:103F5000895C002900F099801C7B5F7B5D6904947B
:103F6000009735F812401F799A69049B03FB01F111
:103F700009B2009B0B9102EB4402002907FB03F3FB
:103F8000089240F38280049C80B22118009C0A9021
:103F90008AB200201BB209929146079003930FFA50
:103FA00084FB0899039831F8022B002808910192AC
:103FB0005BDD0A9B079C1919002288B202920690C9
:103FC000019BDB0744D5049C002C41D0029D059F3A
:103FD000E919069F8DB2009A002A35D03CB24FF005
:103FE000010A204629B232460BF1FF38FFF740FFA5
:103FF000D34508EA0A0827DDB8F1000F0AD005EB1F
:104000000A03204619B232464FF0020AFFF730FF8A
:10401000D34519DD05EB0A010AF1010A1FFA8AFAF4
:10402000204609B23246FFF723FF05EB0A0220467D
:1040300011B23246FFF71CFF0AF101001FFA80FAA5
:104040000FFA8AF39B45E5DC0137BFB24F45C2D179
:104050000299009C621890B201B283B2019C03984D
:104060000293620888420192AADC0499099B049C8D
:10407000079A89441FFA89F9C3EB0901A0180B9C20
:104080000BB29C4281B207918BDC0DB0BDE8F08F82
:1040900038B51D4D04460020B5F90230B5F90020B1
:1040A0000146FFF745FC2B79032B0FD8DFE803F01F
:1040B000021C1C024FF0C0410023C6F202034E2036
:1040C000088000224F201A8008801A804FF0C043D9
:1040D0000022222119804FF49630C6F202020238E3
:1040E00014801480FBD138BD4FF0C0420020C6F2CE
:1040F00002004E211180EF234F210380118040F2F6
:104100003F120280E2E700BF040C0020AFF3008002
:10411000F8B52A4EBDF81870B6F908C084451446A3
:104120001D4604DDCCEB0000841824B26046B6F9CD
:104130000A308B4203DDC91A4D192DB21946002CE5
:1041400038DD002D36DDB28913B2984232DA1B4ECB
:10415000B6F80EC00FFA8CF6B1422BDA00EB040E63
:104160009E45C4BFC0EB020214B24A19B242C4BF9A
:10417000C1EB0C052DB222462B46FFF7D9FB4FF0C1
:10418000C041222005FB04F408809CB10023C6F244
:1041900002030121621E8C421F8002F001000BD03D
:1041A00018B102218C421F8005D002318C421F8041
:1041B0001F80FAD1F8BDF8BDF8BD00BF040C002087
:1041C000000C0240B3CF00000000000000100240CD
:1041D00080FF000000000000000000000000000060
:1041E00069646C6500000000000000000000000031
:1041F0006D61696E0016C011040448080C10141893
:10420000001C1D1E1F200000000000000000000018
:10421000311B0008111B0008711B0008511B00080E
:10422000611B0008411B0008211B0008011B00083E
:10423000106002400860024000000B00286002404D
:104240000860024006010C00406002400860024025
:1042500010020D00586002400860024016030E0074
:10426000706002400C60024000040F008860024051
:104270000C60024006051000A06002400C60024085
:1042800010061100B86002400C60024016072F00B3
:1042900010640240086402400008380028640240AC
:1042A0000864024006093900406402400864024084
:1042B000100A3A005864024008640240160B3B00A2
:1042C000706402400C640240000C3C0088640240B0
:1042D0000C640240060D4400A06402400C640240DD
:1042E000100E4500B86402400C640240160F4600F0
:1042F00000AAA02A00000000FFABFFFF540001400D
:10430000FFFF00000000565500AA0A0080200800A8
:1043100040020000FFFFFFFF15455155FFFF000061
:1043200000000004400000000180200200000000A6
:10433000FFFFFFFF54154554FFFF00000000006021
:10434000000606000001005500000000FFFFFFFF0F
:1043500055505500FF0F0000000000000000000055
:104360004000000000000000FFFFFFFF0000000011
:10437000FFFF00000000000000000000000000003F
:1043800000000000FFFFFFFF00000000FFFF000033
:10439000000000000000000000000000000000001D
:1043A000FFFFFFFF00000000FFFF00000000000013
:1043B000000000000000000000000000FFFFFFFF01
:1043C00000000000FFFF00000000000000000000EF
:1043D0000000000000000000FFFFFFFF00000000E1
:1043E000FFFF0000000000000000000000000000CF
:1043F00048756D6964697479203D2025642E2564B3
:104400002025252054656D70657261747572652074
:104410003D2025642E2564202A432028252E316640
:10442000202A46290A00000044617461206E6F74DE
:1044300020676F6F642C20736B69700A00000000A6
:1044400055493200576974616D792077206B6F6E22
:10445000736F6C69210D0A0A000000004F64637AD3
:1044600079742074656D70207A20637A756A6E693C
:104470006B6F77204453313842323020636F2031E4
:10448000732E0D0A00000000000000000000000074
:10449000104900080B010D02020C207E02020000F0
:1044A00030490008B0490008B0440008000000008E
:1044B000000000007E017E010700070000000700E9
:1044C0000700C000D803F800DE00D803F800DE00C3
:1044D000180098003C01E4073F01E401C8001C00FB
:1044E0003E0022003E009C0160001800E600F00142
:1044F0001001F001E000EC00FE0112013E016C0130
:10450000C000B001100107000700F800FE03070714
:10451000010401040707FE03F8000A0004001F005D
:104520001F0004000A000000200020002000FC0101
:1045300020002000200080078003200020002000B1
:104540002000800180010006800170000C00030043
:10455000FC00FE0102010201FE01FC00000004015A
:10456000FE01FE01000100008401C601620132016A
:104570001E010C018400860112011201FE01EC00F3
:10458000600050004800FC01FE01400080009E01D8
:104590001E011201F201E200FC00FE0112011201F3
:1045A000F201E00002000200C201FA013E00060032
:1045B000EC00FE0112011201FE01EC001C003E01A4
:1045C00022012201FE01FC0098019801980798033E
:1045D0000000200050005000880088000401040101
:1045E00000004800480048004800480048004800D3
:1045F00000000401040188008800500050002000E1
:104600000400620172011E000C00F8000401720235
:10461000FA028A027A02FA0284007800C001F801E4
:104620007E0046007E00F801C001FE01FE0112017D
:104630001201FE01EC00FC00FE0102010201020178
:104640000201FE01FE01020102018601FC00780068
:10465000FE01FE01120112011201FE01FE01120013
:1046600012001200FC00FE01020102012201E2011F
:10467000E201FE01FE01100010001000FE01FE012B
:104680000201FE01FE010201000102010201FE0120
:10469000FE00FE01FE017800CC0086010201FE0151
:1046A000FE01000100010001FE010E001C003800A7
:1046B000300018000C00FE01FE01FE010E001C007F
:1046C00038007000FE01FC00FE010201020102013F
:1046D000FE01FC00FE01FE01220022003E001C0043
:1046E000FC00FE01020102030207FE05FC04FE01BC
:1046F000FE0122006200FE009C0100011C013E013F
:1047000032013201F201E20002000200FE01FE016C
:1047100002000200FE00FE01000100010001FE0196
:10472000FE000E007E00F001F0017E000E000E0083
:104730007E00F001E0013E003E00E001F0017E005D
:104740000E008601CE0178007800CE0186010600B9
:104750001E00F801F8011E000600C201E20172010C
:104760003A011E010E01FF07FF07010401040300C7
:104770000C0070008001000601040104FF07FF0720
:1047800010000800040002000400080010000004EB
:104790000004000400040004000400040000010000
:1047A00003000200C000E80128012801F801F0011F
:1047B000FF01FF0108010801F801F000F000F80115
:1047C000080108010801F000F80108010801FF01D3
:1047D000FF01F000F8012801280138013001FE0135
:1047E000FF0109000100F000F80508050805F807B9
:1047F000F803FF01FF0108000800F801F001FA01C9
:10480000FA010804FA07FA03FF01FF016000F00053
:1048100098010801FF01FF01F801F80108000800F4
:10482000F801F00108000800F801F001F801F801B2
:1048300008000800F801F001F000F8010801080183
:10484000F801F000F807F80708010801F801F00086
:10485000F000F80108010801F807F807F801F8016D
:1048600010001800300178016801E801C800FE005E
:10487000FE0108010801F800F80100010001F8013B
:10488000F80118007800E001E001780018007800D5
:10489000F801C00178007800C001F80178009801A3
:1048A000F80160006000F801980118007806E00740
:1048B000E001780018008801C8016801380118017A
:1048C00020002000FE03DF070104010400000000B7
:1048D000FF07FF0701040104DF07FE03200020009B
:1048E0006000100010003000600040004000300008
:1048F0001C4900080B010D02020C207E0102000081
:1049000030490008B0490008B04400080000000029
:1049100055493220446F75626C650000554932205C
:104920004E6172726F77000000000000000000000E
:1049300002020508060C0802040406080204020527
:10494000060606060606060606060202080808050A
:1049500009070606070505070704050605090607F2
:10496000060707060607060A0606060405040707E3
:10497000040606050606040606020306020A0606E3
:1049800006060405040606080606050604060800D1
:10499000404400080B010D02020C207E01010000C2
:1049A00030490008B0490008B04400080000000089
:1049B00000000200040009001100170023002B0072
:1049C0002D00310035003B004300450049004B00FD
:1049D000500056005C00620068006E0074007A00AF
:1049E000800086008C008E0090009800A000A80037
:1049F000AD00B600BD00C300C900D000D500DA008C
:104A0000E100E800EC00F100F700FC0005010B01FB
:104A1000120118011F0126012C01320139013F0149
:104A200049014F0155015B015F01640168016F019C
:104A300076017A01800186018B01910197019B012A
:104A4000A101A701A901AC01B201B401BE01C401D9
:104A5000CA01D001D601DA01DF01E301E901EF016A
:104A6000F701FD01030208020E0212021802000003
:104A7000000018C618C60C63084210840842084299
:104A80000002FFFF18C61CE7000400000000000041
:104A9000FFFF000008421CE71CE718C610841CE753
:104AA00018C70842084210840007000000000000F8
:104AB00091300008A1300008E131000821320008DF
:104AC000C1320008C130000871320008B13000085E
:104AD000B04A0008000000000000000000000000D4
:104AE000286E756C6C290000436F6E736F6C6500E7
:104AF000E84A00082000000000000000000000005C
:044B00006133000815
:104B08009049000890440008F0480008FFFF0000A2
:044B1800704A0008D7
:0400000508000AE104
:00000001FF
