:020000040800F2
:10000000000400206111000861130008611300085A
:1000100061130008611300086113000861130008F0
:1000200061130008611300086113000881130008C0
:1000300061130008611300086113000881140008AF
:1000400061130008611300086113000861130008C0
:1000500061130008611300086113000861130008B0
:10006000611300086113000861130008E120000813
:10007000112100084121000871210008A121000878
:10008000D121000801220008611300086113000853
:100090006113000861130008611300086113000870
:1000A0006113000861130008611300086113000860
:1000B000611300086113000891260008611300080D
:1000C0006113000861130008611300086113000840
:1000D0006113000861130008611300086113000830
:1000E0006113000861130008611300086113000820
:1000F0006113000861130008611300083122000831
:1001000061130008611300086113000861130008FF
:1001100061130008611300086113000861130008EF
:100120006122000891220008C1220008F122000883
:1001300021230008611300086113000861130008FF
:10014000611300086113000861130008B12A000858
:100150005123000881230008B1230008611300081F
:10016000611300086113000861130008611300089F
:10017000611300086113000861130008611300088F
:0801800061130008611300087F
:100190002DE9F84F03F0F4F80A2001F0F1FB0020FC
:1001A00003F086FC0A2001F0EBFB002003F080FC4A
:1001B0000A2001F0E5FB002003F07AFC464B47489B
:1001C00019885A88464C0180228002F091FEDFF89F
:1001D00028B1DFF82891434F434E444D0024444852
:1001E000444902F0DDFE32882B884148398802F00C
:1001F000A7FF3F483F4903F01BF847F63850C2F2CB
:1002000000003988B0F800E032882B88BBF800C0C5
:10021000B9F8000061447244C3181FFA81FC1FFA48
:1002200082FE98B21FFA8CF11FFA8EF283B2B4F5F7
:10023000C87F398032802B8019DD47F6385AC2F2E8
:10024000000A4FF00108B4F5487FAAF800800EDDDF
:1002500041F6285AC2F2000AB4F5966FAAF8008057
:1002600005DD41F2261AC2F2000AAAF8008009B29E
:100270000134B1F5005F13DB12B2ACF5005CB2F5EE
:10028000005FA7F800C016DB1BB2AEF5005EB3F549
:10029000005FA6F800E019DBA0F5005129809EE779
:1002A0000029B8BF0CF5005C12B2B8BFA7F800C0B7
:1002B000B2F5005FE8DA002AB8BF0EF5005E1BB2A7
:1002C000B8BFA6F800E0B3F5005FE5DA002B86DAE8
:1002D00000F50050288082E740950020241100207E
:1002E0003C9500202C2500202E25002030250020C4
:1002F0003C7D002034250020281D002026110020F0
:1003000081F0004102E000BF83F0004330B54FEAC6
:1003100041044FEA430594EA050F08BF90EA020F33
:100320001FBF54EA000C55EA020C7FEA645C7FEAC6
:10033000655C00F0E2804FEA5454D4EB5555B8BFE9
:100340006D420CDD2C4480EA020281EA030382EA5A
:10035000000083EA010180EA020281EA0303362DEC
:1003600088BF30BD11F0004F4FEA01314FF4801CBF
:100370004CEA113102D0404261EB410113F0004FD1
:100380004FEA03334CEA133302D0524263EB430388
:1003900094EA050F00F0A780A4F10104D5F1200E26
:1003A0000DDB02FA0EFC22FA05F2801841F1000181
:1003B00003FA0EF2801843FA05F359410EE0A5F155
:1003C00020050EF1200E012A03FA0EFC28BF4CF086
:1003D000020C43FA05F3C01851EBE37101F000453C
:1003E00007D54FF0000EDCF1000C7EEB00006EEB49
:1003F0000101B1F5801F1BD3B1F5001F0CD34908D3
:100400005FEA30004FEA3C0C04F101044FEA445229
:1004100012F5800F80F09A80BCF1004F08BF5FEAB0
:10042000500C50F1000041EB045141EA050130BD90
:100430005FEA4C0C404141EB010111F4801FA4F133
:100440000104E9D191F0000F04BF01460020B1FA88
:1004500081F308BF2033A3F10B03B3F120020CDAC0
:100460000C3208DD02F1140CC2F10C0201FA0CF09E
:1004700021FA02F10CE002F11402D8BFC2F1200C03
:1004800001FA02F120FA0CFCDCBF41EA0C019040B9
:10049000E41AA2BF01EB0451294330BD6FEA040402
:1004A0001F3C1CDA0C340EDC04F11404C4F12002ED
:1004B00020FA04F001FA02F340EA030021FA04F3FF
:1004C00045EA030130BDC4F10C04C4F1200220FA56
:1004D00002F001FA04F340EA0300294630BD21FA94
:1004E00004F0294630BD94F0000F83F4801306BF5A
:1004F00081F480110134013D4EE77FEA645C18BF4E
:100500007FEA655C29D094EA050F08BF90EA020FE4
:1005100005D054EA000C04BF1946104630BD91EADC
:10052000030F1EBF0021002030BD5FEA545C05D1DF
:100530004000494128BF41F0004130BD14F580041E
:100540003CBF01F5801130BD01F0004545F0FE4192
:1005500041F470014FF0000030BD7FEA645C1ABFC7
:10056000194610467FEA655C1CBF0B46024650EAFE
:10057000013406BF52EA033591EA030F41F400212A
:1005800030BD00BF90F0000F04BF0021704730B5B0
:100590004FF4806404F132044FF000054FF0000185
:1005A00050E700BF90F0000F04BF0021704730B546
:1005B0004FF4806404F1320410F0004548BF40421B
:1005C0004FF000013EE700BF42004FEAE2014FEA70
:1005D00031014FEA02701FBF12F07F4393F07F4F4B
:1005E00081F06051704792F0000F14BF93F07F4F7D
:1005F000704730B54FF4607401F0004521F00041C0
:1006000020E700BF50EA010208BF704730B54FF045
:1006100000050AE050EA010208BF704730B511F04A
:10062000004502D5404261EB41014FF4806404F182
:1006300032045FEA915C3FF4DCAE4FF003025FEA04
:10064000DC0C18BF03325FEADC0C18BF033202EB8C
:10065000DC02C2F1200300FA03FC20FA02F001FAE6
:1006600003FE40EA0E0021FA02F11444C1E600BF85
:1006700070B54FF0FF0C4CF4E06C1CEA11541DBF38
:100680001CEA135594EA0C0F95EA0C0F00F0DEF803
:100690002C4481EA030621EA4C5123EA4C5350EAE8
:1006A000013518BF52EA033541F4801143F4801339
:1006B00038D0A0FB02CE4FF00005E1FB02E506F0CA
:1006C0000042E0FB03E54FF00006E1FB03569CF01F
:1006D000000F18BF4EF0010EA4F1FF04B6F5007F25
:1006E00064F5407404D25FEA4E0E6D4146EB060697
:1006F00042EAC62141EA55514FEAC52040EA5E5020
:100700004FEACE2EB4F1FD0C88BFBCF5E06F1ED8C9
:10071000BEF1004F08BF5FEA500E50F1000041EB00
:10072000045170BD06F0004646EA010140EA0200AD
:1007300081EA0301B4EB5C04C2BFD4EB0C0541EACF
:10074000045170BD41F480114FF0000E013C00F3E4
:10075000AB8014F1360FDEBF002001F0004170BD08
:10076000C4F10004203C35DA0C341BDC04F1140421
:10077000C4F1200500FA05F320FA04F001FA05F2AD
:1007800040EA020001F0004221F0004110EBD3707A
:1007900021FA04F642EB06015EEA430E08BF20EAA6
:1007A000D37070BDC4F10C04C4F1200500FA04F349
:1007B00020FA05F001FA04F240EA020001F00041DB
:1007C00010EBD37041F100015EEA430E08BF20EA4E
:1007D000D37070BDC4F1200500FA05F24EEA020E96
:1007E00020FA04F301FA05F243EA020321FA04F0C5
:1007F00001F0004121FA04F220EA020000EBD3707C
:100800005EEA430E08BF20EAD37070BD94F0000F7B
:100810000FD101F00046400041EB010111F4801FAF
:1008200008BF013CF7D041EA060195F0000F18BF60
:10083000704703F00046520043EB030313F4801F9C
:1008400008BF013DF7D043EA0603704794EA0C0F56
:100850000CEA135518BF95EA0C0F0CD050EA41066C
:1008600018BF52EA4306D1D181EA030101F00041E9
:100870004FF0000070BD50EA410606BF1046194611
:1008800052EA430619D094EA0C0F02D150EA01361D
:1008900013D195EA0C0F05D152EA03361CBF10465E
:1008A00019460AD181EA030101F0004141F0FE41FD
:1008B00041F470014FF0000070BD41F0FE4141F481
:1008C000780170BD70B54FF0FF0C4CF4E06C1CEA81
:1008D00011541DBF1CEA135594EA0C0F95EA0C0F36
:1008E00000F0A7F8A4EB050481EA030E52EA0335F1
:1008F0004FEA013100F088804FEA03334FF0805512
:1009000045EA131343EA12634FEA022245EA11153E
:1009100045EA10654FEA00260EF000419D4208BFEF
:10092000964244F1FD0404F5407402D25B084FEA9C
:100930003202B61A65EB03055B084FEA32024FF448
:1009400080104FF4002CB6EB020E75EB030E22BFA5
:10095000B61A754640EA0C005B084FEA3202B6EB65
:10096000020E75EB030E22BFB61A754640EA5C0014
:100970005B084FEA3202B6EB020E75EB030E22BFA4
:10098000B61A754640EA9C005B084FEA3202B6EBA5
:10099000020E75EB030E22BFB61A754640EADC0064
:1009A00055EA060E18D04FEA051545EA16754FEAC6
:1009B00006164FEAC30343EA52734FEAC2025FEAE4
:1009C0001C1CC0D111F4801F0BD141EA00014FF073
:1009D00000004FF0004CB6E711F4801F04BF014344
:1009E0000020B4F1FD0C88BFBCF5E06F3FF6AFAE60
:1009F000B5EB030C04BFB6EB020C5FEA500C50F1F0
:100A0000000041EB045170BD0EF0004E4EEA113172
:100A100014EB5C04C2BFD4EB0C0541EA045170BD79
:100A200041F480114FF0000E013C90E645EA060EBD
:100A30008DE60CEA135594EA0C0F08BF95EA0C0FEB
:100A40003FF43BAF94EA0C0F0AD150EA01347FF433
:100A500034AF95EA0C0F7FF425AF104619462CE70A
:100A600095EA0C0F06D152EA03353FF4FDAE10466D
:100A7000194622E750EA410618BF52EA43067FF4BE
:100A8000C5AE50EA41047FF40DAF52EA43057FF44E
:100A9000EBAE12E7000000000000000000000000C4
:100AA0004FEA4102B2F1E04324BFB3F5001CDCF190
:100AB000FE5C0DD901F0004C4FEAC0024CEA5070C8
:100AC000B2F1004F40EB830008BF20F001007047F7
:100AD00011F0804F21D113F13872BCBF01F00040FA
:100AE000704741F480114FEA5252C2F11802C2F12C
:100AF000200C10FA0CF320FA02F018BF40F00100AD
:100B00004FEAC1234FEAD32303FA0CFC40EA0C005E
:100B100023FA02F34FEA4303CCE77FEA625307D19B
:100B200050EA01331EBF4FF0FE4040F440007047D2
:100B300001F0004040F0FE4040F40000704700BF6C
:100B400080F0004002E000BF81F0004142001FBF82
:100B50005FEA410392EA030F7FEA226C7FEA236C8B
:100B60006AD04FEA1262D2EB1363C1BFD218414080
:100B700048404140B8BF5B42192B88BF704710F016
:100B8000004F40F4000020F07F4018BF404211F0B9
:100B9000004F41F4000121F07F4118BF494292EA21
:100BA000030F3FD0A2F1010241FA03FC10EB0C004D
:100BB000C3F1200301FA03F100F0004302D54942DA
:100BC00060EB4000B0F5000F13D3B0F1807F06D387
:100BD00040084FEA310102F10102FE2A51D2B1F17F
:100BE000004F40EBC25008BF20F0010040EA030074
:100BF0007047490040EB000010F4000FA2F1010221
:100C0000EDD1B0FA80FCACF1080CB2EB0C0200FAAA
:100C10000CF0AABF00EBC25052421843BCBFD040F8
:100C20001843704792F0000F81F4000106BF80F472
:100C300000000132013BB5E74FEA41037FEA226C35
:100C400018BF7FEA236C21D092EA030F04D092F000
:100C5000000F08BF0846704790EA010F1CBF002034
:100C6000704712F07F4F04D1400028BF40F0004091
:100C7000704712F100723CBF00F50000704700F0B1
:100C8000004343F0FE4040F4000070477FEA2262D8
:100C900016BF08467FEA23630146420206BF5FEAA9
:100CA000412390EA010F40F4800070474FF00003A9
:100CB00004E000BF10F0004348BF40425FEA000C70
:100CC00008BF704743F0964301464FF000001CE018
:100CD00050EA010208BF70474FF000030AE000BF6E
:100CE00050EA010208BF704711F0004302D54042AC
:100CF00061EB41015FEA010C02BF8446014600201E
:100D000043F0B64308BFA3F18053A3F50003BCFA38
:100D10008CF2083AA3EBC25310DB01FA02FC6344E5
:100D200000FA02FCC2F12002BCF1004F20FA02F2EC
:100D300043EB020008BF20F00100704702F12002DF
:100D400001FA02FCC2F1200250EA4C0021FA02F240
:100D500043EB020008BF20EADC707047000000008F
:100D60004FF0FF0C1CEAD0521EBF1CEAD15392EA8E
:100D70000C0F93EA0C0F6FD01A4480EA010C40026A
:100D800018BF5FEA41211ED04FF0006343EA5010C4
:100D900043EA5111A0FB01310CF00040B1F5000F06
:100DA0003EBF490041EAD3715B0040EA010062F1B5
:100DB0007F02FD2A1DD8B3F1004F40EBC25008BF9F
:100DC00020F00100704790F0000F0CF0004C08BFBD
:100DD00049024CEA502040EA51207F3AC2BFD2F18A
:100DE000FF0340EAC250704740F400004FF0000398
:100DF000013A5DDC12F1190FDCBF00F000407047D2
:100E0000C2F10002410021FA02F1C2F1200200FA0F
:100E100002FC5FEA310040F1000053EA4C0308BFD6
:100E200020EADC70704792F0000F00F0004C02BF27
:100E3000400010F4000F013AF9D040EA0C0093F0A2
:100E4000000F01F0004C02BF490011F4000F013BFC
:100E5000F9D041EA0C018FE70CEAD15392EA0C0F6A
:100E600018BF93EA0C0F0AD030F0004C18BF31F0D5
:100E7000004CD8D180EA010000F00040704790F0AB
:100E8000000F17BF90F0004F084691F0000F91F04F
:100E9000004F14D092EA0C0F01D142020FD193EA15
:100EA0000C0F03D14B0218BF084608D180EA01009D
:100EB00000F0004040F0FE4040F40000704740F079
:100EC000FE4040F4400070474FF0FF0C1CEAD05247
:100ED0001EBF1CEAD15392EA0C0F93EA0C0F69D0A3
:100EE000A2EB030280EA010C49024FEA402037D00E
:100EF0004FF0805343EA111143EA10130CF0004005
:100F00008B4238BF5B0042F17D024FF4000C8B42F4
:100F100024BF5B1A40EA0C00B3EB510F24BFA3EBD4
:100F2000510340EA5C00B3EB910F24BFA3EB9103A4
:100F300040EA9C00B3EBD10F24BFA3EBD10340EAFE
:100F4000DC001B0118BF5FEA1C1CE0D1FD2A3FF644
:100F500050AF8B4240EBC25008BF20F001007047F9
:100F60000CF0004C4CEA50207F32C2BFD2F1FF039C
:100F700040EAC250704740F400004FF00003013ACD
:100F800037E792F0000F00F0004C02BF400010F471
:100F9000000F013AF9D040EA0C0093F0000F01F085
:100FA000004C02BF490011F4000F013BF9D041EAA7
:100FB0000C0195E70CEAD15392EA0C0F08D14202DA
:100FC0007FF47DAF93EA0C0F7FF470AF084676E7AD
:100FD00093EA0C0F04D14B023FF44CAF08466EE786
:100FE00030F0004C18BF31F0004CCAD130F0004254
:100FF0007FF45CAF31F000437FF43CAF5FE700BFAC
:101000004FF0FF3C06E000BF4FF0010C02E000BFD4
:101010004FF0010C4DF804CD4FEA40024FEA410376
:101020007FEA226C18BF7FEA236C11D001B052EA2C
:10103000530C18BF90EA010F58BFB2EB030088BFF2
:10104000C81738BF6FEAE17018BF40F00100704761
:101050007FEA226C02D15FEA402C05D17FEA236C43
:10106000E4D15FEA412CE1D05DF8040B704700BF8A
:10107000844608466146FFE70FB5FFF7C9FF002821
:1010800048BF10F1000F0FBD4DF808EDFFF7F4FF5A
:101090000CBF012000205DF808FB00BF4DF808EDF3
:1010A000FFF7EAFF34BF012000205DF808FB00BF16
:1010B0004DF808EDFFF7E0FF94BF012000205DF838
:1010C00008FB00BF4DF808EDFFF7D2FF94BF0120E9
:1010D00000205DF808FB00BF4DF808EDFFF7C8FFE2
:1010E00034BF012000205DF808FB00BF00000000B5
:1010F0004FEA4002B2F1FE4F0FD34FF09E03B3EB25
:1011000012620DD94FEA002343F0004310F0004F64
:1011100023FA02F018BF404270474FF000007047BA
:1011200012F1610F01D1420205D110F0004008BF59
:101130006FF0004070474FF0000070470000000063
:10114000704700BFAFF30080AFF30080AFF30080C3
:10115000FEE700BFAFF30080AFF30080AFF3008085
:1011600072B6704C84F309884EF63472CEF20002E7
:101170004EF68853CEF200034FF0404111601868DC
:1011800040F470051D600022E1EE102A4EF63C731B
:10119000CEF2000306211A6081F31488BFF36F8F2B
:1011A0006148624DA84218D2EA1C051D531B23F06A
:1011B0000302034610184FF0553183421960C2F301
:1011C00080020AD01AB185422B46296005D01D1D28
:1011D0005960083383426960F9D15548A04218D25A
:1011E0005449041D0A1B22F00305034628184FF03A
:1011F000553183421960C5F380020AD01AB1844286
:101200002346216005D01D1D596008338342696063
:10121000F9D101F05DFE4849484881421BD2C61C05
:101220000C1D321B464822F00302161D05680423DC
:10123000B3420D60C2F380020DD022B1456808238D
:10124000B342256007D01A1D1D5884585D500833DD
:10125000B3428C50F7D13B483B49884217D2CB1C54
:10126000041D1A1B22F0030503462818002183429F
:101270001960C5F380020AD01AB184422346216066
:1012800005D01D1D5960083383426960F9D1FFF70D
:1012900057FF2E4D2E498D421DD2CC1C2E1DA71B53
:1012A000B808471C01242A6800EA04089047BC4299
:1012B00011D0B8F1000F05D0022433689847BC4222
:1012C000354608D0696888470234A8682E1D8047D3
:1012D0000835BC42F6D1FEF75BFF1E4D1E4A954213
:1012E0001DD2D41C2E1DA71BBB085F1C012429681E
:1012F00003EA04088847BC4211D0B8F1000F05D0BA
:10130000022430688047BC42354608D06A6890475E
:101310000234AB682E1D98470835BC42F6D1FFF762
:1013200017FF00BF0008002000000020000400207C
:10133000000400200308002000080020340C0020D6
:1013400058570008380C00204895002088010008F4
:10135000880100088801000888010008AFF30080B8
:10136000FEE700BFAFF30080AFF30080AFF3008073
:1013700000F07EFA00DF00BFAFF30080AFF3008023
:10138000EFF309824EF63073CEF20003D2F8CC10A0
:101390005960986868309860683282F30988002341
:1013A00083F31188704700BFAFF30080AFF3008074
:1013B00008B54FF46D43CEF200034FF44072C0F213
:1013C000FA520021996007201021DA6000F080F8BD
:1013D0000A204FF4007100F07BF80B208021BDE85B
:1013E000084000F075B800BFAFF30080AFF3008095
:1013F000202383F311884FF46D43CEF20003586825
:1014000010F4006324D0EFF30983A3F1680282F3A0
:10141000098816494FF080708A6943F84C0CD07FD8
:10142000096892688968B0B1914294BF0022012294
:10143000BAB10F4A43F8502CF1EE10FA4EF6307262
:10144000CEF20002516841F00100596650607047C9
:1014500083F311887047914234BF00220122002A91
:10146000E7D1044843F8500CE8E700BFD80D00204E
:101470007113000874130008AFF30080AFF300800D
:1014800008B5202383F3118800F082F8002383F34A
:101490001188BDE80840FFF7ABBF00BFAFF3008085
:1014A0002DE9F04F2DED108AC1F80CD0D0F80CD0FA
:1014B000BDEC108ABDE8F08FAFF30080AFF3008081
:1014C000002383F311882846A04700F0A1FA704753
:1014D00082084FF46D43CEF20003063200F00300A1
:1014E00030B4C00053F82250FF2404FA00F425EA77
:1014F000040401FA00F10C4343F8224030BC704769
:10150000024B034A98698261FEE700BFD80D0020B4
:1015100000510008AFF30080AFF30080AFF300800C
:1015200000B583B0FFF744FF00F0DAF800F060F890
:1015300000F07EFA00F0B4FA40F638404021C2F2E2
:10154000000000F0A5F940F6D851C2F200010122D6
:1015500088610277002383F3118862B645F2101088
:101560008969C0F600008861009340F6804041F22E
:1015700001534FF4A471C0F60003C2F2000000F062
:10158000E7F903B000BD00BFAFF30080AFF3008008
:1015900038B5134B9869C27F0AB1511EC177036AEF
:1015A000104C5A1C0262E0682268411CA242E160B1
:1015B00014D09568013D956085B91368D1685C6069
:1015C0002360D560002383F31188106988472023A6
:1015D00083F31188226890680028EED038BD00BFE0
:1015E000D80D0020C80D0020AFF30080AFF30080BD
:1015F00040F6C853C2F200034FF0FF3200205B6098
:101600001B609A60D8607047AFF30080AFF3008032
:1016100070B40C4E03613468C260A568A94204D955
:101620002468491BA5688D42FAD363680460B442FC
:10163000436018606060816002D0A068411AA160B8
:1016400070BC7047C80D0020AFF30080AFF300807E
:101650000368074A934203D09968826889189960A1
:1016600042681360036800215A60C160704700BF80
:10167000C80D0020AFF30080AFF30080AFF300800F
:10168000202383F31188037F0D2B11D8DFE803F0AB
:1016900020101007100B101010101010100B416AC2
:1016A0008A68531C8B6090E80C001A6001684B60DC
:1016B0004FF0FF3242628168074B002202771B68BD
:1016C0009A688A42FBD2596803604160086058609A
:1016D000002383F311887047D80D0020AFF30080FA
:1016E00040F6D853C2F2000300225B601B609A6090
:1016F0005B611B61704700BFAFF30080AFF30080F8
:1017000000228168054B02771B689A688A42FBD2E7
:10171000596803604160086058607047D80D002028
:1017200040F6D853C2F2000310B499691A680877DA
:1017300014201468C87701201077104663601C607D
:101740009A6110BCFFF7ACBEAFF30080AFF300802E
:1017500030B54B1C87B0054611D00B4C0B4AA36922
:1017600001A8FFF755FF2846FFF7DAFF049B13B1E6
:1017700001A8FFF76DFFA069406A07B030BDFFF711
:10178000CFFF014CF7E700BFD80D002081160008FD
:10179000F0B4144F8568BE690446B06861620023E6
:1017A00085420CD82377394609688A689542FBD967
:1017B00048682160606004604C60F0BC704733771B
:1017C000394609688A689042FBD948683160706080
:1017D00006604E600123204631462377BC61F0BC91
:1017E000FFF75EBED80D0020AFF30080AFF300809E
:1017F0000E4B18689969026830B453601A608C689F
:1018000098610125142300220577CB770A770346D8
:1018100000E01B689A68A242FBD25A680B604A60DB
:101820001160596030BCFFF73BBE00BFD80D0020EF
:101830000D4B18689969026830B453608C681A605F
:1018400001259861002305770B77034600E01B68AC
:101850009A68A242FBD85A680B604A6011605960CE
:1018600030BCFFF71DBE00BFD80D0020AFF30080D5
:10187000034B9869C17F09B1FFF7DABFFFF7B8BF23
:10188000D80D0020AFF30080AFF30080AFF30080ED
:10189000F0B440F6D854C2F2000400226569016435
:1018A000046100F12C06816000F1280745614FF0CA
:1018B000020C60610121142480F81CC04277C477B7
:1018C000C2638263026281778261286187620663F4
:1018D000C662F0BC704700BFAFF30080AFF300807A
:1018E0002DE9F001643940F6D8554118C2F20005DF
:1018F00000266F69C1600B64059B4B6441F2C143D4
:10190000C0F600030B660221944600F1280800F19E
:101910002C020177142301210561C0F808C047613A
:10192000044668614677C377C0F840C0C6638663E3
:101930000662817786613861C0F828800263C262DE
:10194000BDE8F001704700BFAFF30080AFF3008047
:1019500010B51C4682B0202383F311882346049CD3
:101960000094FFF7BDFF00210446FFF711FF00239D
:1019700083F31188204602B010BD00BFAFF3008092
:1019800008B50146202383F311880620FFF7E0FE07
:10199000002383F3118808BDAFF30080AFF300800C
:1019A00008B5202383F31188064B1A68986991685B
:1019B0008368994201D3FFF71BFF002383F311884B
:1019C00008BD00BFD80D0020AFF30080AFF300804A
:1019D00038B50E4B9C692546606255F8280FA84221
:1019E00006D00168A162FFF78BFEA06AA842F8D179
:1019F000607F830704D1636922691A6121694B61A1
:101A00000E20BDE83840FFF78BBE00BFD80D002088
:101A1000202383F31188FFF7DBBF00BFAFF3008003
:101A20000023406000608360704700BFAFF3008018
:101A300040F6F85240F6F4534CF200010648C2F268
:101A40000002C2F20003C2F2010120F0070021F0FF
:101A500007011060196070474F950020AFF30080B8
:101A6000202383F31188094B09491A680968073054
:101A700020F00700891A88429ABF101818600022C7
:101A8000002383F311881046704700BFF80D002033
:101A9000F40D0020AFF30080AFF30080AFF30080BF
:101AA00040F60063C2F2000341F661210022C0F655
:101AB000000103F1100019609A60DA60FFF7B0BF0F
:101AC00008B500F02DFD45F26020C0F6000000F0E2
:101AD0002FFE00F02DF800F043F800F051F800F070
:101AE00037F8BDE8084001F0FBB900BFAFF3008054
:101AF0004FF48053CEF2000319465A688018824290
:101B00004B6802D29A4202D970479A42F7D998425A
:101B100094BF00230123002BF1D17047AFF3008065
:101B20000A460BC801FA03F100F0DABEAFF30080F9
:101B300000F0EEBDAFF30080AFF30080AFF30080A4
:101B40000123002103704160704700BFAFF30080A4
:101B5000704700BFAFF30080AFF30080AFF30080A9
:101B600001F08EB9AFF30080AFF30080AFF30080D7
:101B7000002301220270436083600C30FFF750BFE6
:101B800001F016B8AFF30080AFF30080AFF3008030
:101B90000023012202704360C36183620362C36257
:101BA0004362036303814381704700BFAFF300804A
:101BB00030B400EB81040025E468A4692570E2607C
:101BC0006360A56030BC01F0E3B800BFAFF30080F4
:101BD00030B400EB81040025E46864692570E2609C
:101BE0006360A56030BC01F0EBB800BFAFF30080CC
:101BF00070B5448944FA01F313F001060D4601D093
:101C0000012070BD012303FA01F52C43448101F04A
:101C1000F7F8304670BD00BFAFF30080AFF300802F
:101C200070B5048944FA01F313F001060D4601D0A2
:101C3000012070BD012303FA01F52C43048101F05A
:101C4000E7F8304670BD00BFAFF30080AFF300800F
:101C500010B40346002202240470A0F84C2083F83C
:101C60004E2080F84F2002814281C26002614261B1
:101C7000826183F8342010BC00F0B2BFAFF3008063
:101C8000F8B50446002380F8343000F1440201F036
:101C90006FF86068816841B32046884728B3E56BD8
:101CA00094F8443094F84B1094F84A2042EA01200A
:101CB000A8423CBF0546E06313F0800F2B467DD160
:101CC000002D68D1052184F83410204629462A4683
:101CD000FFF77EFF202383F3118820462946FFF774
:101CE0009FFF2B4683F31188F8BD94F8443013F01E
:101CF000600711D00021204601F0AAF820460021FB
:101D000001F09EF863681A6812B1204605219047D9
:101D1000062084F83400F8BD94F8456003F07F0293
:101D200042EA0626B6F5407F00F0F98016DDB6F5EA
:101D3000C06F00F0898068DDB6F5106F00F0B480E8
:101D400040F60242964278D0B6F5006FD2D1012516
:101D500004F14F00A063E5632764A3E7022E00F0BF
:101D6000B58065DDB6F5807F00F08780B6F5817FB0
:101D7000C0D194F846100029BCD194F8485015F011
:101D80000F0150D02A06204600F1FA8001F068F8D1
:101D900094F8443047E0042284F83420204600219F
:101DA000A26BFFF705FF202383F311880021204653
:101DB000FFF71EFF002383F31188F8BD95B10121C1
:101DC00084F8341020460021A26BFFF701FF202386
:101DD00083F3118800212046FFF722FF002383F3BD
:101DE0001188F8BD032084F83400294620462A468D
:101DF000FFF7DEFE202383F3118820462946FFF7F4
:101E0000F7FE2B4683F31188F8BD40F2023086427C
:101E100073D0B6F5A06F7FF46DAFB4F84410B1F590
:101E2000A06F00F09B800025A563E563256439E77A
:101E3000002E32D0012E7FF45DAF564902250022DC
:101E4000A163E56322642DE7606894F8496094F823
:101E50004830456894F8471094F84620204643EAF5
:101E60000623A84700283FF445AF4168056894F869
:101E70004430A163E563276414E794F84620012AFF
:101E80007FF438AFB4F84C00A76320F00201A4F847
:101E90004C10E76327643D4604E7022504F14C003B
:101EA000A063E5632664FDE694F8465084F84F503D
:101EB000002D44D10321217062681568002DB2D035
:101EC00020460221A84794F84430ACE794F8483003
:101ED00013F0800F204603F00F0133D100F028FFEC
:101EE000012833D002287FF405AF2B4DE063A563B2
:101EF000276494F844300546D4E694F84610002947
:101F00007FF4F8AE94F8485015F00F018BD02B06F3
:101F100020463AD400F094FF94F8443083E794F8D4
:101F20004620012A7FF4E6AEB4F84C50A76345F092
:101F30000200A4F84C00E76327643D46B2E60420A3
:101F40002070B9E700F004FF0128CBD1134AE66303
:101F5000A263276494F844303546A3E694F84630EB
:101F6000204684F84E3000F0D3FE65682A6812B12E
:101F7000204601219047032094F84430207052E716
:101F800000F076FF94F844304DE700F061FF94F8DC
:101F9000443048E7305100084051000850510008D3
:101FA00038B590F83430022B044624D0052B36D0B7
:101FB000012B10D0002100F04BFF2046002100F043
:101FC0003FFF6068026812B1204605219047062154
:101FD00084F8341038BD90F84B1090F84A30C26B3A
:101FE00043EA0121914206D9C5682B8AB2FBF3F17D
:101FF00003FB1125D5B1002103200B4684F83400E2
:102000000A462046FFF7D4FD202383F311880021E0
:102010002046FFF7EDFD002383F3118838BD026CE5
:1020200002B19047002384F8343038BD2B4629464E
:102030002A46FFF7CDFD202383F311882046294649
:10204000FFF7EEFD2B4683F31188022084F834005D
:1020500038BD00BFAFF30080AFF30080AFF3008066
:1020600090F83430032B10B5044626D0042B11D041
:102070000021204600F0ECFE2046002100F0E0FEAA
:1020800063681A6812B1204605219047062184F83A
:10209000341010BD002105220B4680F834200A467A
:1020A000FFF796FD202383F3118800212046FFF7D8
:1020B000B7FD002383F3118810BDC1688B699A684E
:1020C000002AD5D1016C01B18847002084F8340082
:1020D00010BD00BFAFF30080AFF30080AFF300800E
:1020E0004FF4C043C4F2020307481968026810B5F0
:1020F0003D2401F03D019C600AB140689047BDE875
:102100001040FFF775B900BF200E0020AFF300802C
:102110004FF4C043C4F2020308481968826810B53E
:102120008C0904F03D014FF474649C600AB1C068EE
:102130009047BDE81040FFF75BB900BF200E0020BC
:102140004FF4C043C4F2020308481968026910B58D
:102150000C0C04F03D014FF474149C600AB140690A
:102160009047BDE81040FFF743B900BF200E0020A4
:102170004FF4C043C4F2020308481968826910B5DD
:102180008C0D04F03D014FF074649C600AB1C0698D
:102190009047BDE81040FFF72BB900BF200E00208C
:1021A0004FF4C043C4F2020307485968026A10B5ED
:1021B0003D2401F03D01DC600AB1406A9047BDE872
:1021C0001040FFF715B900BF200E0020AFF30080CC
:1021D0004FF4C043C4F2020308485968826A10B53C
:1021E0008C0904F03D014FF47464DC600AB1C06AEC
:1021F0009047BDE81040FFF7FBB800BF200E00205D
:102200004FF4C043C4F2020308485968026B10B58A
:102210000C0C04F03D014FF47414DC600AB1406B07
:102220009047BDE81040FFF7E3B800BF200E002044
:102230004FF4C043C4F2020308485968826B10B5DA
:102240008C0D04F03D014FF07464DC600AB1C06B8A
:102250009047BDE81040FFF7CBB800BF200E00202C
:102260004FF4C843C4F2020307481968026C10B562
:102270003D2401F03D019C600AB1406C9047BDE8EF
:102280001040FFF7B5B800BF200E0020AFF300806C
:102290004FF4C843C4F2020308481968826C10B5B1
:1022A0008C0904F03D014FF474649C600AB1C06C69
:1022B0009047BDE81040FFF79BB800BF200E0020FC
:1022C0004FF4C843C4F2020308481968026D10B500
:1022D0000C0C04F03D014FF474149C600AB1406D85
:1022E0009047BDE81040FFF783B800BF200E0020E4
:1022F0004FF4C843C4F2020308481968826D10B550
:102300008C0D04F03D014FF074649C600AB1C06D07
:102310009047BDE81040FFF76BB800BF200E0020CB
:102320004FF4C843C4F2020307485968026E10B55F
:102330003D2401F03D01DC600AB1406E9047BDE8EC
:102340001040FFF755B800BF200E0020AFF300800B
:102350004FF4C843C4F2020308485968826E10B5AE
:102360008C0904F03D014FF47464DC600AB1C06E66
:102370009047BDE81040FFF73BB800BF200E00209B
:102380004FF4C843C4F2020308485968026F10B5FD
:102390000C0C04F03D014FF47414DC600AB1406F82
:1023A0009047BDE81040FFF723B800BF200E002083
:1023B0004FF4C843C4F2020308485968826F10B54D
:1023C0008C0D04F03D014FF07464DC600AB1C06F05
:1023D0009047BDE81040FFF70BB800BF200E00206B
:1023E0002DE9F00F40F6A0658AB0C2F2000546F272
:1023F00040400295783046F21045C4F20205A0F53F
:1024000080600495C4F2020046F240450390C4F295
:10241000020546F228400695C4F2020046F27045D5
:102420000590C4F2020546F258400195C4F202003C
:1024300046F2B8450790C4F2020546F28840099575
:10244000C4F20200029D089046F2100B002040F6F4
:10245000206346F2280A46F2400946F2580846F23E
:10246000700C46F2880746F2A006C2F2000328600C
:10247000C4F2020B039DCBF80000C4F2020AC4F2BE
:102480000209C4F20208C4F2020CC4F20207C4F248
:1024900002061860CAF800009860C9F800001861C8
:1024A000C8F800009861CCF80000186238609862A3
:1024B000306018632860049D98632860059D186447
:1024C0002860069D98642860079D186546F21044B0
:1024D00028606034019D986530342860C4F202049D
:1024E000089D18664FF4C0414FF4C8422860C4F2FA
:1024F00002019866C4F202022060099C18674FF03E
:10250000FF35206098678D60CD609560D5600AB01A
:10251000BDE8F00F704700BFAFF30080AFF300805D
:102520004FF46053C4F2020370B400224FF0FF3442
:1025300019691C611A6159695C615A611E6A4EF21F
:102540001001CEF2000166F0805649F23F051E628E
:10255000C0F202051A624EF6F0505E6A5C62CEF27C
:1025600000005A624D608A6007220A60C1684FF419
:102570008052CEF2000241F08071C160106840F0DC
:1025800001011160186C4FF4E042C4F2000240F007
:1025900080511964136843F480701060516821F40D
:1025A0000073536070BCFFF71BBF00BFAFF3008028
:1025B0004FF46052C4F202024FF4E043C4F200034D
:1025C0004FF0805111644FF4804218461A604368FE
:1025D0005B04FCD54FF46050C4F20200014602686F
:1025E00042F00103036008684FF460538007C4F2AF
:1025F0000203F8D5196841F480321A601846016860
:102600004FF460538A03C4F20203F8D55A6F42F0C4
:102610000100586719464A6F4FF460539007C4F29F
:102620000203F8D545F20840C0F2407058601968BE
:1026300041F080721A60184601684FF460538A01B5
:10264000C4F20203F8D598684FF414424FF4705165
:10265000C3F60802C4F20201104340F2057298600A
:102660000A60996841F002009860996801F00C00D6
:102670004FF460520828C4F20202F6D1536C43F4BE
:1026800080415164506E40F480435366704700BFF0
:1026900038B51C4D2B691A8A9C89A4B21440E143B9
:1026A00004F0020089B282B21982002A24D104F017
:1026B000040082B2DAB904F0080082B292B904F0E0
:1026C000100082B24AB9E30703D56A680D489368DF
:1026D0009847BDE83840FEF78BBE6B680948996A99
:1026E0008847F0E76B680748196A8847E7E76B682F
:1026F000044899698847DEE76B6828461969884766
:10270000D5E700BFA40E0020AFF30080AFF3008038
:1027100010B540F6A464C2F200042046FFF710FA98
:102720004FF40063C4F20003236110BDAFF30080D7
:102730004FF46053C4F202031A6B6FEA52216FEA3E
:1027400041221A63196D6FEA51226FEA422119651D
:1027500000234168C4F202034FF48062596081682B
:102760009960C168D96001695961416919628169DB
:10277000596201681960016AC4F202024FF40063F1
:102780005160416A9160816AD160C16A5161016B97
:102790001162416B5162C1691160C4F20203C26BE4
:1027A0005A60016C9960426CDA60816C5961C26C4C
:1027B0001A62016D5962816B4FF440621960816D3C
:1027C000C4F202024FF480535160C16D9160016EFA
:1027D000D160416E5161816E1162C16E5162416D75
:1027E0001160C4F20203426F5A60816F9960C26F38
:1027F000DA60D0F880105961D0F884201A62D0F8DD
:1028000088105962016F4FF4A0521960D0F89010EF
:10281000C4F202024FF4C0535160D0F8941091609A
:10282000D0F89810D160D0F89C105161D0F8A01069
:102830001162D0F8A4105162D0F88C101160D0F859
:10284000AC10C4F202034FF4E0525960D0F8B0105B
:102850009960D0F8B410D960D0F8B8105961D0F8A8
:10286000BC101962D0F8C0105962D0F8A810C4F298
:1028700002021960D0F8C8305360D0F8CC109160D3
:10288000D0F8D030D360D0F8D4105161D0F8D8301F
:102890001362D0F8DC105162D0F8C4104FF400532A
:1028A0001160D0F8E420C4F202035A60D0F8E810B6
:1028B0009960D0F8EC20DA60D0F8F0105961D0F8C7
:1028C000F4201A62D0F8F8105962D0F8E0001860CD
:1028D000704700BFAFF30080AFF30080AFF300801C
:1028E0002DE9F00F002302F00307C2F38006C2F3C4
:1028F000C105C2F341144FF00F09C2F3C3124FF0E8
:10290000010A38E0D0F820B02BEA0C0C4CEA080899
:10291000C0F82080D0F804B00AFA03FC2BEA0C08B7
:1029200048EA060BC0F804B04FEA430C4FF0030B23
:10293000D0F808800BFA0CFC6FEA0C0C0CEA0808C3
:1029400048EA0508C0F80880D0F80C800CEA0808AE
:1029500048EA0408C0F80C80D0F800800CEA080CA3
:102960004CEA070CC0F800C049081AD07600AD0048
:10297000A400BF00013303F0070C4FEA8C0C11F0E8
:10298000010F02FA0CF809FA0CFCEDD0072BB9D9AB
:10299000D0F824B02BEA0C0C4CEA0808C0F82480CC
:1029A000B8E7BDE8F00F7047AFF30080AFF30080E9
:1029B000F8B5046D04EB41134FF0FF32D3F8086B08
:1029C000C3F8082B330705460F4603D5D4F814384F
:1029D0001A0715D4F30703D5D4F81408C00700D498
:1029E000F8BD05EB87036989D868012202FA07F26E
:1029F00021EA02036B81C268394628469047F8BD38
:102A000000EB8102D3685A689047E3E7AFF3008098
:102A1000026D890141F02003136110698106FCD425
:102A20000C20FFF765B800BFAFF30080AFF3008064
:102A3000F8B5046D04EB41134FF0FF32D3F8086989
:102A4000C3F80829F30705460F4603D5D4F8103814
:102A5000DA071FD4330606D50121D4F8340801FA69
:102A600007F7074200D1F8BD202383F31188EB6DEF
:102A7000D4F83428686E3B4322EA0707EB65C4F8B4
:102A8000347818B1FEF73CFE00206866002383F31B
:102A90001188F8BD00EB8102B0F808E0D36801228C
:102AA00002FA01F22EEA020202819B689847D1E7FE
:102AB00070B53E4E356D6B69AC691C40E1046C61CC
:102AC0002BD4A20448BFD5F80838230704D5706872
:102AD000C16809B135488847E00629D46103D5F8B3
:102AE000185807D5EA0749D4AB074DD4680751D425
:102AF000290755D4220307D5EB0332D4A80336D4D3
:102B0000690327D42A0303D4BDE87040FEF770BCE4
:102B100026480321FFF74CFFF6E73046FFF798F809
:102B200073681B68002BCCD0304600219847C8E75B
:102B3000202383F31188AA69706E22F01003AB6121
:102B400020B1FEF7DDFD194900204866002383F31C
:102B50001188C3E702211548FFF72AFF2A03D3D5BE
:102B6000D6E712480021FFF723FFA803C8D50121AB
:102B70000E48FFF71DFF6903C4D5EBE700210B48A2
:102B8000FFF756FFAB07B1D508480121FFF750FF0B
:102B90006807ADD502210548FFF74AFF2907A9D5E7
:102BA00002480321FFF744FFA4E700BFB80E00204E
:102BB00010B540F6B864C2F200042046FEF7E8FF04
:102BC00045F2202100234FF0A040C0F6000123660B
:102BD00063662065616510BDAFF30080AFF30080D0
:102BE0002DE9F84F80460021046DFFF711FFD8F85A
:102BF00054B0DBF808A04FF00061FF22C4F80019C0
:102C00000AF00106C4F8001B0123C4F80829C4F81F
:102C1000082BBAF1000F33D066B102235345C4F834
:102C2000201904F51267C4F8201BC4F82829C4F839
:102C3000282B25D85F1C03F1480903F1580003F144
:102C4000490C03F1590E04EB431604EB4715400100
:102C50004FEA49194FEA4C1C4FEA4E1E02335345C6
:102C600044F809102150C6F80829C6F8082B44F882
:102C70000C1044F80E10C5F80829C5F8082BD9D94E
:102C8000DBF80030D8F850204FF0FF314FF001163C
:102C90001025C4F81818C4F81C68C8F858306362C6
:102CA0001561106910F01005FBD10C20FEF720FF14
:102CB000D4F80038D8F8581023F4FE62C4F800287D
:102CC000A66946F44020092240F01006A66148F2A9
:102CD0004003C4F81028C4F814280B4AC1F20003BA
:102CE00001F1100041F48011C8F80C20C4F8105B09
:102CF000C4F8003BC4F81059C4F80039C8F85800AB
:102D0000A162BDE8F88F00BF30520008AFF3008029
:102D1000036D90F84E10D3F8002822F4FE6040EACC
:102D20000111C3F800187047AFF30080AFF30080C3
:102D30005831036D49015A5812F4004004D012F47E
:102D4000001F0CBF02200120704700BFAFF30080BE
:102D50004831036D49015A5812F4004004D012F46E
:102D6000001F0CBF02200120704700BFAFF300809E
:102D700000EB8101CB68186A0168436811605360F9
:102D8000704700BFAFF30080AFF30080AFF3008067
:102D900000EB810310B4DC68006DA269638A54689B
:102DA000621ED41800EB411143F0C042B4FBF3F3B0
:102DB00042EAC340C1F8100B10BC7047AFF300806B
:102DC00000EB810310B4DA6853695B686BB1128A57
:102DD000006D5C1EA418B4FBF2F200EB411143EA53
:102DE000C243C1F8103910BC7047006D00EB4112AE
:102DF0004FF40021C2F81019F5E700BFAFF30080CF
:102E00005831036D49015A5842F08060585070475C
:102E100001F14802036D5201985840F00440985067
:102E20000120D3F8342800FA01F11143C3F8341813
:102E3000704700BFAFF30080AFF30080AFF30080B6
:102E40005831036D49015A5842F4001058507047E8
:102E50004831036D49015A5842F4001058507047E8
:102E60005831036D49015A5822F4001058507047E8
:102E70004831036D49015A5822F4001058507047E8
:102E800038B541F2F00341F2F404C2F20004C2F298
:102E900000034FF6FF7220461A80FEF769FE45F2E6
:102EA0006013C0F600034FF4705016214622C4F29E
:102EB000000003F15405C0F20101C0F20102E0611B
:102EC00023626562A162E26238BD00BFAFF3008099
:102ED000FFF76EBBAFF30080AFF30080AFF300806D
:102EE000704700BFAFF30080AFF30080AFF3008006
:102EF000F8B59FED250A2DED048B244D9FED248A16
:102F00009FED249ADFED248A00242DE007EE106A5D
:102F1000B8EEC71A013661EE091A21EEA80A00F0D0
:102F200007FE02EE106A60EE082AF8EEC27AFDEEA5
:102F3000E23A27EE893A13EE900A23EE280AA88097
:102F400000F0F6FD04EE104A20EE085AF8EEC44AEE
:102F5000BDEEC56A64EE895A16EE101A25EEA80A6F
:102F600025F8061F00F0E4FD20EE080A661CFDEEC1
:102F7000C00A033410EE903AAF1CB6F5205F6B80A8
:102F8000C4D1BDEC048BF8BD00000000362D00203C
:102F900000000046DB0FC94000000039AFF300809D
:102FA0002DE9F04F42F63452C2F2000287B01468A5
:102FB0000291C4EB0415059404EB840482462205B7
:102FC00028054FF46046D10C0AF5006C0AF58053D1
:102FD0005A4F01914FEAD04B00243546CDF810C02E
:102FE00003934FF01F094FF4783846E000F5D550B1
:102FF00041F6FF730A30C8F200030340002B31F89A
:103000001220C0F2858031F8131011FB09800028CE
:10301000B8BF00F57F501CFB098CB8BF3F30BCF136
:10302000000FBCBF0CF57F5C0CF13F0CC0F3873385
:103030004FF4FC213F2012FB0012002ABCBF02F516
:103040007F523F32CCF3873C05F50075C2F38730E1
:1030500003EBCC23ADB203EB401329B2029A41F645
:10306000FF708142135304DD06F50076B6B24FF4CB
:1030700060450234B4F5006F51D016FB06F015FB25
:10308000050207EE902AB8EEE70A04992AF80450E0
:10309000F1EEC00A0E53F4EE600AF1EE10FA48D1D8
:1030A000BCEEE00A37F81B20DDF804C010EE100A71
:1030B0001118C804C20C37F81C3037F81210DDF8AC
:1030C0000CC011FB03F3002BBCBF03F57F533F3350
:1030D000C3F38F3108B22CF8041040F6000100F55C
:1030E000155341F6FF72C2F200011533C8F2000217
:1030F000096800F5805C1A40002A31F81CC0BFF650
:1031000075AF013A6FEAC2436FEAD34201326DE70D
:10311000013B6FEAC3406FEAD043013373E7059B7D
:1031200042F63454C2F20004591C216007B0BDE8D5
:10313000F08F00F03DFDF0EE400AB1E7382D0020A1
:103140002DE9F00F374D384C35F813C0266835F8A7
:1031500011B036F811A035F8129036F8128036F812
:10316000137082B0002300F5805200F50061CDF8A5
:1031700000C0D55AC65A15FB0AF416FB0B44002CA6
:10318000BCBF04F5FF541F34641316FB0AF615FB8D
:103190000BF5D452741B44BF04F5FF541F3466135F
:1031A000C652CC5AD55A14FB08F60196DDF804C075
:1031B00015FB09F6BCEB060615FB08F514FB0954D4
:1031C00044BF06F5FF561F36002CBCBF04F5FF5464
:1031D0001F346513C6F34F36D552CE52DDF800C00A
:1031E000C55A16FB07F415FB0C44002CDDF800C093
:1031F000BCBF04F5FF541F3415FB07F516FB0CF696
:103200006413AD1B44BF05F5FF551F356D13CC523C
:10321000C5520233B3F5006FABD102B0BDE8F00F79
:10322000704700BF382D002000080020AFF3008059
:103230002DE9F04F85B000240090009A039148F2E8
:103240001F5900F5805002F500612546019002915A
:10325000C5F2EB1905E001350234B5F5806F00F0D9
:103260008880019BDDF800801F5F38F9042007F596
:103270000057002349F23C569F42C2F200063846EE
:10328000B8BFF81CB6F800A0861041F2241EC6F59F
:103290000056C2F2000E0298BEF8001030F804B0DA
:1032A000B6B206FB02F289FB02E04FEAE27C002F95
:1032B000CCEB204EB8BF07F6FF770EEB510141F67D
:1032C0002C5041F2285C41F2281E3F13C2F2000C40
:1032D000C2F2000EC2F20000C7F103021FFA81F829
:1032E00097B2005F3CF904101EF8052000F058FB6F
:1032F0000FFA8BF303FB06F6F21789FB0601C2EB0C
:10330000214606EB5A0AB8451FFA8AFAA3D9BA45EC
:10331000A1D941F22410C2F200000388D91B8845CC
:1033200099DA49F23C52C2F200021088C31B9A4556
:1033300091DA03990FFA88F00B5B3AB20FFA8AF12F
:1033400000F02EFB41F2281341F62C5241F2285096
:10335000C2F20003C2F20002C2F20000EF540135D3
:1033600024F8028024F800A00234B5F5806F7FF4C1
:1033700078AF05B0BDE8F08FAFF30080AFF3008009
:10338000074B10B51C7804B110BD01221A7000F073
:103390000FF800F04DF82046BDE8104000F088BB63
:1033A0003E950020AFF30080AFF30080AFF30080C4
:1033B00008B5054B986900B108BDFEF781FBBDE873
:1033C0000840FEF7ADB800BFD80D0020AFF3008075
:1033D000034608B9FEF7E4BA421C0CD04FF47A72E7
:1033E00002FB03F344F6D350C1F26200591EA0FB66
:1033F00001139A09501CFEF7C3BA00BFAFF3008057
:10340000034600B97047411C0CD04FF47A7202FB9E
:1034100003F34DF68360C4F21B30591EA0FB011369
:103420009A0C501CFEF7ACBAAFF30080AFF30080EB
:1034300000F0E6B8AFF30080AFF30080AFF3008098
:1034400070B46D4C2479032C00F2B780DFE804F0EF
:103450008E5C2A028518461E013DC9B200234FF03A
:10346000C044C6F20203B21841EA0526B5B24426AA
:103470002680C0051D80D20545252580C00DD20DB2
:103480004625188025801A8000234FF0C042C6F2DE
:10349000020389B24E24148019804F2111801880B4
:1034A00070BC704786B2C6F1F00489B2A21AC1F5A9
:1034B000A075C0F1EF00D2B20024C6F20204EB1AEC
:1034C00042EA00224FF0C045C1F59F7190B2013130
:1034D000DB0544222A80DB0D2080C9054520288099
:1034E000C90D238046232B8021804FF0C042C6F1B6
:1034F000EF000023C6F20203C6B24E2010804F2018
:103500001E8010801980CBE78EB2C6F1F00480B225
:10351000E31AC0F5A075C1F1EF01DBB20024C6F2D9
:103520000204AA1A43EA01234FF0C045C0F59F7078
:1035300099B20130D20544232B80D20D2180C005E1
:1035400045212980C00D228046222A8020804FF00C
:10355000C042C6F1EF010023C6F20203CEB24E21F3
:1035600011804F211E801180188099E786184D1E0A
:10357000721EC0B20024C6F20204EB1840EA022612
:103580004FF0C045B2B244262E80C9052280DB052B
:1035900045222A80C90DDB0D462221802A80238006
:1035A00000234FF0C042C6F2020380B24E241480C2
:1035B00018804F201080198072E7032C3FF670AFFF
:1035C000DFE804F0060A1202C005C9B2C00D5BE7CD
:1035D000CC05C0B2E10DE3E785B2C5F59F76731C5B
:1035E000DA058EB2D00DB2E78DB2C5F59F76731CA9
:1035F000DA0586B2D10D78E740950020AFF3008060
:103600002DE9F04F45F2E0034FF46054C4F2020498
:10361000C0F6000393E80700A66B89B00C3302AD37
:1036200046F00107A76385E8070093E8070005ACAB
:1036300084E80700284640F20261FEF771FA20464E
:1036400040F20261FEF76CFA40F60A274FF0204381
:103650000026C0F20A075F604FF48061C4F20206E0
:1036600041F211071F6019228846304600244FF0AE
:10367000C045C6F20204FFF733F91420A6F81A80F9
:103680000027FFF7A5FE4FF001091420A6F81880C7
:10369000FFF79EFE2F800520A4F80090FFF7B0FEF4
:1036A0004FF0030A4AF6A401A5F800A005202180E6
:1036B000FFF7A6FE0C20288005202780FFF7A0FE3C
:1036C00040F60C060D222A8005202680FFF798FE82
:1036D0000E234FF42C512B8005202180FFF790FE04
:1036E000B0221E20288042F63F3622800520FFF7B8
:1036F00087FEA5F8009005202680FFF781FE4FF495
:10370000C06102232B8005202180FFF779FE102065
:103710002880052027800526FFF772FE112246F239
:1037200070032A8030462380FFF76AFE2E803046E1
:103730002780FFF765FE0621298030462780FFF7A6
:103740005FFE4EF61C721620288022803046FFF75E
:1037500057FE17232B803046A4F800A0FFF750FE39
:10376000072101F59672298030462280FFF748FE36
:103770000B20288030462780FFF742FE0F232B8046
:1037800030462780FFF73CFE4121298030462780C4
:10379000FFF736FE42222A8030462780FFF730FEB0
:1037A0004820288030462780FFF72AFE40F23F1B42
:1037B00049232B803046A4F800B0FFF721FE4A21B0
:1037C000298030462780FFF71BFE4B222A80304697
:1037D0002780FFF715FE4FF46F4344202880238095
:1037E0003046FFF70DFE4521298030462780FFF740
:1037F00007FE46222A803046A4F800B0FFF700FEFC
:1038000040F207733020288023803046FFF7F8FD10
:103810004FF40178312129803046A4F80080FFF769
:10382000EFFD32222A801346A4F80080304601932F
:1038300040F2025BFFF7E4FD332028803046A4F815
:1038400000B0FFF7DDFD342140F2075229803046F9
:103850002280FFF7D5FD35232B803046A4F8008069
:10386000FFF7CEFD362028803046A4F80080FFF711
:10387000C7FD372129803046A4F800B0FFF7C0FD0E
:1038800008F1FE083A222A803046A4F80080FFF7AB
:10389000B7FD3B232B803046A4F80080FFF7B0FD36
:1038A0002320288030462780FFF7AAFD2421298085
:1038B00030462780FFF7A4FD25224FF400432A80DD
:1038C00030462380FFF79CFD4F202880304627801C
:1038D000FFF796FD4E21298030462780FFF790FDA7
:1038E00049F24053C2F200036421F02299711A8018
:1038F000019A1F714FF4A070588083F805A0DA7107
:10390000484609B0BDE8F08FAFF30080AFF3008008
:10391000224B1B7930B4032B16D8DFE803F0392E85
:10392000021FC1F59F71002301314FF0C044C6F260
:103930000203C0F1EF00CD05C0B2E90D4E25258090
:1039400018804F20208019800023C6F202034FF018
:10395000C041222008801A8030BC704700234FF0FD
:10396000C044C6F20203C505C9B2E80D4E25258044
:1039700019804F2121801880E6E7C0F59F70002351
:1039800001304FF0C044C6F20203C1F1EF01EAE793
:1039900000234FF0C044C6F20203CCE7409500205C
:1039A0002DE9F04FC2F1010587B01C461FFA80F8DF
:1039B000ABB28FB2002011B2039204930290059132
:1039C00017E0059A0398049B02990533891A421E51
:1039D00003EB410193B201351AB289B20393A8B245
:1039E0000592049105B2029905984B1C85420293F9
:1039F00058DC029A039E95B2B6B206EB070A08EBB2
:103A000005031BB20FFA8AFA184651462246009364
:103A100007EB0509FFF77CFF06EB080C0FFA8CFBA0
:103A20000FFA89F9584649462246CDF804B0FFF707
:103A30006FFFC5EB08000FFA80FB5146584622463F
:103A4000FFF766FFC6EB08010FFA81FA50464946B8
:103A50002246FFF75DFFDDF804C07A1B0FFA82F9FA
:103A6000604649462246FFF753FFBE1B009B36B215
:103A7000184631462246FFF74BFF5846314622464C
:103A8000FFF746FF504622464946FFF741FF04989C
:103A9000020496D5C31C03EB450082B201350492A3
:103AA000A8B29FE707B0BDE8F08F00BFAFF300807A
:103AB00038B51D4D04460020B5F90230B5F9002097
:103AC0000146FFF7BDFC2B79032B0FD8DFE803F08D
:103AD000021C1C024FF0C0410023C6F202034E201C
:103AE000088000224F201A8008801A804FF0C043BF
:103AF0000022222119804FF49630C6F202020238C9
:103B000014801480FBD138BD4FF0C0420020C6F2B3
:103B100002004E211180EF234F210380118040F2DB
:103B20003F120280E2E700BF40950020AFF3008023
:103B300000B540F6D87320F00042C3F649739A42AC
:103B400083B0014616DDB2F1FF4F03DBFCF7FCFF4B
:103B500003B000BD694600F07BF800F003000128C7
:103B600015D002280BD0B8B900980199012201F0B4
:103B700037F9EDE70021002201F032F9E8E700987B
:103B80000199012201F02CF900F10040E0E70098D2
:103B9000019900F07DFADBE70098019900F078FACE
:103BA00000F10040D4E700BF00000000000000006A
:103BB00070B5244C8AB0054600F0FAF994F900304B
:103BC0000133064608D0284601F0EAF920B128461C
:103BD0000021FDF763FA10B930460AB070BD1A4AE9
:103BE000012128460026009101920896FCF7ECFC82
:103BF0002478CDE90401CDE902017CB9002200233B
:103C0000CDE90623684601F06BF988B10898A0B9A0
:103C1000DDE90601FCF744FF0646DDE70020002150
:103C200002460B46FCF74EFE022CCDE90601E9D117
:103C300001F04EFA21230360E8E701F049FA089900
:103C40000160E5E704080020605300080000000060
:103C50002DE9F04F40F6D87320F00044C3F64973C5
:103C60009C4289B006460D4640F38B804CF6E3310A
:103C7000C4F216018C4226DC4FF478610028C3F6AA
:103C8000C97140F32C81FCF75FFF4FF47D6124F094
:103C90000F04C3F6C9718C42064600F0818044F2DD
:103CA0004341C3F23571FCF74FFF014628603046AF
:103CB000FCF74AFF44F24341C3F23571FCF744FF7D
:103CC0000127686061E04FF47867C4F24937BC426D
:103CD00040F38180B4F1FF4F5BDA4FEAE459A9F178
:103CE0008609A4EBC9542046FDF702FAFCF7E2FF6F
:103CF0000246014620460592FCF726FF4FF0874119
:103D0000FDF72EF80746FDF7F3F9FCF7D3FF014660
:103D1000044638460694FCF717FF4FF08741FDF73D
:103D20001FF800210790FDF7AFF9002800F0F78099
:103D30000327204600210DF11808013FFDF7A4F9E3
:103D400040B158F8044D00212046013FFDF79CF991
:103D50000028F6D1924B02200090019305A83B4623
:103D600029464A4600F074FA002E07460DDA95E817
:103D70000C0002F1004103F1004229606A604742F1
:103D800003E00023286000274B60384609B0BDE8F7
:103D9000F08F0146FCF7D8FE002768602860F4E742
:103DA0004FF48841C3F23571FCF7CEFE4AF2083178
:103DB000C2F685610446FCF7C7FE0146286020462E
:103DC000FCF7C2FE4AF20831C2F68561FCF7BCFE80
:103DD00001276860D9E701F08BF84FF68411C3F62C
:103DE00022718046FCF7BCFF4FF07C51FCF7AEFE21
:103DF000FDF77EF90746FCF75DFF4FF47861C3F6E7
:103E0000C9718346FCF7ACFF01464046FCF79CFEB7
:103E100044F243418146C3F235715846FCF7A0FF96
:103E20001F2F8246484620DC791E5E4B53F8211036
:103E300024F0FF028A4218D05146FCF785FE8046E6
:103E4000C5F8008041464846FCF77EFE5146FCF727
:103E50007BFE002E686098DA08F1004800F100420D
:103E6000C5F800806A607F428FE75146FCF76CFE20
:103E7000E3158046C0F3C7501A1A082AE0DD4FF454
:103E80008841C3F2357158460393FCF769FF8246B7
:103E900051464846FCF758FE044621464846FCF782
:103EA00053FE5146FCF750FE4AF208318146C2F6F5
:103EB00085615846FCF754FF4946FCF745FE8246AB
:103EC00051462046FCF740FE039BC0F3C751804695
:103ED000581A192841DCC5F80080A146B2E7FCF762
:103EE00035FE4FF47D6724F00F04C3F6C977BC425A
:103EF000064616D044F24341C3F23571FCF726FE64
:103F0000014628603046FCF71FFE44F24341C3F2ED
:103F10003571FCF71BFE4FF0FF37686035E703276C
:103F200018E74FF48841C3F23571FCF70FFE4AF2EF
:103F30000831C2F685610446FCF708FE0146286098
:103F40002046FCF701FE4AF20831C2F68561FCF713
:103F5000FDFD4FF0FF37686017E74FF42341C2F6CD
:103F600085615846FCF7FCFE804641462046FCF73A
:103F7000EBFD814649462046FCF7E6FD4146FCF74D
:103F8000E3FD43F232110446C2F28D415846FCF77C
:103F9000E7FE2146FCF7D8FD824648464CE700BFC5
:103FA000F0530008705300080000000000000000FB
:103FB00020F00042B2F1FF4FF8B50446034646D266
:103FC000002A42D0002852DBC415B2F5000F09D2F6
:103FD00010F4000553D15B0001351902FBD5C5F182
:103FE0000100241823F07F417F3C21F40006E20702
:103FF00046F4000048BF400043004FF080720027A5
:1040000060109A423C462CDD5B004FF400021825FC
:10401000A61851089E4205F1FF3502DCB4189B1B1F
:10402000BF185B0062189A4202DC9B1A54187F1872
:104030005B004A08013DEBD113B107F001017F1885
:104040007C1004F17C5303EBC0542046F8BD0146BC
:10405000FCF786FE01462046FCF778FD0446204624
:10406000F8BD4FF0007403F17F431746CCE70146DB
:10407000FCF76AFD0146FCF727FF0446E5E701204F
:10408000AFE700BF000000000000000000000000DB
:104090002DE9F84320F00046B6F1485F05460F468B
:1040A0005BDAFDF725F8002800F0CA80294628468B
:1040B000FCF756FE4DF24E71CAF647510446FCF726
:1040C0004FFE47F2F641C3F20F11FCF73FFD2146C8
:1040D000FCF746FE4FF27C21C3F29341FCF734FD1E
:1040E0002146FCF73DFE40F60151C3F2D071FCF7CA
:1040F0002DFD2146FCF734FE40F66131C3F6B621B2
:10410000FCF722FD2146FCF72BFE4AF6AB21C3F655
:104110002A51FCF71BFD2146FCF722FE8046204673
:104120004FF07C51FCF71CFE414606462046FCF74A
:1041300017FE394604462846FCF712FE0146204683
:10414000FCF702FD01463046FCF7FEFC01464FF04D
:104150007E50FCF7F9FCBDE8F8830146FCF700FE51
:104160004DF24E71CAF647510446FCF7F9FD47F28D
:10417000F641C3F20F11FCF7E9FC2146FCF7F0FD14
:104180004FF27C21C3F29341FCF7DEFC2146FCF7A1
:10419000E7FD40F60151C3F2D071FCF7D7FC214690
:1041A000FCF7DEFD40F66131C3F6B621FCF7CCFC2E
:1041B0002146FCF7D5FD4AF6AB21C3F62A51FCF7A0
:1041C000C5FC2146FCF7CCFD49F69913C3F699636B
:1041D0009E428046A3DD0020C3F64870864227DC5D
:1041E00006F17F464FF07E503146FCF7ADFC81462C
:1041F00020464FF07C51FCF7B3FD3146FCF7A4FCA0
:10420000414606462046FCF7ABFD394604462846A3
:10421000FCF7A6FD01462046FCF796FC0146304619
:10422000FCF792FC01464846FCF78EFCBDE8F8839B
:104230004FF000090026C3F63879C3F69066D7E739
:104240004FF07E50BDE8F883000000000000000041
:104250002DE9F04FDFB08B4C689D0C9303F1FF3CD0
:10426000D31E54F825600A9148BF131D8346D81009
:1042700020EAE0710896CDF810C0049D0D91089ECB
:104280000D9CCF4302EBC702AB190792C5EB0407A5
:104290004DD4F8186999C7EB0009461C002F01EBB3
:1042A000870522AC09F0010AC0F27D852868FCF779
:1042B00001FD0137B74220604FF0040837D0BAF152
:1042C000000F23D0002FC0F2718555F80800FCF7CD
:1042D000F1FC0137B74244F8080008F1040815D191
:1042E00025E055F80800FCF7E5FC013708F1040962
:1042F00044F8080013D455F80900FCF7DBFC01373B
:10430000B74244F8090009F1040810D0002FE8DA98
:104310000020013708F1040944F80800EBD5013703
:104320000020B74244F8090009F10408EED1089AC8
:10433000002AC0F23E8508980C9E81004AAD6C1898
:10434000029149AF03944FEA860A049A002AC0F208
:104350004C8322AB03EB8604DBF8000054F8041C0A
:10436000FCF7FEFC01460020FCF7F0FBA4F1040979
:104370000424AAF104055445C5F3800580462AD0DB
:104380006DB159F8041DDBF80400FCF7E9FC0146A7
:104390004046FCF7DBFB0824544580461BD059F807
:1043A000041C5BF80400FCF7DBFC01464046FCF70C
:1043B000CDFB251D804659F8081C5BF80500FCF76D
:1043C000CFFC01464046FCF7C1FB2C1D54458046FE
:1043D000A9F10809E3D147F8048F03980136874211
:1043E000B3D1DDF808C0089E0EA901EB0C070997B0
:1043F000B2005EAB9C18002E029254F8509C7BDDFC
:104400000DF5947E0EEB0205029A4FF06E51484670
:104410000DAFBF18FCF7A4FCFCF76AFEFCF74AFCE2
:104420004FF087410190FCF79BFC01464846FCF7A2
:104430008BFBFCF75DFE0EAC20600198014655F841
:10444000040DFCF783FBBC428146C7F3800153D0C7
:10445000D1B14FF06E51FCF783FCFCF749FEFCF73D
:1044600029FC4FF087410190FCF77AFC0146484651
:10447000FCF76AFBFCF73CFE0FAC019A206011468A
:1044800033E000BF105700084FF06E514846FCF76C
:1044900067FCFCF72DFEFCF70DFC4FF087418046D2
:1044A000FCF75EFC01464846FCF74EFBFCF720FE9D
:1044B0004146606055F8040DFCF748FB4FF06E5123
:1044C0008146FCF74DFCFCF713FEFCF7F3FB4FF0C5
:1044D00087418046FCF744FC01464846FCF734FB24
:1044E000FCF706FE4146A060083455F8040DFCF7C1
:1044F0002DFBBC428146C7D10799484600F080FD9C
:104500004FF078510546FCF72BFC00F0F9FC4FF01A
:104510008241FCF725FC01462846FCF715FB0746BF
:10452000FCF7E6FD8146FCF7C5FB01463846FCF783
:104530000BFB079B002B074640F33181721E0EAC2C
:10454000C3F1080554F8223043FA05F101FA05F0E9
:104550000DF1380E079D1B1AC5F107044EF82230E5
:10456000894443FA04F4002C52DD002E09F10109BC
:1045700040F34B82029ADDF808C00EAB101F53F8CF
:10458000042B0EA900256144C0F3800022B1C2F5BE
:10459000807543F8045C01258B4225D058B10F9AF1
:1045A0000433002D00F0F280C2F1FF0043F8040C48
:1045B00001258B4218D053F8042BC2F1FF0015B926
:1045C000C2F5807012B143F8040C012553F8042B96
:1045D000C2F1FF001DB9C2F58070002AE9D00125A3
:1045E0008B4243F8040CE6D1079B002B0DDD012B19
:1045F00000F0DE80022B08D1711E0DF1380E5EF83E
:10460000212002F03F004EF82100022C00F0DC8057
:1046100038460021FCF738FD002800F0EF800898AC
:10462000751EA84224DC029BDDF824E00EAAD118F6
:104630000B46CEEB010053F8042D011F7345C1F367
:10464000800012D038B153F8041DDDF824C0634552
:1046500042EA010209D0099F53F8040D53F8041DE2
:104660000243BB4242EA0102F6D1002A40F08683AF
:10467000089F0EAD781E55F82020002A40F0C78113
:1046800005EB8004012354F8041D01330029FAD0FE
:10469000F018771C87420B9073DC049DDDF8349092
:1046A0000B9B0C9CDDF808C0EA19699F06EB090119
:1046B000981B07EB8108A6194AA922AB01EB0C0550
:1046C000571C820003EB8600CDF80C800295069201
:1046D00005900026039C54F8040F0394FCF7EAFAB3
:1046E000049D0599002D88514DDB0DF1880E0EEBD0
:1046F0008702AAF1040352F8041CDBF80000C3F39C
:104700008004A2F10409FCF72BFB01460020FCF712
:104710001DFA0425554580462AD06CB159F8041D70
:10472000DBF80400FCF71CFB01464046FCF70EFAE0
:104730000825554580461BD059F8041C5BF8050038
:10474000FCF70EFB01464046FCF700FA2C1D8046A4
:1047500059F8081C5BF80400FCF702FB01464046D0
:10476000FCF7F4F9251D55458046A9F10809E3D168
:104770000298069940F8048F043601378E42029061
:10478000A8D10B9E34E64FF00008F1E7002A3FF471
:1047900010AFC2F5807543F8045C012509E740F0CD
:1047A0001D81701E0DF1380C5CF820100C12DAE639
:1047B000731E0DF1380C022C5CF8231001F07F02FF
:1047C0004CF823207FF424AF39464FF07E50FCF79D
:1047D000BBF90746002D3FF41BAF07994FF07E5001
:1047E00000F00EFC01463846FCF7AEF907463846A5
:1047F0000021FCF749FC00287FF411AF0394079CCB
:10480000CDF810906142384600F0FAFB4FF0874136
:104810000546FCF757FC002800F0D4824FF06E519B
:104820002846FCF79DFAFCF763FCFCF743FA4FF0CF
:1048300087410746FCF794FA01462846FCF784F9BD
:10484000FCF756FC0EAB43F826003846FCF750FC4C
:10485000013607990DF1380C08314CF82600079104
:104860004FF07E50079900F0CBFB002E0446C0F2BB
:10487000AC804FEA860A0EAF5744C6EB867B4FEA00
:104880008B09C9F100034AA9386801EB0A08C3F390
:10489000800BFCF70FFA2146FCF762FA4FF06E51DD
:1048A000C8F800002046FCF75BFAA9F104096FF094
:1048B000030ACA45054631D0BBF1000F0BD057F8AB
:1048C000040CFCF7F7F92946FCF74AFA6FF0070ADF
:1048D00048F8040C1AE057F80A00FCF7EBF92946EF
:1048E000FCF73EFA4FF06E5148F80A002846FCF7F4
:1048F00037FAAAF1040405463859FCF7DBF92946D2
:10490000FCF72EFA48F80400AAF1080A28464FF0EE
:104910006E51FCF725FACA450546DCD1701CDFF85C
:10492000BC94DDF820A0029000270596BAF1000F94
:10493000C0F22082002FC0F21D82002600241AF04F
:10494000010F354620D0D8F80010D9F80000FCF748
:1049500007FA01462046FCF7F9F80125AA45044666
:1049600026DB0426BD420FDD22E0BB4520DC58F8E3
:10497000021059F80200FCF7F3F901462046FCF753
:10498000E5F8BD42044613DC58F8061059F8060055
:10499000FCF7E6F901462046FCF7D8F805F1010BD3
:1049A00006F104020235DA45044602F10406DCDAB7
:1049B0005EABDDF808E003EB87010137774541F88E
:1049C000A04CA8F10408B1D1059E689C032C31D8F5
:1049D000DFE814F0A0013A013A0136004FF07C51B3
:1049E000FCF770FB58B9002412E64FF0000847F8B6
:1049F000048F0398013687427FF4A7ACF1E40224C8
:104A0000002E09F101093FF7B5AD0025ECE50123C2
:104A10003EE600230399002900F00B81379C36986D
:104A200004F100420A9C00F1004503F100432560B7
:104A30006260A360049D05F007005FB0BDE8F08FE1
:104A4000002EE6DD06F1FF3836AF07EB88094D464C
:104A50000DF1D40A55F80429D5F808B00192104692
:104A60005946FCF773F8804641460198FCF76CF80C
:104A700001465846FCF76AF85545C9F38003A8601B
:104A8000C5F8048044D0BBB155F80429D5F808B066
:104A9000019210465946FCF759F80199804608469C
:104AA0004146FCF751F801465846FCF74FF855458A
:104AB000C5F80480A8602BD02C4654F80439D4F8EB
:104AC00008B0019318465946FCF740F88046414625
:104AD0000198FCF739F801465846FCF737F8C4F856
:104AE0000480A06055F804BC251F5846D5F80880FE
:104AF0004146FCF72BF8044621465846FCF724F8BB
:104B000001464046FCF722F855456C60A860D3D1B9
:104B1000012E7FF77EAF4D46C7EB090C55F804B95F
:104B2000D5F808A058465146ACF10409FCF70EF838
:104B3000804641465846FCF707F801465046FCF7C8
:104B400005F8BD42C9F38009C5F80480A86043D0C8
:104B5000B9F1000F15D055F804A9D5F808905046C2
:104B60004946FBF7F3FF804641465046FBF7ECFF12
:104B700001464846FBF7EAFFBD42C5F80480A8603D
:104B80002AD02C4654F804A9D4F808905046494637
:104B9000FBF7DCFF804641465046FBF7D5FF014658
:104BA0004846FBF7D3FFC4F80480A06055F8049C86
:104BB000251F4846D5F808804146FBF7C7FF044645
:104BC00021464846FBF7C0FF01464046FBF7BEFFC3
:104BD000BD426C60A860D4D1013607EB86073E4623
:104BE00008357A1B131F56F8041D0020C3F38007F5
:104BF000FBF7ACFFAE4203463FF40CAF3FB156F8B3
:104C0000041DFBF7A3FFAE4203463FF403AF184673
:104C1000341F56F8041CFBF799FF083E54F8041C97
:104C2000FBF794FFAE42F3D10399034600297FF4CA
:104C3000F5AEDDF828E036993798CEF80010CEF8BA
:104C40000400CEF80830F5E60023002E29DB36AF4D
:104C5000751C07EB85042546E21B55F8041D002052
:104C6000A2F1040CCCF38008FBF770FFBD420346B1
:104C700017D0B8F1000F06D055F8041DFBF766FFFA
:104C8000BD4203460DD018462C1F55F8041CFBF7F7
:104C90005DFF083D54F8041CFBF758FFBD42F3D1FB
:104CA00003460399002967D003F10040DDF828E0AE
:104CB0001946CEF800003698FBF746FF002E034653
:104CC00021DD36AF07EB8606F51B2A1F3799C2F3A5
:104CD0008007FBF73BFF37ACB442034613D037B134
:104CE0006168FBF733FF38ACB44203460BD018467B
:104CF00054F8041FFBF72AFF54F8041FFBF726FFA4
:104D0000B442F5D10346039909B103F100430A9C6B
:104D100063608FE6002E5FDB36AF013607EB86005F
:104D20000546C21B55F8041D0020141FFBF70EFF9B
:104D3000BD42C4F38006034615D036B155F8041DB4
:104D4000FBF704FFBD4203460DD018462C1F55F853
:104D5000041CFBF7FBFE083D54F8041CFBF7F6FEB1
:104D6000BD42F3D10346039909B103F100430A9C04
:104D700023605FE600241BE6184697E70EAE079A0D
:104D800056F82530CDF81090083A039407920BBBE3
:104D900006EB85042E4654F8045D013E083A002DCA
:104DA000F9D007925CE50020FFF783BA0020FFF7F7
:104DB00090BA0C9B4FEA820ECDF808E04FEA830AC6
:104DC000FFF70FBB2846FCF793F90DF1380E4EF8AC
:104DD000260045E52E4643E50023C4E7205700089A
:104DE0002DE9F84320F00043B3F1485F04460F4635
:104DF000904603DAFCF77CF9002859D0214620467A
:104E0000FBF7AEFF21460546FBF7AAFF4CF6D31190
:104E1000C2F62E7106462846FBF7A2FF42F6347111
:104E2000C3F2D721FBF790FE2946FBF799FF4EF618
:104E30001B71C3F23861FBF789FE2946FBF790FF2F
:104E400040F60151C3F65011FBF77EFE2946FBF7F1
:104E500087FF48F68901C3F60841FBF777FE8146D4
:104E6000B8F1000F27D04FF07C513846FBF778FFA0
:104E7000494680463046FBF773FF01464046FBF744
:104E800063FE2946FBF76CFF3946FBF75DFE4AF6E9
:104E9000AB210546C3F62A613046FBF761FF0146A8
:104EA0002846FBF753FE01462046FBF74DFE04461D
:104EB0002046BDE8F88301462846FBF751FF4AF635
:104EC000AB21C3F62A61FBF73FFE3146FBF748FFF3
:104ED00001462046FBF73AFE04462046BDE8F8832B
:104EE00000207047000000000000000000000000EB
:104EF00020F00040704700BF0000000000000000EC
:104F0000F8B520F00046F50D7F3D162D014604460C
:104F10001BDC002D074620DB4FF6FF73C0F27F033A
:104F200043FA05F606420ED04FF2CA21C7F24911E4
:104F3000FBF70CFE0021FCF7CFF818B1002C1BDBAF
:104F400027EA060421460846F8BDB6F1FF4FFAD31A
:104F5000FBF7FCFD01460846F8BD4FF2CA21C7F237
:104F60004911FBF7F3FD0021FCF7B6F80028E9D062
:104F7000002C07DB0024E5E74FF4000040FA05F5BC
:104F80006719DDE70021CBF68071002E18BF0C46B3
:104F9000D8E700BF00000000000000000000000093
:104FA00008B902207047B0F1004FFAD0A0F5000216
:104FB0006FF001439A4201D80420704700F1FF418D
:104FC0009942F9D94FF6FE73421EC0F27F039A420E
:104FD00001D80320704700F100414A1E9A42F8D9D7
:104FE000B0F1FF4F05D010F5000F14BF00200120D5
:104FF00070470120704700BF000000000000000063
:1050000038B530F00044034602460D460FD0B4F1E7
:10501000FF4F0ED2B4F5000F11D3E40D6419FE2C2E
:1050200033DC002C1BDD22F0FF4141EAC45318465B
:1050300038BD0146FBF78AFD0346184638BD4FF0E0
:105040009841FBF78DFE43F6B041CFF6FF718D42DC
:10505000034612DBC0F3C7540246193CDEE714F1E5
:10506000160F21DA4CF25032954219460EDC44F20A
:105070006020C0F6A25000F023F844F26021C0F690
:10508000A251FBF76DFE0346D1E719464FF2CA2045
:10509000C7F2491000F014F84FF2CA21C7F24911C3
:1050A000FBF75EFE0346C2E722F0FF4304F119005E
:1050B00043EAC0504FF04C51FBF752FE0346B6E7AF
:1050C00001F0004120F0004008437047000000005C
:1050D00040F63043C2F20003186870470000000039
:1050E000000C0240B3CF000000000000001002409E
:1050F00080FF000000000000000000000000000031
:1051000069646C6500000000000000000000000001
:105110006D61696E0016C011040448080C10141863
:10512000001C1D1E1F2000000000000000000000E9
:10513000000000000000000000000000000000006F
:10514000000000000000000000000000000000005F
:10515000010000000000000000000000000000004E
:10516000106002400860024000000B00286002400E
:105170000860024006010C004060024008600240E6
:1051800010020D00586002400860024016030E0035
:10519000706002400C60024000040F008860024012
:1051A0000C60024006051000A06002400C60024046
:1051B00010061100B86002400C60024016072F0074
:1051C000106402400864024000083800286402406D
:1051D0000864024006093900406402400864024045
:1051E000100A3A005864024008640240160B3B0063
:1051F000706402400C640240000C3C008864024071
:105200000C640240060D4400A06402400C6402409D
:10521000100E4500B86402400C640240160F4600B0
:10522000800000008001000003000000000000007A
:1052300000000000811C0008A11F00086120000878
:1052400040004000D8100020D810002001000000CD
:10525000E810002000000000000000000000000036
:1052600000AAA02A00000000FFABFFFF540001408D
:10527000FFFF00000000565500AA0A008020080029
:1052800040020000FFFFFFFF15455155FFFF0000E2
:105290000000000440000000018020020000000027
:1052A000FFFFFFFF54154554FFFF000000000060A2
:1052B000000606000001005500000000FFFFFFFF90
:1052C00055505500FF0F00000000000000000000D6
:1052D0004000000000000000FFFFFFFF0000000092
:1052E000FFFF0000000000000000000000000000C0
:1052F00000000000FFFFFFFF00000000FFFF0000B4
:10530000000000000000000000000000000000009D
:10531000FFFFFFFF00000000FFFF00000000000093
:10532000000000000000000000000000FFFFFFFF81
:1053300000000000FFFF000000000000000000006F
:105340000000000000000000FFFFFFFF0000000061
:10535000FFFF00000000000000000000000000004F
:10536000737172746600000000000000000000000D
:10537000000FC93F000F494000CB9640000FC940C5
:105380000053FB4000CB164100ED2F41000F494177
:105390000031624100537B41003A8A4100CB964183
:1053A000005CA34100EDAF41007EBC41000FC9414C
:1053B00000A0D5410031E24100C2EE410053FB4163
:1053C00000F20342003A0A420083104200CB164228
:1053D00000141D42005C234200A5294200ED2F422B
:1053E00000363642007E3C4200C74242000F49422E
:1053F000A2000000F9000000830000006E00000021
:105400004E000000440000001500000029000000CC
:10541000FC0000002700000057000000D100000041
:10542000F500000034000000DD000000C0000000B6
:10543000DB00000062000000950000009900000001
:105440003C0000004300000090000000410000000C
:10545000FE0000005100000063000000AB000000EF
:10546000DE000000BB000000C5000000610000007D
:10547000B7000000240000006E0000003A000000A9
:10548000420000004D000000D2000000E0000000DB
:1054900006000000490000002E000000EA000000A5
:1054A00009000000D1000000920000001C00000074
:1054B000FE0000001D000000EB0000001C000000CA
:1054C000B100000029000000A70000003E0000001D
:1054D000E80000008200000035000000F500000038
:1054E0002E000000BB00000044000000840000000B
:1054F000E90000009C000000700000002600000091
:10550000B40000005F0000007E00000041000000C9
:105510003900000091000000D600000039000000B2
:10552000830000005300000039000000F400000078
:105530009C000000840000005F0000008B00000061
:10554000BD000000F9000000280000003B00000042
:105550001F000000F800000097000000FF0000009E
:10556000DE00000005000000980000000F000000B1
:10557000EF0000002F000000110000008B00000071
:105580005A0000000A0000006D0000001F0000002B
:105590006D000000360000007E000000CF0000001B
:1055A00027000000CB00000009000000B700000049
:1055B0004F000000460000003F00000066000000B1
:1055C0009E0000005F000000EA0000002D000000C7
:1055D0007500000027000000BA000000C7000000AE
:1055E000EB000000E5000000F10000007B0000007F
:1055F0003D0000000700000039000000F700000037
:105600008A0000005200000092000000EA00000042
:105610006B000000FB0000005F000000B100000014
:105620001F0000008D0000005D0000000800000069
:10563000560000000300000030000000460000009B
:10564000FC0000007B0000006B000000AB000000CD
:10565000F0000000CF000000BC00000020000000AF
:105660009A000000F4000000360000001D00000059
:10567000A9000000E30000009100000061000000AC
:105680005E000000E60000001B00000008000000B3
:105690006500000099000000850000005F00000028
:1056A00014000000A000000068000000400000009E
:1056B0008D000000FF000000D80000008000000006
:1056C0004D000000730000002700000031000000C2
:1056D0000600000006000000150000005600000053
:1056E000CA00000073000000A8000000C90000000C
:1056F00060000000E20000007B000000C00000002D
:105700008C0000006B0000000000000000000000A2
:105710000400000007000000090000000000000075
:105720000000C93F0000F0390000DA370000A23362
:105730000000842E0000502B0000C2270000D02261
:105740000000C41F0000C61B00004417000000003A
:045750004300000012
:10575800383D00200100000000000000F40A00208D
:105768005C0B0020C40B00200000000000000000BB
:105778000000000000000000000000000000000021
:105788000000000000000000000000005057000862
:105798000000000000000000000000000000000001
:1057A80000000000000000000000000000000000F1
:1057B80000000000000000000000000000000000E1
:1057C80000000000000000000000000000000000D1
:1057D80000000000000000000000000000000000C1
:1057E80000000000000000000000000000000000B1
:1057F80000000000000000000000000000000000A1
:1058080001000000000000000E33CDAB34126DE63D
:10581800ECDE05000B0000000000000000000000A6
:105828000000000000000000000000000000000070
:105838000000000000000000000000000000000060
:105848000000000000000000000000000000000050
:105858000000000000000000000000000000000040
:045B880008080020E9
:04000005080011617D
:00000001FF
